{
  "contractName": "DNS",
  "abi": [
    {
      "inputs": [],
      "stateMutability": "payable",
      "type": "constructor"
    },
    {
      "anonymous": false,
      "inputs": [
        {
          "indexed": true,
          "internalType": "address",
          "name": "owner",
          "type": "address"
        },
        {
          "indexed": true,
          "internalType": "address",
          "name": "approved",
          "type": "address"
        },
        {
          "indexed": true,
          "internalType": "uint256",
          "name": "tokenId",
          "type": "uint256"
        }
      ],
      "name": "Approval",
      "type": "event"
    },
    {
      "anonymous": false,
      "inputs": [
        {
          "indexed": true,
          "internalType": "address",
          "name": "owner",
          "type": "address"
        },
        {
          "indexed": true,
          "internalType": "address",
          "name": "operator",
          "type": "address"
        },
        {
          "indexed": false,
          "internalType": "bool",
          "name": "approved",
          "type": "bool"
        }
      ],
      "name": "ApprovalForAll",
      "type": "event"
    },
    {
      "anonymous": false,
      "inputs": [
        {
          "indexed": true,
          "internalType": "address",
          "name": "from",
          "type": "address"
        },
        {
          "indexed": true,
          "internalType": "address",
          "name": "to",
          "type": "address"
        },
        {
          "indexed": true,
          "internalType": "uint256",
          "name": "tokenId",
          "type": "uint256"
        }
      ],
      "name": "Transfer",
      "type": "event"
    },
    {
      "inputs": [
        {
          "internalType": "address",
          "name": "to",
          "type": "address"
        },
        {
          "internalType": "uint256",
          "name": "tokenId",
          "type": "uint256"
        }
      ],
      "name": "approve",
      "outputs": [],
      "stateMutability": "nonpayable",
      "type": "function"
    },
    {
      "inputs": [
        {
          "internalType": "address",
          "name": "owner",
          "type": "address"
        }
      ],
      "name": "balanceOf",
      "outputs": [
        {
          "internalType": "uint256",
          "name": "",
          "type": "uint256"
        }
      ],
      "stateMutability": "view",
      "type": "function"
    },
    {
      "inputs": [
        {
          "internalType": "string",
          "name": "",
          "type": "string"
        }
      ],
      "name": "domains",
      "outputs": [
        {
          "internalType": "string",
          "name": "",
          "type": "string"
        }
      ],
      "stateMutability": "view",
      "type": "function"
    },
    {
      "inputs": [
        {
          "internalType": "uint256",
          "name": "tokenId",
          "type": "uint256"
        }
      ],
      "name": "getApproved",
      "outputs": [
        {
          "internalType": "address",
          "name": "",
          "type": "address"
        }
      ],
      "stateMutability": "view",
      "type": "function"
    },
    {
      "inputs": [
        {
          "internalType": "address",
          "name": "owner",
          "type": "address"
        },
        {
          "internalType": "address",
          "name": "operator",
          "type": "address"
        }
      ],
      "name": "isApprovedForAll",
      "outputs": [
        {
          "internalType": "bool",
          "name": "",
          "type": "bool"
        }
      ],
      "stateMutability": "view",
      "type": "function"
    },
    {
      "inputs": [],
      "name": "name",
      "outputs": [
        {
          "internalType": "string",
          "name": "",
          "type": "string"
        }
      ],
      "stateMutability": "view",
      "type": "function"
    },
    {
      "inputs": [
        {
          "internalType": "uint256",
          "name": "",
          "type": "uint256"
        }
      ],
      "name": "names",
      "outputs": [
        {
          "internalType": "string",
          "name": "",
          "type": "string"
        }
      ],
      "stateMutability": "view",
      "type": "function"
    },
    {
      "inputs": [],
      "name": "owner",
      "outputs": [
        {
          "internalType": "address payable",
          "name": "",
          "type": "address"
        }
      ],
      "stateMutability": "view",
      "type": "function"
    },
    {
      "inputs": [
        {
          "internalType": "uint256",
          "name": "tokenId",
          "type": "uint256"
        }
      ],
      "name": "ownerOf",
      "outputs": [
        {
          "internalType": "address",
          "name": "",
          "type": "address"
        }
      ],
      "stateMutability": "view",
      "type": "function"
    },
    {
      "inputs": [
        {
          "internalType": "string",
          "name": "",
          "type": "string"
        }
      ],
      "name": "records",
      "outputs": [
        {
          "internalType": "string",
          "name": "",
          "type": "string"
        }
      ],
      "stateMutability": "view",
      "type": "function"
    },
    {
      "inputs": [
        {
          "internalType": "address",
          "name": "from",
          "type": "address"
        },
        {
          "internalType": "address",
          "name": "to",
          "type": "address"
        },
        {
          "internalType": "uint256",
          "name": "tokenId",
          "type": "uint256"
        }
      ],
      "name": "safeTransferFrom",
      "outputs": [],
      "stateMutability": "nonpayable",
      "type": "function"
    },
    {
      "inputs": [
        {
          "internalType": "address",
          "name": "from",
          "type": "address"
        },
        {
          "internalType": "address",
          "name": "to",
          "type": "address"
        },
        {
          "internalType": "uint256",
          "name": "tokenId",
          "type": "uint256"
        },
        {
          "internalType": "bytes",
          "name": "data",
          "type": "bytes"
        }
      ],
      "name": "safeTransferFrom",
      "outputs": [],
      "stateMutability": "nonpayable",
      "type": "function"
    },
    {
      "inputs": [
        {
          "internalType": "address",
          "name": "operator",
          "type": "address"
        },
        {
          "internalType": "bool",
          "name": "approved",
          "type": "bool"
        }
      ],
      "name": "setApprovalForAll",
      "outputs": [],
      "stateMutability": "nonpayable",
      "type": "function"
    },
    {
      "inputs": [
        {
          "internalType": "bytes4",
          "name": "interfaceId",
          "type": "bytes4"
        }
      ],
      "name": "supportsInterface",
      "outputs": [
        {
          "internalType": "bool",
          "name": "",
          "type": "bool"
        }
      ],
      "stateMutability": "view",
      "type": "function"
    },
    {
      "inputs": [],
      "name": "symbol",
      "outputs": [
        {
          "internalType": "string",
          "name": "",
          "type": "string"
        }
      ],
      "stateMutability": "view",
      "type": "function"
    },
    {
      "inputs": [
        {
          "internalType": "uint256",
          "name": "tokenId",
          "type": "uint256"
        }
      ],
      "name": "tokenURI",
      "outputs": [
        {
          "internalType": "string",
          "name": "",
          "type": "string"
        }
      ],
      "stateMutability": "view",
      "type": "function"
    },
    {
      "inputs": [
        {
          "internalType": "address",
          "name": "from",
          "type": "address"
        },
        {
          "internalType": "address",
          "name": "to",
          "type": "address"
        },
        {
          "internalType": "uint256",
          "name": "tokenId",
          "type": "uint256"
        }
      ],
      "name": "transferFrom",
      "outputs": [],
      "stateMutability": "nonpayable",
      "type": "function"
    },
    {
      "inputs": [
        {
          "internalType": "string",
          "name": "name",
          "type": "string"
        },
        {
          "internalType": "string",
          "name": "did",
          "type": "string"
        },
        {
          "internalType": "address",
          "name": "to",
          "type": "address"
        }
      ],
      "name": "register",
      "outputs": [],
      "stateMutability": "payable",
      "type": "function"
    },
    {
      "inputs": [
        {
          "internalType": "string",
          "name": "name",
          "type": "string"
        }
      ],
      "name": "getAddress",
      "outputs": [
        {
          "internalType": "string",
          "name": "",
          "type": "string"
        }
      ],
      "stateMutability": "view",
      "type": "function"
    },
    {
      "inputs": [
        {
          "internalType": "string",
          "name": "name",
          "type": "string"
        },
        {
          "internalType": "string",
          "name": "record",
          "type": "string"
        }
      ],
      "name": "setRecord",
      "outputs": [],
      "stateMutability": "nonpayable",
      "type": "function"
    },
    {
      "inputs": [
        {
          "internalType": "string",
          "name": "name",
          "type": "string"
        }
      ],
      "name": "getRecord",
      "outputs": [
        {
          "internalType": "string",
          "name": "",
          "type": "string"
        }
      ],
      "stateMutability": "view",
      "type": "function"
    },
    {
      "inputs": [],
      "name": "isOwner",
      "outputs": [
        {
          "internalType": "bool",
          "name": "",
          "type": "bool"
        }
      ],
      "stateMutability": "view",
      "type": "function"
    },
    {
      "inputs": [],
      "name": "getAllNames",
      "outputs": [
        {
          "internalType": "string[]",
          "name": "",
          "type": "string[]"
        }
      ],
      "stateMutability": "view",
      "type": "function"
    },
    {
      "inputs": [
        {
          "internalType": "string",
          "name": "name",
          "type": "string"
        }
      ],
      "name": "valid",
      "outputs": [
        {
          "internalType": "bool",
          "name": "",
          "type": "bool"
        }
      ],
      "stateMutability": "pure",
      "type": "function"
    }
  ],
  "bytecode": "0x6080604052604051806108a0016040528061086b8152602001620042de61086b913960089080519060200190620000389291906200016e565b506040518060400160405280600d81526020017f3c2f746578743e3c2f7376673e0000000000000000000000000000000000000081525060099080519060200190620000869291906200016e565b506040518060400160405280601081526020017f444944204e616d652053657276696365000000000000000000000000000000008152506040518060400160405280600381526020017f444e53000000000000000000000000000000000000000000000000000000000081525081600090805190602001906200010b9291906200016e565b508060019080519060200190620001249291906200016e565b50505033600a60006101000a81548173ffffffffffffffffffffffffffffffffffffffff021916908373ffffffffffffffffffffffffffffffffffffffff16021790555062000283565b8280546200017c906200024d565b90600052602060002090601f016020900481019282620001a05760008555620001ec565b82601f10620001bb57805160ff1916838001178555620001ec565b82800160010185558215620001ec579182015b82811115620001eb578251825591602001919060010190620001ce565b5b509050620001fb9190620001ff565b5090565b5b808211156200021a57600081600090555060010162000200565b5090565b7f4e487b7100000000000000000000000000000000000000000000000000000000600052602260045260246000fd5b600060028204905060018216806200026657607f821691505b602082108114156200027d576200027c6200021e565b5b50919050565b61404b80620002936000396000f3fe60806040526004361061014b5760003560e01c806370a08231116100b6578063b88d4fde1161006f578063b88d4fde146104e1578063bf40fac11461050a578063c1880a9814610547578063c87b56dd14610570578063e985e9c5146105ad578063fb825e5f146105ea5761014b565b806370a08231146103bd5780638da5cb5b146103fa5780638f32d59b1461042557806395d89b41146104505780639791c0971461047b578063a22cb465146104b85761014b565b80632644923511610108578063264492351461028457806342842e0e146102c15780634622ab03146102ea578063541e771d146103275780635664d69c146103645780636352211e146103805761014b565b806301ffc9a71461015057806306fdde031461018d578063081812fc146101b8578063095ea7b3146101f557806311dd88451461021e57806323b872dd1461025b575b600080fd5b34801561015c57600080fd5b5061017760048036038101906101729190612916565b610615565b604051610184919061295e565b60405180910390f35b34801561019957600080fd5b506101a26106f7565b6040516101af9190612a12565b60405180910390f35b3480156101c457600080fd5b506101df60048036038101906101da9190612a6a565b610789565b6040516101ec9190612ad8565b60405180910390f35b34801561020157600080fd5b5061021c60048036038101906102179190612b1f565b6107cf565b005b34801561022a57600080fd5b5061024560048036038101906102409190612bc4565b6108e7565b6040516102529190612a12565b60405180910390f35b34801561026757600080fd5b50610282600480360381019061027d9190612c11565b61099a565b005b34801561029057600080fd5b506102ab60048036038101906102a69190612d94565b6109fa565b6040516102b89190612a12565b60405180910390f35b3480156102cd57600080fd5b506102e860048036038101906102e39190612c11565b610ab0565b005b3480156102f657600080fd5b50610311600480360381019061030c9190612a6a565b610ad0565b60405161031e9190612a12565b60405180910390f35b34801561033357600080fd5b5061034e60048036038101906103499190612d94565b610b70565b60405161035b9190612a12565b60405180910390f35b61037e60048036038101906103799190612ddd565b610c26565b005b34801561038c57600080fd5b506103a760048036038101906103a29190612a6a565b610e07565b6040516103b49190612ad8565b60405180910390f35b3480156103c957600080fd5b506103e460048036038101906103df9190612e72565b610e8e565b6040516103f19190612eae565b60405180910390f35b34801561040657600080fd5b5061040f610f46565b60405161041c9190612eea565b60405180910390f35b34801561043157600080fd5b5061043a610f6c565b604051610447919061295e565b60405180910390f35b34801561045c57600080fd5b50610465610fc4565b6040516104729190612a12565b60405180910390f35b34801561048757600080fd5b506104a2600480360381019061049d9190612bc4565b611056565b6040516104af919061295e565b60405180910390f35b3480156104c457600080fd5b506104df60048036038101906104da9190612f31565b61110a565b005b3480156104ed57600080fd5b5061050860048036038101906105039190613012565b611120565b005b34801561051657600080fd5b50610531600480360381019061052c9190612bc4565b611182565b60405161053e9190612a12565b60405180910390f35b34801561055357600080fd5b5061056e60048036038101906105699190613095565b611235565b005b34801561057c57600080fd5b5061059760048036038101906105929190612a6a565b61126b565b6040516105a49190612a12565b60405180910390f35b3480156105b957600080fd5b506105d460048036038101906105cf9190613116565b61137e565b6040516105e1919061295e565b60405180910390f35b3480156105f657600080fd5b506105ff611412565b60405161060c9190613262565b60405180910390f35b60007f80ac58cd000000000000000000000000000000000000000000000000000000007bffffffffffffffffffffffffffffffffffffffffffffffffffffffff1916827bffffffffffffffffffffffffffffffffffffffffffffffffffffffff191614806106e057507f5b5e139f000000000000000000000000000000000000000000000000000000007bffffffffffffffffffffffffffffffffffffffffffffffffffffffff1916827bffffffffffffffffffffffffffffffffffffffffffffffffffffffff1916145b806106f057506106ef82611558565b5b9050919050565b606060008054610706906132b3565b80601f0160208091040260200160405190810160405280929190818152602001828054610732906132b3565b801561077f5780601f106107545761010080835404028352916020019161077f565b820191906000526020600020905b81548152906001019060200180831161076257829003601f168201915b5050505050905090565b6000610794826115c2565b6004600083815260200190815260200160002060009054906101000a900473ffffffffffffffffffffffffffffffffffffffff169050919050565b60006107da82610e07565b90508073ffffffffffffffffffffffffffffffffffffffff168373ffffffffffffffffffffffffffffffffffffffff16141561084b576040517f08c379a000000000000000000000000000000000000000000000000000000000815260040161084290613357565b60405180910390fd5b8073ffffffffffffffffffffffffffffffffffffffff1661086a61160d565b73ffffffffffffffffffffffffffffffffffffffff16148061089957506108988161089361160d565b61137e565b5b6108d8576040517f08c379a00000000000000000000000000000000000000000000000000000000081526004016108cf906133e9565b60405180910390fd5b6108e28383611615565b505050565b6060600c83836040516108fb929190613439565b90815260200160405180910390208054610914906132b3565b80601f0160208091040260200160405190810160405280929190818152602001828054610940906132b3565b801561098d5780601f106109625761010080835404028352916020019161098d565b820191906000526020600020905b81548152906001019060200180831161097057829003601f168201915b5050505050905092915050565b6109ab6109a561160d565b826116ce565b6109ea576040517f08c379a00000000000000000000000000000000000000000000000000000000081526004016109e1906134c4565b60405180910390fd5b6109f5838383611763565b505050565b600b818051602081018201805184825260208301602085012081835280955050505050506000915090508054610a2f906132b3565b80601f0160208091040260200160405190810160405280929190818152602001828054610a5b906132b3565b8015610aa85780601f10610a7d57610100808354040283529160200191610aa8565b820191906000526020600020905b815481529060010190602001808311610a8b57829003601f168201915b505050505081565b610acb83838360405180602001604052806000815250611120565b505050565b600d6020528060005260406000206000915090508054610aef906132b3565b80601f0160208091040260200160405190810160405280929190818152602001828054610b1b906132b3565b8015610b685780601f10610b3d57610100808354040283529160200191610b68565b820191906000526020600020905b815481529060010190602001808311610b4b57829003601f168201915b505050505081565b600c818051602081018201805184825260208301602085012081835280955050505050506000915090508054610ba5906132b3565b80601f0160208091040260200160405190810160405280929190818152602001828054610bd1906132b3565b8015610c1e5780601f10610bf357610100808354040283529160200191610c1e565b820191906000526020600020905b815481529060010190602001808311610c0157829003601f168201915b505050505081565b610c308585611056565b15610c70576040517f08c379a0000000000000000000000000000000000000000000000000000000008152600401610c6790613530565b60405180910390fd5b60008585604051602001610c85929190613439565b604051602081830303815290604052905060006008826009604051602001610caf93929190613615565b60405160208183030381529060405290506000610ccc6007611a5d565b90506000610d1d89898080601f016020809104026020016040519081016040528093929190818152602001838380828437600081840152601f19601f82011690508083019250505050505050611a6b565b90506000610d2a82611c20565b90506000610d6286610d3b87611cf8565b84604051602001610d4e939291906137c2565b604051602081830303815290604052611cf8565b9050600081604051602001610d77919061386b565b6040516020818303038152906040529050610d928886611e90565b610d9c8582611eae565b8989600b8e8e604051610db0929190613439565b90815260200160405180910390209190610dcb929190612781565b508b8b600d60008881526020019081526020016000209190610dee929190612781565b50610df96007611f22565b505050505050505050505050565b600080610e1383611f38565b9050600073ffffffffffffffffffffffffffffffffffffffff168173ffffffffffffffffffffffffffffffffffffffff161415610e85576040517f08c379a0000000000000000000000000000000000000000000000000000000008152600401610e7c906138d9565b60405180910390fd5b80915050919050565b60008073ffffffffffffffffffffffffffffffffffffffff168273ffffffffffffffffffffffffffffffffffffffff161415610eff576040517f08c379a0000000000000000000000000000000000000000000000000000000008152600401610ef69061396b565b60405180910390fd5b600360008373ffffffffffffffffffffffffffffffffffffffff1673ffffffffffffffffffffffffffffffffffffffff168152602001908152602001600020549050919050565b600a60009054906101000a900473ffffffffffffffffffffffffffffffffffffffff1681565b6000600a60009054906101000a900473ffffffffffffffffffffffffffffffffffffffff1673ffffffffffffffffffffffffffffffffffffffff163373ffffffffffffffffffffffffffffffffffffffff1614905090565b606060018054610fd3906132b3565b80601f0160208091040260200160405190810160405280929190818152602001828054610fff906132b3565b801561104c5780601f106110215761010080835404028352916020019161104c565b820191906000526020600020905b81548152906001019060200180831161102f57829003601f168201915b5050505050905090565b600060036110a784848080601f016020809104026020016040519081016040528093929190818152602001838380828437600081840152601f19601f82011690508083019250505050505050611a6b565b101580156111025750600a6110ff84848080601f016020809104026020016040519081016040528093929190818152602001838380828437600081840152601f19601f82011690508083019250505050505050611a6b565b11155b905092915050565b61111c61111561160d565b8383611f75565b5050565b61113161112b61160d565b836116ce565b611170576040517f08c379a0000000000000000000000000000000000000000000000000000000008152600401611167906134c4565b60405180910390fd5b61117c848484846120e2565b50505050565b6060600b8383604051611196929190613439565b908152602001604051809103902080546111af906132b3565b80601f01602080910402602001604051908101604052809291908181526020018280546111db906132b3565b80156112285780601f106111fd57610100808354040283529160200191611228565b820191906000526020600020905b81548152906001019060200180831161120b57829003601f168201915b5050505050905092915050565b8181600c8686604051611249929190613439565b90815260200160405180910390209190611264929190612781565b5050505050565b6060611276826115c2565b6000600660008481526020019081526020016000208054611296906132b3565b80601f01602080910402602001604051908101604052809291908181526020018280546112c2906132b3565b801561130f5780601f106112e45761010080835404028352916020019161130f565b820191906000526020600020905b8154815290600101906020018083116112f257829003601f168201915b50505050509050600061132061213e565b9050600081511415611336578192505050611379565b60008251111561136b57808260405160200161135392919061398b565b60405160208183030381529060405292505050611379565b61137484612155565b925050505b919050565b6000600560008473ffffffffffffffffffffffffffffffffffffffff1673ffffffffffffffffffffffffffffffffffffffff16815260200190815260200160002060008373ffffffffffffffffffffffffffffffffffffffff1673ffffffffffffffffffffffffffffffffffffffff16815260200190815260200160002060009054906101000a900460ff16905092915050565b606060006114206007611a5d565b67ffffffffffffffff81111561143957611438612c69565b5b60405190808252806020026020018201604052801561146c57816020015b60608152602001906001900390816114575790505b50905060005b61147c6007611a5d565b81101561155057600d600082815260200190815260200160002080546114a1906132b3565b80601f01602080910402602001604051908101604052809291908181526020018280546114cd906132b3565b801561151a5780601f106114ef5761010080835404028352916020019161151a565b820191906000526020600020905b8154815290600101906020018083116114fd57829003601f168201915b5050505050828281518110611532576115316139af565b5b6020026020010181905250808061154890613a0d565b915050611472565b508091505090565b60007f01ffc9a7000000000000000000000000000000000000000000000000000000007bffffffffffffffffffffffffffffffffffffffffffffffffffffffff1916827bffffffffffffffffffffffffffffffffffffffffffffffffffffffff1916149050919050565b6115cb816121bd565b61160a576040517f08c379a0000000000000000000000000000000000000000000000000000000008152600401611601906138d9565b60405180910390fd5b50565b600033905090565b816004600083815260200190815260200160002060006101000a81548173ffffffffffffffffffffffffffffffffffffffff021916908373ffffffffffffffffffffffffffffffffffffffff160217905550808273ffffffffffffffffffffffffffffffffffffffff1661168883610e07565b73ffffffffffffffffffffffffffffffffffffffff167f8c5be1e5ebec7d5bd14f71427d1e84f3dd0314c0f7b2291e5b200ac8c7c3b92560405160405180910390a45050565b6000806116da83610e07565b90508073ffffffffffffffffffffffffffffffffffffffff168473ffffffffffffffffffffffffffffffffffffffff16148061171c575061171b818561137e565b5b8061175a57508373ffffffffffffffffffffffffffffffffffffffff1661174284610789565b73ffffffffffffffffffffffffffffffffffffffff16145b91505092915050565b8273ffffffffffffffffffffffffffffffffffffffff1661178382610e07565b73ffffffffffffffffffffffffffffffffffffffff16146117d9576040517f08c379a00000000000000000000000000000000000000000000000000000000081526004016117d090613ac8565b60405180910390fd5b600073ffffffffffffffffffffffffffffffffffffffff168273ffffffffffffffffffffffffffffffffffffffff161415611849576040517f08c379a000000000000000000000000000000000000000000000000000000000815260040161184090613b5a565b60405180910390fd5b61185683838360016121fe565b8273ffffffffffffffffffffffffffffffffffffffff1661187682610e07565b73ffffffffffffffffffffffffffffffffffffffff16146118cc576040517f08c379a00000000000000000000000000000000000000000000000000000000081526004016118c390613ac8565b60405180910390fd5b6004600082815260200190815260200160002060006101000a81549073ffffffffffffffffffffffffffffffffffffffff02191690556001600360008573ffffffffffffffffffffffffffffffffffffffff1673ffffffffffffffffffffffffffffffffffffffff168152602001908152602001600020600082825403925050819055506001600360008473ffffffffffffffffffffffffffffffffffffffff1673ffffffffffffffffffffffffffffffffffffffff16815260200190815260200160002060008282540192505081905550816002600083815260200190815260200160002060006101000a81548173ffffffffffffffffffffffffffffffffffffffff021916908373ffffffffffffffffffffffffffffffffffffffff160217905550808273ffffffffffffffffffffffffffffffffffffffff168473ffffffffffffffffffffffffffffffffffffffff167fddf252ad1be2c89b69c2b068fc378daa952ba7f163c4a11628f55a4df523b3ef60405160405180910390a4611a588383836001612204565b505050565b600081600001549050919050565b60008060008084519050600092505b80821015611c15576000858381518110611a9757611a966139af565b5b602001015160f81c60f81b9050608060f81b817effffffffffffffffffffffffffffffffffffffffffffffffffffffffffffff19161015611ae657600183611adf9190613b7a565b9250611c01565b60e060f81b817effffffffffffffffffffffffffffffffffffffffffffffffffffffffffffff19161015611b2857600283611b219190613b7a565b9250611c00565b60f060f81b817effffffffffffffffffffffffffffffffffffffffffffffffffffffffffffff19161015611b6a57600383611b639190613b7a565b9250611bff565b60f8801b817effffffffffffffffffffffffffffffffffffffffffffffffffffffffffffff19161015611bab57600483611ba49190613b7a565b9250611bfe565b60fc60f81b817effffffffffffffffffffffffffffffffffffffffffffffffffffffffffffff19161015611bed57600583611be69190613b7a565b9250611bfd565b600683611bfa9190613b7a565b92505b5b5b5b5b508280611c0d90613a0d565b935050611a7a565b829350505050919050565b606060006001611c2f8461220a565b01905060008167ffffffffffffffff811115611c4e57611c4d612c69565b5b6040519080825280601f01601f191660200182016040528015611c805781602001600182028036833780820191505090505b509050600082602001820190505b600115611ced578080600190039150507f3031323334353637383961626364656600000000000000000000000000000000600a86061a8153600a8581611cd757611cd6613bd0565b5b0494506000851415611ce857611ced565b611c8e565b819350505050919050565b60606000825190506000811415611d215760405180602001604052806000815250915050611e8b565b60006003600283611d329190613b7a565b611d3c9190613bff565b6004611d489190613c30565b90506000602082611d599190613b7a565b67ffffffffffffffff811115611d7257611d71612c69565b5b6040519080825280601f01601f191660200182016040528015611da45781602001600182028036833780820191505090505b5090506000604051806060016040528060408152602001613fd6604091399050600181016020830160005b86811015611e485760038101905062ffffff818a015116603f8160121c168401518060081b905060ff603f83600c1c1686015116810190508060081b905060ff603f8360061c1686015116810190508060081b905060ff603f831686015116810190508060e01b90508084526004840193505050611dcf565b506003860660018114611e625760028114611e7257611e7d565b613d3d60f01b6002830352611e7d565b603d60f81b60018303525b508484525050819450505050505b919050565b611eaa82826040518060200160405280600081525061235d565b5050565b611eb7826121bd565b611ef6576040517f08c379a0000000000000000000000000000000000000000000000000000000008152600401611eed90613cfc565b60405180910390fd5b80600660008481526020019081526020016000209080519060200190611f1d929190612807565b505050565b6001816000016000828254019250508190555050565b60006002600083815260200190815260200160002060009054906101000a900473ffffffffffffffffffffffffffffffffffffffff169050919050565b8173ffffffffffffffffffffffffffffffffffffffff168373ffffffffffffffffffffffffffffffffffffffff161415611fe4576040517f08c379a0000000000000000000000000000000000000000000000000000000008152600401611fdb90613d68565b60405180910390fd5b80600560008573ffffffffffffffffffffffffffffffffffffffff1673ffffffffffffffffffffffffffffffffffffffff16815260200190815260200160002060008473ffffffffffffffffffffffffffffffffffffffff1673ffffffffffffffffffffffffffffffffffffffff16815260200190815260200160002060006101000a81548160ff0219169083151502179055508173ffffffffffffffffffffffffffffffffffffffff168373ffffffffffffffffffffffffffffffffffffffff167f17307eab39ab6107e8899845ad3d59bd9653f200f220920489ca2b5937696c31836040516120d5919061295e565b60405180910390a3505050565b6120ed848484611763565b6120f9848484846123b8565b612138576040517f08c379a000000000000000000000000000000000000000000000000000000000815260040161212f90613dfa565b60405180910390fd5b50505050565b606060405180602001604052806000815250905090565b6060612160826115c2565b600061216a61213e565b9050600081511161218a57604051806020016040528060008152506121b5565b8061219484611c20565b6040516020016121a592919061398b565b6040516020818303038152906040525b915050919050565b60008073ffffffffffffffffffffffffffffffffffffffff166121df83611f38565b73ffffffffffffffffffffffffffffffffffffffff1614159050919050565b50505050565b50505050565b600080600090507a184f03e93ff9f4daa797ed6e38ed64bf6a1f0100000000000000008310612268577a184f03e93ff9f4daa797ed6e38ed64bf6a1f010000000000000000838161225e5761225d613bd0565b5b0492506040810190505b6d04ee2d6d415b85acef810000000083106122a5576d04ee2d6d415b85acef8100000000838161229b5761229a613bd0565b5b0492506020810190505b662386f26fc1000083106122d457662386f26fc1000083816122ca576122c9613bd0565b5b0492506010810190505b6305f5e10083106122fd576305f5e10083816122f3576122f2613bd0565b5b0492506008810190505b612710831061232257612710838161231857612317613bd0565b5b0492506004810190505b60648310612345576064838161233b5761233a613bd0565b5b0492506002810190505b600a8310612354576001810190505b80915050919050565b6123678383612540565b61237460008484846123b8565b6123b3576040517f08c379a00000000000000000000000000000000000000000000000000000000081526004016123aa90613dfa565b60405180910390fd5b505050565b60006123d98473ffffffffffffffffffffffffffffffffffffffff1661275e565b15612533578373ffffffffffffffffffffffffffffffffffffffff1663150b7a0261240261160d565b8786866040518563ffffffff1660e01b81526004016124249493929190613e6f565b6020604051808303816000875af192505050801561246057506040513d601f19601f8201168201806040525081019061245d9190613ed0565b60015b6124e3573d8060008114612490576040519150601f19603f3d011682016040523d82523d6000602084013e612495565b606091505b506000815114156124db576040517f08c379a00000000000000000000000000000000000000000000000000000000081526004016124d290613dfa565b60405180910390fd5b805181602001fd5b63150b7a0260e01b7bffffffffffffffffffffffffffffffffffffffffffffffffffffffff1916817bffffffffffffffffffffffffffffffffffffffffffffffffffffffff191614915050612538565b600190505b949350505050565b600073ffffffffffffffffffffffffffffffffffffffff168273ffffffffffffffffffffffffffffffffffffffff1614156125b0576040517f08c379a00000000000000000000000000000000000000000000000000000000081526004016125a790613f49565b60405180910390fd5b6125b9816121bd565b156125f9576040517f08c379a00000000000000000000000000000000000000000000000000000000081526004016125f090613fb5565b60405180910390fd5b6126076000838360016121fe565b612610816121bd565b15612650576040517f08c379a000000000000000000000000000000000000000000000000000000000815260040161264790613fb5565b60405180910390fd5b6001600360008473ffffffffffffffffffffffffffffffffffffffff1673ffffffffffffffffffffffffffffffffffffffff16815260200190815260200160002060008282540192505081905550816002600083815260200190815260200160002060006101000a81548173ffffffffffffffffffffffffffffffffffffffff021916908373ffffffffffffffffffffffffffffffffffffffff160217905550808273ffffffffffffffffffffffffffffffffffffffff16600073ffffffffffffffffffffffffffffffffffffffff167fddf252ad1be2c89b69c2b068fc378daa952ba7f163c4a11628f55a4df523b3ef60405160405180910390a461275a600083836001612204565b5050565b6000808273ffffffffffffffffffffffffffffffffffffffff163b119050919050565b82805461278d906132b3565b90600052602060002090601f0160209004810192826127af57600085556127f6565b82601f106127c857803560ff19168380011785556127f6565b828001600101855582156127f6579182015b828111156127f55782358255916020019190600101906127da565b5b509050612803919061288d565b5090565b828054612813906132b3565b90600052602060002090601f016020900481019282612835576000855561287c565b82601f1061284e57805160ff191683800117855561287c565b8280016001018555821561287c579182015b8281111561287b578251825591602001919060010190612860565b5b509050612889919061288d565b5090565b5b808211156128a657600081600090555060010161288e565b5090565b6000604051905090565b600080fd5b600080fd5b60007fffffffff0000000000000000000000000000000000000000000000000000000082169050919050565b6128f3816128be565b81146128fe57600080fd5b50565b600081359050612910816128ea565b92915050565b60006020828403121561292c5761292b6128b4565b5b600061293a84828501612901565b91505092915050565b60008115159050919050565b61295881612943565b82525050565b6000602082019050612973600083018461294f565b92915050565b600081519050919050565b600082825260208201905092915050565b60005b838110156129b3578082015181840152602081019050612998565b838111156129c2576000848401525b50505050565b6000601f19601f8301169050919050565b60006129e482612979565b6129ee8185612984565b93506129fe818560208601612995565b612a07816129c8565b840191505092915050565b60006020820190508181036000830152612a2c81846129d9565b905092915050565b6000819050919050565b612a4781612a34565b8114612a5257600080fd5b50565b600081359050612a6481612a3e565b92915050565b600060208284031215612a8057612a7f6128b4565b5b6000612a8e84828501612a55565b91505092915050565b600073ffffffffffffffffffffffffffffffffffffffff82169050919050565b6000612ac282612a97565b9050919050565b612ad281612ab7565b82525050565b6000602082019050612aed6000830184612ac9565b92915050565b612afc81612ab7565b8114612b0757600080fd5b50565b600081359050612b1981612af3565b92915050565b60008060408385031215612b3657612b356128b4565b5b6000612b4485828601612b0a565b9250506020612b5585828601612a55565b9150509250929050565b600080fd5b600080fd5b600080fd5b60008083601f840112612b8457612b83612b5f565b5b8235905067ffffffffffffffff811115612ba157612ba0612b64565b5b602083019150836001820283011115612bbd57612bbc612b69565b5b9250929050565b60008060208385031215612bdb57612bda6128b4565b5b600083013567ffffffffffffffff811115612bf957612bf86128b9565b5b612c0585828601612b6e565b92509250509250929050565b600080600060608486031215612c2a57612c296128b4565b5b6000612c3886828701612b0a565b9350506020612c4986828701612b0a565b9250506040612c5a86828701612a55565b9150509250925092565b600080fd5b7f4e487b7100000000000000000000000000000000000000000000000000000000600052604160045260246000fd5b612ca1826129c8565b810181811067ffffffffffffffff82111715612cc057612cbf612c69565b5b80604052505050565b6000612cd36128aa565b9050612cdf8282612c98565b919050565b600067ffffffffffffffff821115612cff57612cfe612c69565b5b612d08826129c8565b9050602081019050919050565b82818337600083830152505050565b6000612d37612d3284612ce4565b612cc9565b905082815260208101848484011115612d5357612d52612c64565b5b612d5e848285612d15565b509392505050565b600082601f830112612d7b57612d7a612b5f565b5b8135612d8b848260208601612d24565b91505092915050565b600060208284031215612daa57612da96128b4565b5b600082013567ffffffffffffffff811115612dc857612dc76128b9565b5b612dd484828501612d66565b91505092915050565b600080600080600060608688031215612df957612df86128b4565b5b600086013567ffffffffffffffff811115612e1757612e166128b9565b5b612e2388828901612b6e565b9550955050602086013567ffffffffffffffff811115612e4657612e456128b9565b5b612e5288828901612b6e565b93509350506040612e6588828901612b0a565b9150509295509295909350565b600060208284031215612e8857612e876128b4565b5b6000612e9684828501612b0a565b91505092915050565b612ea881612a34565b82525050565b6000602082019050612ec36000830184612e9f565b92915050565b6000612ed482612a97565b9050919050565b612ee481612ec9565b82525050565b6000602082019050612eff6000830184612edb565b92915050565b612f0e81612943565b8114612f1957600080fd5b50565b600081359050612f2b81612f05565b92915050565b60008060408385031215612f4857612f476128b4565b5b6000612f5685828601612b0a565b9250506020612f6785828601612f1c565b9150509250929050565b600067ffffffffffffffff821115612f8c57612f8b612c69565b5b612f95826129c8565b9050602081019050919050565b6000612fb5612fb084612f71565b612cc9565b905082815260208101848484011115612fd157612fd0612c64565b5b612fdc848285612d15565b509392505050565b600082601f830112612ff957612ff8612b5f565b5b8135613009848260208601612fa2565b91505092915050565b6000806000806080858703121561302c5761302b6128b4565b5b600061303a87828801612b0a565b945050602061304b87828801612b0a565b935050604061305c87828801612a55565b925050606085013567ffffffffffffffff81111561307d5761307c6128b9565b5b61308987828801612fe4565b91505092959194509250565b600080600080604085870312156130af576130ae6128b4565b5b600085013567ffffffffffffffff8111156130cd576130cc6128b9565b5b6130d987828801612b6e565b9450945050602085013567ffffffffffffffff8111156130fc576130fb6128b9565b5b61310887828801612b6e565b925092505092959194509250565b6000806040838503121561312d5761312c6128b4565b5b600061313b85828601612b0a565b925050602061314c85828601612b0a565b9150509250929050565b600081519050919050565b600082825260208201905092915050565b6000819050602082019050919050565b600082825260208201905092915050565b600061319e82612979565b6131a88185613182565b93506131b8818560208601612995565b6131c1816129c8565b840191505092915050565b60006131d88383613193565b905092915050565b6000602082019050919050565b60006131f882613156565b6132028185613161565b93508360208202850161321485613172565b8060005b85811015613250578484038952815161323185826131cc565b945061323c836131e0565b925060208a01995050600181019050613218565b50829750879550505050505092915050565b6000602082019050818103600083015261327c81846131ed565b905092915050565b7f4e487b7100000000000000000000000000000000000000000000000000000000600052602260045260246000fd5b600060028204905060018216806132cb57607f821691505b602082108114156132df576132de613284565b5b50919050565b7f4552433732313a20617070726f76616c20746f2063757272656e74206f776e6560008201527f7200000000000000000000000000000000000000000000000000000000000000602082015250565b6000613341602183612984565b915061334c826132e5565b604082019050919050565b6000602082019050818103600083015261337081613334565b9050919050565b7f4552433732313a20617070726f76652063616c6c6572206973206e6f7420746f60008201527f6b656e206f776e6572206f7220617070726f76656420666f7220616c6c000000602082015250565b60006133d3603d83612984565b91506133de82613377565b604082019050919050565b60006020820190508181036000830152613402816133c6565b9050919050565b600081905092915050565b60006134208385613409565b935061342d838584612d15565b82840190509392505050565b6000613446828486613414565b91508190509392505050565b7f4552433732313a2063616c6c6572206973206e6f7420746f6b656e206f776e6560008201527f72206f7220617070726f76656400000000000000000000000000000000000000602082015250565b60006134ae602d83612984565b91506134b982613452565b604082019050919050565b600060208201905081810360008301526134dd816134a1565b9050919050565b7f696e76616c696420646f6d61696e206e616d6520636865636b206c656e677468600082015250565b600061351a602083612984565b9150613525826134e4565b602082019050919050565b600060208201905081810360008301526135498161350d565b9050919050565b60008190508160005260206000209050919050565b60008154613572816132b3565b61357c8186613409565b9450600182166000811461359757600181146135a8576135db565b60ff198316865281860193506135db565b6135b185613550565b60005b838110156135d3578154818901526001820191506020810190506135b4565b838801955050505b50505092915050565b60006135ef82612979565b6135f98185613409565b9350613609818560208601612995565b80840191505092915050565b60006136218286613565565b915061362d82856135e4565b91506136398284613565565b9150819050949350505050565b7f7b226e616d65223a202200000000000000000000000000000000000000000000600082015250565b600061367c600a83613409565b915061368782613646565b600a82019050919050565b7f222c20226465736372697074696f6e223a20224120646f6d61696e206f6e207460008201527f6865204e696e6a61206e616d652073657276696365222c2022696d616765223a60208201527f2022646174613a696d6167652f7376672b786d6c3b6261736536342c00000000604082015250565b6000613714605c83613409565b915061371f82613692565b605c82019050919050565b7f222c226c656e677468223a220000000000000000000000000000000000000000600082015250565b6000613760600c83613409565b915061376b8261372a565b600c82019050919050565b7f227d000000000000000000000000000000000000000000000000000000000000600082015250565b60006137ac600283613409565b91506137b782613776565b600282019050919050565b60006137cd8261366f565b91506137d982866135e4565b91506137e482613707565b91506137f082856135e4565b91506137fb82613753565b915061380782846135e4565b91506138128261379f565b9150819050949350505050565b7f646174613a6170706c69636174696f6e2f6a736f6e3b6261736536342c000000600082015250565b6000613855601d83613409565b91506138608261381f565b601d82019050919050565b600061387682613848565b915061388282846135e4565b915081905092915050565b7f4552433732313a20696e76616c696420746f6b656e2049440000000000000000600082015250565b60006138c3601883612984565b91506138ce8261388d565b602082019050919050565b600060208201905081810360008301526138f2816138b6565b9050919050565b7f4552433732313a2061646472657373207a65726f206973206e6f74206120766160008201527f6c6964206f776e65720000000000000000000000000000000000000000000000602082015250565b6000613955602983612984565b9150613960826138f9565b604082019050919050565b6000602082019050818103600083015261398481613948565b9050919050565b600061399782856135e4565b91506139a382846135e4565b91508190509392505050565b7f4e487b7100000000000000000000000000000000000000000000000000000000600052603260045260246000fd5b7f4e487b7100000000000000000000000000000000000000000000000000000000600052601160045260246000fd5b6000613a1882612a34565b91507fffffffffffffffffffffffffffffffffffffffffffffffffffffffffffffffff821415613a4b57613a4a6139de565b5b600182019050919050565b7f4552433732313a207472616e736665722066726f6d20696e636f72726563742060008201527f6f776e6572000000000000000000000000000000000000000000000000000000602082015250565b6000613ab2602583612984565b9150613abd82613a56565b604082019050919050565b60006020820190508181036000830152613ae181613aa5565b9050919050565b7f4552433732313a207472616e7366657220746f20746865207a65726f2061646460008201527f7265737300000000000000000000000000000000000000000000000000000000602082015250565b6000613b44602483612984565b9150613b4f82613ae8565b604082019050919050565b60006020820190508181036000830152613b7381613b37565b9050919050565b6000613b8582612a34565b9150613b9083612a34565b9250827fffffffffffffffffffffffffffffffffffffffffffffffffffffffffffffffff03821115613bc557613bc46139de565b5b828201905092915050565b7f4e487b7100000000000000000000000000000000000000000000000000000000600052601260045260246000fd5b6000613c0a82612a34565b9150613c1583612a34565b925082613c2557613c24613bd0565b5b828204905092915050565b6000613c3b82612a34565b9150613c4683612a34565b9250817fffffffffffffffffffffffffffffffffffffffffffffffffffffffffffffffff0483118215151615613c7f57613c7e6139de565b5b828202905092915050565b7f45524337323155524953746f726167653a2055524920736574206f66206e6f6e60008201527f6578697374656e7420746f6b656e000000000000000000000000000000000000602082015250565b6000613ce6602e83612984565b9150613cf182613c8a565b604082019050919050565b60006020820190508181036000830152613d1581613cd9565b9050919050565b7f4552433732313a20617070726f766520746f2063616c6c657200000000000000600082015250565b6000613d52601983612984565b9150613d5d82613d1c565b602082019050919050565b60006020820190508181036000830152613d8181613d45565b9050919050565b7f4552433732313a207472616e7366657220746f206e6f6e20455243373231526560008201527f63656976657220696d706c656d656e7465720000000000000000000000000000602082015250565b6000613de4603283612984565b9150613def82613d88565b604082019050919050565b60006020820190508181036000830152613e1381613dd7565b9050919050565b600081519050919050565b600082825260208201905092915050565b6000613e4182613e1a565b613e4b8185613e25565b9350613e5b818560208601612995565b613e64816129c8565b840191505092915050565b6000608082019050613e846000830187612ac9565b613e916020830186612ac9565b613e9e6040830185612e9f565b8181036060830152613eb08184613e36565b905095945050505050565b600081519050613eca816128ea565b92915050565b600060208284031215613ee657613ee56128b4565b5b6000613ef484828501613ebb565b91505092915050565b7f4552433732313a206d696e7420746f20746865207a65726f2061646472657373600082015250565b6000613f33602083612984565b9150613f3e82613efd565b602082019050919050565b60006020820190508181036000830152613f6281613f26565b9050919050565b7f4552433732313a20746f6b656e20616c7265616479206d696e74656400000000600082015250565b6000613f9f601c83612984565b9150613faa82613f69565b602082019050919050565b60006020820190508181036000830152613fce81613f92565b905091905056fe4142434445464748494a4b4c4d4e4f505152535455565758595a6162636465666768696a6b6c6d6e6f707172737475767778797a303132333435363738392b2fa2646970667358221220ba5ec69f686309e8ad9c052b4095af3d56e46904abba5934270279594c043ecd64736f6c634300080a00333c73766720786d6c6e733d22687474703a2f2f7777772e77332e6f72672f323030302f737667222077696474683d2232373022206865696768743d22323730222066696c6c3d226e6f6e65223e3c706174682066696c6c3d2275726c282342292220643d224d302030683237307632373048307a222f3e3c646566733e3c66696c7465722069643d22412220636f6c6f722d696e746572706f6c6174696f6e2d66696c746572733d2273524742222066696c746572556e6974733d227573657253706163654f6e55736522206865696768743d22323730222077696474683d22323730223e3c666544726f70536861646f772064783d2230222064793d22312220737464446576696174696f6e3d22322220666c6f6f642d6f7061636974793d222e323235222077696474683d223230302522206865696768743d2232303025222f3e3c2f66696c7465723e3c2f646566733e3c7061746820643d224d37322e3836332034322e393439632d2e3636382d2e3338372d312e3432362d2e35392d322e3139372d2e3539732d312e3532392e3230342d322e3139372e35396c2d31302e30383120362e3033322d362e383520332e3933342d31302e30383120362e303332632d2e3636382e3338372d312e3432362e35392d322e3139372e3539732d312e3532392d2e3230342d322e3139372d2e35396c2d382e3031332d342e37323161342e353220342e35322030203020312d312e3538392d312e363136632d2e3338342d2e3636352d2e3539342d312e3431382d2e3630382d322e313837762d392e3331632d2e3031332d2e3737352e3138352d312e3533382e3537322d322e32303861342e323520342e323520302030203120312e3632352d312e3539356c372e3838342d342e3539632e3636382d2e33383720312e3432362d2e353920322e3139372d2e353973312e3532392e32303420322e3139372e35396c372e38383420342e353961342e353220342e353220302030203120312e35383920312e363136632e3338342e3636352e35393420312e3431382e36303820322e31383776362e3033326c362e38352d342e303635762d362e303332632e3031332d2e3737352d2e3138352d312e3533382d2e3537322d322e32303861342e323520342e32352030203020302d312e3632352d312e3539354c34312e3435362032342e3539632d2e3636382d2e3338372d312e3432362d2e35392d322e3139372d2e3539732d312e3532392e3230342d322e3139372e35396c2d31342e38363420382e36353561342e323520342e32352030203020302d312e36323520312e353935632d2e3338372e36372d2e35383520312e3433342d2e35373220322e3230387631372e343431632d2e3031332e3737352e31383520312e3533382e35373220322e32303861342e323520342e323520302030203020312e36323520312e3539356c31342e38363420382e363535632e3636382e33383720312e3432362e353920322e3139372e353973312e3532392d2e32303420322e3139372d2e35396c31302e3038312d352e39303120362e38352d342e3036352031302e3038312d352e393031632e3636382d2e33383720312e3432362d2e353920322e3139372d2e353973312e3532392e32303420322e3139372e35396c372e38383420342e353961342e353220342e353220302030203120312e35383920312e363136632e3338342e3636352e35393420312e3431382e36303820322e31383776392e333131632e3031332e3737352d2e31383520312e3533382d2e35373220322e32303861342e323520342e32352030203020312d312e36323520312e3539356c2d372e38383420342e373231632d2e3636382e3338372d312e3432362e35392d322e3139372e3539732d312e3532392d2e3230342d322e3139372d2e35396c2d372e3838342d342e353961342e353220342e35322030203020312d312e3538392d312e363136632d2e3338352d2e3636352d2e3539342d312e3431382d2e3630382d322e313837762d362e3033326c2d362e383520342e30363576362e303332632d2e3031332e3737352e31383520312e3533382e35373220322e32303861342e323520342e323520302030203020312e36323520312e3539356c31342e38363420382e363535632e3636382e33383720312e3432362e353920322e3139372e353973312e3532392d2e32303420322e3139372d2e35396c31342e3836342d382e363535632e3635372d2e33393420312e3230342d2e393520312e3538392d312e363136732e3539342d312e3431382e3630392d322e3138375635352e353338632e3031332d2e3737352d2e3138352d312e3533382d2e3537322d322e32303861342e323520342e32352030203020302d312e3632352d312e3539356c2d31342e3939332d382e3738367a222066696c6c3d2223666666222f3e3c646566733e3c6c696e6561724772616469656e742069643d2242222078313d2230222079313d2230222078323d22323730222079323d2232373022206772616469656e74556e6974733d227573657253706163654f6e557365223e3c73746f702073746f702d636f6c6f723d2223636235656565222f3e3c73746f70206f66667365743d2231222073746f702d636f6c6f723d2223306364376534222073746f702d6f7061636974793d222e3939222f3e3c2f6c696e6561724772616469656e743e3c2f646566733e3c7465787420783d2233322e352220793d223233312220666f6e742d73697a653d223237222066696c6c3d2223666666222066696c7465723d2275726c282341292220666f6e742d66616d696c793d22506c7573204a616b617274612053616e732c44656a6156752053616e732c4e6f746f20436f6c6f7220456d6f6a692c4170706c6520436f6c6f7220456d6f6a692c73616e732d73657269662220666f6e742d7765696768743d22626f6c64223e",
  "immutableReferences": {},
  "source": "//SPDX-License-Identifier: Unlicense\npragma solidity >=0.8.0;\n\nimport {StringUtils} from \"./../lib/StringUtils.sol\";\nimport {Base64} from \"./../lib/Base64.sol\";\nimport \"@openzeppelin/contracts/token/ERC721/extensions/ERC721URIStorage.sol\";\nimport \"@openzeppelin/contracts/utils/Counters.sol\";\n\n/**\n * DNS(DID Name Servivce) Contract\n */\ncontract DNS is ERC721URIStorage {\n    // tokenID\n    using Counters for Counters.Counter;\n    Counters.Counter private _tokenIds;\n    // Image data\n    string svgPartOne =\n        '<svg xmlns=\"http://www.w3.org/2000/svg\" width=\"270\" height=\"270\" fill=\"none\"><path fill=\"url(#B)\" d=\"M0 0h270v270H0z\"/><defs><filter id=\"A\" color-interpolation-filters=\"sRGB\" filterUnits=\"userSpaceOnUse\" height=\"270\" width=\"270\"><feDropShadow dx=\"0\" dy=\"1\" stdDeviation=\"2\" flood-opacity=\".225\" width=\"200%\" height=\"200%\"/></filter></defs><path d=\"M72.863 42.949c-.668-.387-1.426-.59-2.197-.59s-1.529.204-2.197.59l-10.081 6.032-6.85 3.934-10.081 6.032c-.668.387-1.426.59-2.197.59s-1.529-.204-2.197-.59l-8.013-4.721a4.52 4.52 0 0 1-1.589-1.616c-.384-.665-.594-1.418-.608-2.187v-9.31c-.013-.775.185-1.538.572-2.208a4.25 4.25 0 0 1 1.625-1.595l7.884-4.59c.668-.387 1.426-.59 2.197-.59s1.529.204 2.197.59l7.884 4.59a4.52 4.52 0 0 1 1.589 1.616c.384.665.594 1.418.608 2.187v6.032l6.85-4.065v-6.032c.013-.775-.185-1.538-.572-2.208a4.25 4.25 0 0 0-1.625-1.595L41.456 24.59c-.668-.387-1.426-.59-2.197-.59s-1.529.204-2.197.59l-14.864 8.655a4.25 4.25 0 0 0-1.625 1.595c-.387.67-.585 1.434-.572 2.208v17.441c-.013.775.185 1.538.572 2.208a4.25 4.25 0 0 0 1.625 1.595l14.864 8.655c.668.387 1.426.59 2.197.59s1.529-.204 2.197-.59l10.081-5.901 6.85-4.065 10.081-5.901c.668-.387 1.426-.59 2.197-.59s1.529.204 2.197.59l7.884 4.59a4.52 4.52 0 0 1 1.589 1.616c.384.665.594 1.418.608 2.187v9.311c.013.775-.185 1.538-.572 2.208a4.25 4.25 0 0 1-1.625 1.595l-7.884 4.721c-.668.387-1.426.59-2.197.59s-1.529-.204-2.197-.59l-7.884-4.59a4.52 4.52 0 0 1-1.589-1.616c-.385-.665-.594-1.418-.608-2.187v-6.032l-6.85 4.065v6.032c-.013.775.185 1.538.572 2.208a4.25 4.25 0 0 0 1.625 1.595l14.864 8.655c.668.387 1.426.59 2.197.59s1.529-.204 2.197-.59l14.864-8.655c.657-.394 1.204-.95 1.589-1.616s.594-1.418.609-2.187V55.538c.013-.775-.185-1.538-.572-2.208a4.25 4.25 0 0 0-1.625-1.595l-14.993-8.786z\" fill=\"#fff\"/><defs><linearGradient id=\"B\" x1=\"0\" y1=\"0\" x2=\"270\" y2=\"270\" gradientUnits=\"userSpaceOnUse\"><stop stop-color=\"#cb5eee\"/><stop offset=\"1\" stop-color=\"#0cd7e4\" stop-opacity=\".99\"/></linearGradient></defs><text x=\"32.5\" y=\"231\" font-size=\"27\" fill=\"#fff\" filter=\"url(#A)\" font-family=\"Plus Jakarta Sans,DejaVu Sans,Noto Color Emoji,Apple Color Emoji,sans-serif\" font-weight=\"bold\">';\n    string svgPartTwo = \"</text></svg>\";\n\n    // owner address\n    address payable public owner;\n\n    mapping(string => string) public domains;\n    mapping(string => string) public records;\n    mapping(uint => string) public names;\n\n    modifier onlyOwner() {\n        require(isOwner());\n        _;\n    }\n\n    /**\n     * constuctor\n     */\n    constructor() payable ERC721(\"DID Name Service\", \"DNS\") {\n        // owner address\n        owner = payable(msg.sender);\n    }\n\n    /**\n     * register\n     * @param name domain\n     * @param did did\n     * @param to address\n     */\n    function register(\n        string calldata name,\n        string calldata did,\n        address to\n    ) public payable {\n        require(!valid(name), \"invalid domain name check length\");\n\n        // name\n        string memory _name = string(abi.encodePacked(name));\n        // create image data\n        string memory finalSvg = string(\n            abi.encodePacked(svgPartOne, _name, svgPartTwo)\n        );\n        //get token ID\n        uint256 newRecordId = _tokenIds.current();\n        uint256 length = StringUtils.strlen(name);\n        string memory strLen = Strings.toString(length);\n\n        // encode\n        string memory json = Base64.encode(\n            abi.encodePacked(\n                '{\"name\": \"',\n                _name,\n                '\", \"description\": \"A domain on the Ninja name service\", \"image\": \"data:image/svg+xml;base64,',\n                Base64.encode(bytes(finalSvg)),\n                '\",\"length\":\"',\n                strLen,\n                '\"}'\n            )\n        );\n        // generate URI\n        string memory finalTokenUri = string(\n            abi.encodePacked(\"data:application/json;base64,\", json)\n        );\n\n        // mint NFT\n        _safeMint(to, newRecordId);\n        // token URO\n        _setTokenURI(newRecordId, finalTokenUri);\n\n        // register\n        domains[name] = did;\n        names[newRecordId] = name;\n        _tokenIds.increment();\n    }\n\n    /**\n     * get name\n     * @param name domain\n     */\n    function getAddress(\n        string calldata name\n    ) public view returns (string memory) {\n        return domains[name];\n    }\n\n    /**\n     * set record\n     * @param name domain\n     * @param record data\n     */\n    function setRecord(string calldata name, string calldata record) public {\n        // register\n        records[name] = record;\n    }\n\n    /**\n     * get record data\n     * @param name name\n     */\n    function getRecord(\n        string calldata name\n    ) public view returns (string memory) {\n        return records[name];\n    }\n\n    /**\n     * check owner\n     */\n    function isOwner() public view returns (bool) {\n        return msg.sender == owner;\n    }\n\n    /**\n     * gell all names\n     */\n    function getAllNames() public view returns (string[] memory) {\n        string[] memory allNames = new string[](_tokenIds.current());\n        for (uint i = 0; i < _tokenIds.current(); i++) {\n            allNames[i] = names[i];\n        }\n        // \n        return allNames;\n    }\n\n    /**\n     * check domain name\n     */\n    function valid(string calldata name) public pure returns (bool) {\n        return StringUtils.strlen(name) >= 3 && StringUtils.strlen(name) <= 10;\n    }\n}\n",
  "sourcePath": "/Users/harukikondo/git/Web3Wallet/packages/backend/contracts/DNS/DNS.sol",
  "compiler": {
    "name": "solc",
    "version": "0.8.10+commit.fc410830.Emscripten.clang"
  },
  "schemaVersion": "3.4.13",
  "updatedAt": "2023-04-01T07:55:25.487Z",
  "devdoc": {
    "kind": "dev",
    "methods": {
      "approve(address,uint256)": {
        "details": "See {IERC721-approve}."
      },
      "balanceOf(address)": {
        "details": "See {IERC721-balanceOf}."
      },
      "getAddress(string)": {
        "params": {
          "name": "domain"
        }
      },
      "getApproved(uint256)": {
        "details": "See {IERC721-getApproved}."
      },
      "getRecord(string)": {
        "params": {
          "name": "name"
        }
      },
      "isApprovedForAll(address,address)": {
        "details": "See {IERC721-isApprovedForAll}."
      },
      "name()": {
        "details": "See {IERC721Metadata-name}."
      },
      "ownerOf(uint256)": {
        "details": "See {IERC721-ownerOf}."
      },
      "register(string,string,address)": {
        "params": {
          "did": "did",
          "name": "domain",
          "to": "address"
        }
      },
      "safeTransferFrom(address,address,uint256)": {
        "details": "See {IERC721-safeTransferFrom}."
      },
      "safeTransferFrom(address,address,uint256,bytes)": {
        "details": "See {IERC721-safeTransferFrom}."
      },
      "setApprovalForAll(address,bool)": {
        "details": "See {IERC721-setApprovalForAll}."
      },
      "setRecord(string,string)": {
        "params": {
          "name": "domain",
          "record": "data"
        }
      },
      "supportsInterface(bytes4)": {
        "details": "See {IERC165-supportsInterface}."
      },
      "symbol()": {
        "details": "See {IERC721Metadata-symbol}."
      },
      "tokenURI(uint256)": {
        "details": "See {IERC721Metadata-tokenURI}."
      },
      "transferFrom(address,address,uint256)": {
        "details": "See {IERC721-transferFrom}."
      }
    },
    "version": 1
  },
  "userdoc": {
    "kind": "user",
    "methods": {
      "constructor": {
        "notice": "constuctor"
      },
      "getAddress(string)": {
        "notice": "get name"
      },
      "getAllNames()": {
        "notice": "gell all names"
      },
      "getRecord(string)": {
        "notice": "get record data"
      },
      "isOwner()": {
        "notice": "check owner"
      },
      "register(string,string,address)": {
        "notice": "register"
      },
      "setRecord(string,string)": {
        "notice": "set record"
      },
      "valid(string)": {
        "notice": "check domain name"
      }
    },
    "notice": "DNS(DID Name Servivce) Contract",
    "version": 1
  }
}