{
  "contractName": "DNS",
  "abi": [
    {
      "inputs": [
        {
          "internalType": "string",
          "name": "_tld",
          "type": "string"
        }
      ],
      "stateMutability": "payable",
      "type": "constructor"
    },
    {
      "anonymous": false,
      "inputs": [
        {
          "indexed": true,
          "internalType": "address",
          "name": "owner",
          "type": "address"
        },
        {
          "indexed": true,
          "internalType": "address",
          "name": "approved",
          "type": "address"
        },
        {
          "indexed": true,
          "internalType": "uint256",
          "name": "tokenId",
          "type": "uint256"
        }
      ],
      "name": "Approval",
      "type": "event"
    },
    {
      "anonymous": false,
      "inputs": [
        {
          "indexed": true,
          "internalType": "address",
          "name": "owner",
          "type": "address"
        },
        {
          "indexed": true,
          "internalType": "address",
          "name": "operator",
          "type": "address"
        },
        {
          "indexed": false,
          "internalType": "bool",
          "name": "approved",
          "type": "bool"
        }
      ],
      "name": "ApprovalForAll",
      "type": "event"
    },
    {
      "anonymous": false,
      "inputs": [
        {
          "indexed": true,
          "internalType": "address",
          "name": "from",
          "type": "address"
        },
        {
          "indexed": true,
          "internalType": "address",
          "name": "to",
          "type": "address"
        },
        {
          "indexed": true,
          "internalType": "uint256",
          "name": "tokenId",
          "type": "uint256"
        }
      ],
      "name": "Transfer",
      "type": "event"
    },
    {
      "inputs": [
        {
          "internalType": "address",
          "name": "to",
          "type": "address"
        },
        {
          "internalType": "uint256",
          "name": "tokenId",
          "type": "uint256"
        }
      ],
      "name": "approve",
      "outputs": [],
      "stateMutability": "nonpayable",
      "type": "function"
    },
    {
      "inputs": [
        {
          "internalType": "address",
          "name": "owner",
          "type": "address"
        }
      ],
      "name": "balanceOf",
      "outputs": [
        {
          "internalType": "uint256",
          "name": "",
          "type": "uint256"
        }
      ],
      "stateMutability": "view",
      "type": "function"
    },
    {
      "inputs": [
        {
          "internalType": "string",
          "name": "",
          "type": "string"
        }
      ],
      "name": "domains",
      "outputs": [
        {
          "internalType": "string",
          "name": "",
          "type": "string"
        }
      ],
      "stateMutability": "view",
      "type": "function"
    },
    {
      "inputs": [
        {
          "internalType": "uint256",
          "name": "tokenId",
          "type": "uint256"
        }
      ],
      "name": "getApproved",
      "outputs": [
        {
          "internalType": "address",
          "name": "",
          "type": "address"
        }
      ],
      "stateMutability": "view",
      "type": "function"
    },
    {
      "inputs": [
        {
          "internalType": "address",
          "name": "owner",
          "type": "address"
        },
        {
          "internalType": "address",
          "name": "operator",
          "type": "address"
        }
      ],
      "name": "isApprovedForAll",
      "outputs": [
        {
          "internalType": "bool",
          "name": "",
          "type": "bool"
        }
      ],
      "stateMutability": "view",
      "type": "function"
    },
    {
      "inputs": [],
      "name": "name",
      "outputs": [
        {
          "internalType": "string",
          "name": "",
          "type": "string"
        }
      ],
      "stateMutability": "view",
      "type": "function"
    },
    {
      "inputs": [
        {
          "internalType": "uint256",
          "name": "",
          "type": "uint256"
        }
      ],
      "name": "names",
      "outputs": [
        {
          "internalType": "string",
          "name": "",
          "type": "string"
        }
      ],
      "stateMutability": "view",
      "type": "function"
    },
    {
      "inputs": [],
      "name": "owner",
      "outputs": [
        {
          "internalType": "address payable",
          "name": "",
          "type": "address"
        }
      ],
      "stateMutability": "view",
      "type": "function"
    },
    {
      "inputs": [
        {
          "internalType": "uint256",
          "name": "tokenId",
          "type": "uint256"
        }
      ],
      "name": "ownerOf",
      "outputs": [
        {
          "internalType": "address",
          "name": "",
          "type": "address"
        }
      ],
      "stateMutability": "view",
      "type": "function"
    },
    {
      "inputs": [
        {
          "internalType": "string",
          "name": "",
          "type": "string"
        }
      ],
      "name": "records",
      "outputs": [
        {
          "internalType": "string",
          "name": "",
          "type": "string"
        }
      ],
      "stateMutability": "view",
      "type": "function"
    },
    {
      "inputs": [
        {
          "internalType": "address",
          "name": "from",
          "type": "address"
        },
        {
          "internalType": "address",
          "name": "to",
          "type": "address"
        },
        {
          "internalType": "uint256",
          "name": "tokenId",
          "type": "uint256"
        }
      ],
      "name": "safeTransferFrom",
      "outputs": [],
      "stateMutability": "nonpayable",
      "type": "function"
    },
    {
      "inputs": [
        {
          "internalType": "address",
          "name": "from",
          "type": "address"
        },
        {
          "internalType": "address",
          "name": "to",
          "type": "address"
        },
        {
          "internalType": "uint256",
          "name": "tokenId",
          "type": "uint256"
        },
        {
          "internalType": "bytes",
          "name": "data",
          "type": "bytes"
        }
      ],
      "name": "safeTransferFrom",
      "outputs": [],
      "stateMutability": "nonpayable",
      "type": "function"
    },
    {
      "inputs": [
        {
          "internalType": "address",
          "name": "operator",
          "type": "address"
        },
        {
          "internalType": "bool",
          "name": "approved",
          "type": "bool"
        }
      ],
      "name": "setApprovalForAll",
      "outputs": [],
      "stateMutability": "nonpayable",
      "type": "function"
    },
    {
      "inputs": [
        {
          "internalType": "bytes4",
          "name": "interfaceId",
          "type": "bytes4"
        }
      ],
      "name": "supportsInterface",
      "outputs": [
        {
          "internalType": "bool",
          "name": "",
          "type": "bool"
        }
      ],
      "stateMutability": "view",
      "type": "function"
    },
    {
      "inputs": [],
      "name": "symbol",
      "outputs": [
        {
          "internalType": "string",
          "name": "",
          "type": "string"
        }
      ],
      "stateMutability": "view",
      "type": "function"
    },
    {
      "inputs": [],
      "name": "tld",
      "outputs": [
        {
          "internalType": "string",
          "name": "",
          "type": "string"
        }
      ],
      "stateMutability": "view",
      "type": "function"
    },
    {
      "inputs": [
        {
          "internalType": "uint256",
          "name": "tokenId",
          "type": "uint256"
        }
      ],
      "name": "tokenURI",
      "outputs": [
        {
          "internalType": "string",
          "name": "",
          "type": "string"
        }
      ],
      "stateMutability": "view",
      "type": "function"
    },
    {
      "inputs": [
        {
          "internalType": "address",
          "name": "from",
          "type": "address"
        },
        {
          "internalType": "address",
          "name": "to",
          "type": "address"
        },
        {
          "internalType": "uint256",
          "name": "tokenId",
          "type": "uint256"
        }
      ],
      "name": "transferFrom",
      "outputs": [],
      "stateMutability": "nonpayable",
      "type": "function"
    },
    {
      "inputs": [
        {
          "internalType": "string",
          "name": "name",
          "type": "string"
        },
        {
          "internalType": "string",
          "name": "did",
          "type": "string"
        },
        {
          "internalType": "address",
          "name": "to",
          "type": "address"
        }
      ],
      "name": "register",
      "outputs": [],
      "stateMutability": "payable",
      "type": "function"
    },
    {
      "inputs": [
        {
          "internalType": "string",
          "name": "name",
          "type": "string"
        }
      ],
      "name": "getAddress",
      "outputs": [
        {
          "internalType": "string",
          "name": "",
          "type": "string"
        }
      ],
      "stateMutability": "view",
      "type": "function"
    },
    {
      "inputs": [
        {
          "internalType": "string",
          "name": "name",
          "type": "string"
        },
        {
          "internalType": "string",
          "name": "record",
          "type": "string"
        }
      ],
      "name": "setRecord",
      "outputs": [],
      "stateMutability": "nonpayable",
      "type": "function"
    },
    {
      "inputs": [
        {
          "internalType": "string",
          "name": "name",
          "type": "string"
        }
      ],
      "name": "getRecord",
      "outputs": [
        {
          "internalType": "string",
          "name": "",
          "type": "string"
        }
      ],
      "stateMutability": "view",
      "type": "function"
    },
    {
      "inputs": [],
      "name": "isOwner",
      "outputs": [
        {
          "internalType": "bool",
          "name": "",
          "type": "bool"
        }
      ],
      "stateMutability": "view",
      "type": "function"
    },
    {
      "inputs": [],
      "name": "getAllNames",
      "outputs": [
        {
          "internalType": "string[]",
          "name": "",
          "type": "string[]"
        }
      ],
      "stateMutability": "view",
      "type": "function"
    },
    {
      "inputs": [
        {
          "internalType": "string",
          "name": "name",
          "type": "string"
        }
      ],
      "name": "valid",
      "outputs": [
        {
          "internalType": "bool",
          "name": "",
          "type": "bool"
        }
      ],
      "stateMutability": "pure",
      "type": "function"
    }
  ],
  "bytecode": "0x6080604052604051806108a0016040528061086b81526020016200462361086b91396008908051906020019062000038929190620001ad565b506040518060400160405280600d81526020017f3c2f746578743e3c2f7376673e000000000000000000000000000000000000008152506009908051906020019062000086929190620001ad565b5060405162004e8e38038062004e8e8339818101604052810190620000ac9190620002cf565b6040518060400160405280601081526020017f444944204e616d652053657276696365000000000000000000000000000000008152506040518060400160405280600381526020017f444e530000000000000000000000000000000000000000000000000000000000815250816000908051906020019062000130929190620001ad565b50806001908051906020019062000149929190620001ad565b50505033600b60006101000a81548173ffffffffffffffffffffffffffffffffffffffff021916908373ffffffffffffffffffffffffffffffffffffffff16021790555080600a9080519060200190620001a5929190620001ad565b505062000445565b828054620001bb90620003b1565b90600052602060002090601f016020900481019282620001df57600085556200022b565b82601f10620001fa57805160ff19168380011785556200022b565b828001600101855582156200022b579182015b828111156200022a5782518255916020019190600101906200020d565b5b5090506200023a91906200023e565b5090565b5b80821115620002595760008160009055506001016200023f565b5090565b6000620002746200026e8462000348565b62000314565b9050828152602081018484840111156200028d57600080fd5b6200029a8482856200037b565b509392505050565b600082601f830112620002b457600080fd5b8151620002c68482602086016200025d565b91505092915050565b600060208284031215620002e257600080fd5b600082015167ffffffffffffffff811115620002fd57600080fd5b6200030b84828501620002a2565b91505092915050565b6000604051905081810181811067ffffffffffffffff821117156200033e576200033d62000416565b5b8060405250919050565b600067ffffffffffffffff82111562000366576200036562000416565b5b601f19601f8301169050602081019050919050565b60005b838110156200039b5780820151818401526020810190506200037e565b83811115620003ab576000848401525b50505050565b60006002820490506001821680620003ca57607f821691505b60208210811415620003e157620003e0620003e7565b5b50919050565b7f4e487b7100000000000000000000000000000000000000000000000000000000600052602260045260246000fd5b7f4e487b7100000000000000000000000000000000000000000000000000000000600052604160045260246000fd5b6141ce80620004556000396000f3fe6080604052600436106101665760003560e01c80636352211e116100d1578063a22cb4651161008a578063c1880a9811610064578063c1880a981461058d578063c87b56dd146105b6578063e985e9c5146105f3578063fb825e5f1461063057610166565b8063a22cb465146104fe578063b88d4fde14610527578063bf40fac11461055057610166565b80636352211e146103c657806370a08231146104035780638da5cb5b146104405780638f32d59b1461046b57806395d89b41146104965780639791c097146104c157610166565b80632644923511610123578063264492351461029f5780632d551432146102dc57806342842e0e146103075780634622ab0314610330578063541e771d1461036d5780635664d69c146103aa57610166565b806301ffc9a71461016b57806306fdde03146101a8578063081812fc146101d3578063095ea7b31461021057806311dd88451461023957806323b872dd14610276575b600080fd5b34801561017757600080fd5b50610192600480360381019061018d9190612e9e565b61065b565b60405161019f9190613ae0565b60405180910390f35b3480156101b457600080fd5b506101bd61073d565b6040516101ca9190613afb565b60405180910390f35b3480156101df57600080fd5b506101fa60048036038101906101f59190613074565b6107cf565b6040516102079190613a3c565b60405180910390f35b34801561021c57600080fd5b5061023760048036038101906102329190612e62565b610815565b005b34801561024557600080fd5b50610260600480360381019061025b9190612ef0565b61092d565b60405161026d9190613afb565b60405180910390f35b34801561028257600080fd5b5061029d60048036038101906102989190612d5c565b6109e0565b005b3480156102ab57600080fd5b506102c660048036038101906102c19190613033565b610a40565b6040516102d39190613afb565b60405180910390f35b3480156102e857600080fd5b506102f1610af6565b6040516102fe9190613afb565b60405180910390f35b34801561031357600080fd5b5061032e60048036038101906103299190612d5c565b610b84565b005b34801561033c57600080fd5b5061035760048036038101906103529190613074565b610ba4565b6040516103649190613afb565b60405180910390f35b34801561037957600080fd5b50610394600480360381019061038f9190613033565b610c44565b6040516103a19190613afb565b60405180910390f35b6103c460048036038101906103bf9190612faa565b610cfa565b005b3480156103d257600080fd5b506103ed60048036038101906103e89190613074565b610ede565b6040516103fa9190613a3c565b60405180910390f35b34801561040f57600080fd5b5061042a60048036038101906104259190612cf7565b610f65565b6040516104379190613cbd565b60405180910390f35b34801561044c57600080fd5b5061045561101d565b6040516104629190613a57565b60405180910390f35b34801561047757600080fd5b50610480611043565b60405161048d9190613ae0565b60405180910390f35b3480156104a257600080fd5b506104ab61109b565b6040516104b89190613afb565b60405180910390f35b3480156104cd57600080fd5b506104e860048036038101906104e39190612ef0565b61112d565b6040516104f59190613ae0565b60405180910390f35b34801561050a57600080fd5b5061052560048036038101906105209190612e26565b6111e1565b005b34801561053357600080fd5b5061054e60048036038101906105499190612dab565b6111f7565b005b34801561055c57600080fd5b5061057760048036038101906105729190612ef0565b611259565b6040516105849190613afb565b60405180910390f35b34801561059957600080fd5b506105b460048036038101906105af9190612f35565b61130c565b005b3480156105c257600080fd5b506105dd60048036038101906105d89190613074565b611342565b6040516105ea9190613afb565b60405180910390f35b3480156105ff57600080fd5b5061061a60048036038101906106159190612d20565b611455565b6040516106279190613ae0565b60405180910390f35b34801561063c57600080fd5b506106456114e9565b6040516106529190613abe565b60405180910390f35b60007f80ac58cd000000000000000000000000000000000000000000000000000000007bffffffffffffffffffffffffffffffffffffffffffffffffffffffff1916827bffffffffffffffffffffffffffffffffffffffffffffffffffffffff1916148061072657507f5b5e139f000000000000000000000000000000000000000000000000000000007bffffffffffffffffffffffffffffffffffffffffffffffffffffffff1916827bffffffffffffffffffffffffffffffffffffffffffffffffffffffff1916145b8061073657506107358261167b565b5b9050919050565b60606000805461074c90613fb4565b80601f016020809104026020016040519081016040528092919081815260200182805461077890613fb4565b80156107c55780601f1061079a576101008083540402835291602001916107c5565b820191906000526020600020905b8154815290600101906020018083116107a857829003601f168201915b5050505050905090565b60006107da826116e5565b6004600083815260200190815260200160002060009054906101000a900473ffffffffffffffffffffffffffffffffffffffff169050919050565b600061082082610ede565b90508073ffffffffffffffffffffffffffffffffffffffff168373ffffffffffffffffffffffffffffffffffffffff161415610891576040517f08c379a000000000000000000000000000000000000000000000000000000000815260040161088890613c7d565b60405180910390fd5b8073ffffffffffffffffffffffffffffffffffffffff166108b0611730565b73ffffffffffffffffffffffffffffffffffffffff1614806108df57506108de816108d9611730565b611455565b5b61091e576040517f08c379a000000000000000000000000000000000000000000000000000000000815260040161091590613c9d565b60405180910390fd5b6109288383611738565b505050565b6060600d838360405161094192919061391e565b9081526020016040518091039020805461095a90613fb4565b80601f016020809104026020016040519081016040528092919081815260200182805461098690613fb4565b80156109d35780601f106109a8576101008083540402835291602001916109d3565b820191906000526020600020905b8154815290600101906020018083116109b657829003601f168201915b5050505050905092915050565b6109f16109eb611730565b826117f1565b610a30576040517f08c379a0000000000000000000000000000000000000000000000000000000008152600401610a2790613b1d565b60405180910390fd5b610a3b838383611886565b505050565b600c818051602081018201805184825260208301602085012081835280955050505050506000915090508054610a7590613fb4565b80601f0160208091040260200160405190810160405280929190818152602001828054610aa190613fb4565b8015610aee5780601f10610ac357610100808354040283529160200191610aee565b820191906000526020600020905b815481529060010190602001808311610ad157829003601f168201915b505050505081565b600a8054610b0390613fb4565b80601f0160208091040260200160405190810160405280929190818152602001828054610b2f90613fb4565b8015610b7c5780601f10610b5157610100808354040283529160200191610b7c565b820191906000526020600020905b815481529060010190602001808311610b5f57829003601f168201915b505050505081565b610b9f838383604051806020016040528060008152506111f7565b505050565b600e6020528060005260406000206000915090508054610bc390613fb4565b80601f0160208091040260200160405190810160405280929190818152602001828054610bef90613fb4565b8015610c3c5780601f10610c1157610100808354040283529160200191610c3c565b820191906000526020600020905b815481529060010190602001808311610c1f57829003601f168201915b505050505081565b600d818051602081018201805184825260208301602085012081835280955050505050506000915090508054610c7990613fb4565b80601f0160208091040260200160405190810160405280929190818152602001828054610ca590613fb4565b8015610cf25780601f10610cc757610100808354040283529160200191610cf2565b820191906000526020600020905b815481529060010190602001808311610cd557829003601f168201915b505050505081565b610d04858561112d565b15610d44576040517f08c379a0000000000000000000000000000000000000000000000000000000008152600401610d3b90613bdd565b60405180910390fd5b60008585600a604051602001610d5c93929190613937565b604051602081830303815290604052905060006008826009604051602001610d869392919061398c565b60405160208183030381529060405290506000610da36007611b80565b90506000610df489898080601f016020809104026020016040519081016040528093929190818152602001838380828437600081840152601f19601f82011690508083019250505050505050611b8e565b90506000610e0182611d69565b90506000610e3986610e1287611e8d565b84604051602001610e25939291906139bd565b604051602081830303815290604052611e8d565b9050600081604051602001610e4e9190613a1a565b6040516020818303038152906040529050610e69888661204b565b610e738582612069565b8989600c8e8e604051610e8792919061391e565b90815260200160405180910390209190610ea2929190612a4b565b508b8b600e60008881526020019081526020016000209190610ec5929190612a4b565b50610ed060076120dd565b505050505050505050505050565b600080610eea836120f3565b9050600073ffffffffffffffffffffffffffffffffffffffff168173ffffffffffffffffffffffffffffffffffffffff161415610f5c576040517f08c379a0000000000000000000000000000000000000000000000000000000008152600401610f5390613c5d565b60405180910390fd5b80915050919050565b60008073ffffffffffffffffffffffffffffffffffffffff168273ffffffffffffffffffffffffffffffffffffffff161415610fd6576040517f08c379a0000000000000000000000000000000000000000000000000000000008152600401610fcd90613bfd565b60405180910390fd5b600360008373ffffffffffffffffffffffffffffffffffffffff1673ffffffffffffffffffffffffffffffffffffffff168152602001908152602001600020549050919050565b600b60009054906101000a900473ffffffffffffffffffffffffffffffffffffffff1681565b6000600b60009054906101000a900473ffffffffffffffffffffffffffffffffffffffff1673ffffffffffffffffffffffffffffffffffffffff163373ffffffffffffffffffffffffffffffffffffffff1614905090565b6060600180546110aa90613fb4565b80601f01602080910402602001604051908101604052809291908181526020018280546110d690613fb4565b80156111235780601f106110f857610100808354040283529160200191611123565b820191906000526020600020905b81548152906001019060200180831161110657829003601f168201915b5050505050905090565b6000600361117e84848080601f016020809104026020016040519081016040528093929190818152602001838380828437600081840152601f19601f82011690508083019250505050505050611b8e565b101580156111d95750600a6111d684848080601f016020809104026020016040519081016040528093929190818152602001838380828437600081840152601f19601f82011690508083019250505050505050611b8e565b11155b905092915050565b6111f36111ec611730565b8383612130565b5050565b611208611202611730565b836117f1565b611247576040517f08c379a000000000000000000000000000000000000000000000000000000000815260040161123e90613b1d565b60405180910390fd5b6112538484848461229d565b50505050565b6060600c838360405161126d92919061391e565b9081526020016040518091039020805461128690613fb4565b80601f01602080910402602001604051908101604052809291908181526020018280546112b290613fb4565b80156112ff5780601f106112d4576101008083540402835291602001916112ff565b820191906000526020600020905b8154815290600101906020018083116112e257829003601f168201915b5050505050905092915050565b8181600d868660405161132092919061391e565b9081526020016040518091039020919061133b929190612a4b565b5050505050565b606061134d826116e5565b600060066000848152602001908152602001600020805461136d90613fb4565b80601f016020809104026020016040519081016040528092919081815260200182805461139990613fb4565b80156113e65780601f106113bb576101008083540402835291602001916113e6565b820191906000526020600020905b8154815290600101906020018083116113c957829003601f168201915b5050505050905060006113f76122f9565b905060008151141561140d578192505050611450565b60008251111561144257808260405160200161142a929190613968565b60405160208183030381529060405292505050611450565b61144b84612310565b925050505b919050565b6000600560008473ffffffffffffffffffffffffffffffffffffffff1673ffffffffffffffffffffffffffffffffffffffff16815260200190815260200160002060008373ffffffffffffffffffffffffffffffffffffffff1673ffffffffffffffffffffffffffffffffffffffff16815260200190815260200160002060009054906101000a900460ff16905092915050565b606060006114f76007611b80565b67ffffffffffffffff811115611536577f4e487b7100000000000000000000000000000000000000000000000000000000600052604160045260246000fd5b60405190808252806020026020018201604052801561156957816020015b60608152602001906001900390816115545790505b50905060005b6115796007611b80565b81101561167357600e6000828152602001908152602001600020805461159e90613fb4565b80601f01602080910402602001604051908101604052809291908181526020018280546115ca90613fb4565b80156116175780601f106115ec57610100808354040283529160200191611617565b820191906000526020600020905b8154815290600101906020018083116115fa57829003601f168201915b5050505050828281518110611655577f4e487b7100000000000000000000000000000000000000000000000000000000600052603260045260246000fd5b6020026020010181905250808061166b90613fe6565b91505061156f565b508091505090565b60007f01ffc9a7000000000000000000000000000000000000000000000000000000007bffffffffffffffffffffffffffffffffffffffffffffffffffffffff1916827bffffffffffffffffffffffffffffffffffffffffffffffffffffffff1916149050919050565b6116ee81612378565b61172d576040517f08c379a000000000000000000000000000000000000000000000000000000000815260040161172490613c5d565b60405180910390fd5b50565b600033905090565b816004600083815260200190815260200160002060006101000a81548173ffffffffffffffffffffffffffffffffffffffff021916908373ffffffffffffffffffffffffffffffffffffffff160217905550808273ffffffffffffffffffffffffffffffffffffffff166117ab83610ede565b73ffffffffffffffffffffffffffffffffffffffff167f8c5be1e5ebec7d5bd14f71427d1e84f3dd0314c0f7b2291e5b200ac8c7c3b92560405160405180910390a45050565b6000806117fd83610ede565b90508073ffffffffffffffffffffffffffffffffffffffff168473ffffffffffffffffffffffffffffffffffffffff16148061183f575061183e8185611455565b5b8061187d57508373ffffffffffffffffffffffffffffffffffffffff16611865846107cf565b73ffffffffffffffffffffffffffffffffffffffff16145b91505092915050565b8273ffffffffffffffffffffffffffffffffffffffff166118a682610ede565b73ffffffffffffffffffffffffffffffffffffffff16146118fc576040517f08c379a00000000000000000000000000000000000000000000000000000000081526004016118f390613b5d565b60405180910390fd5b600073ffffffffffffffffffffffffffffffffffffffff168273ffffffffffffffffffffffffffffffffffffffff16141561196c576040517f08c379a000000000000000000000000000000000000000000000000000000000815260040161196390613b9d565b60405180910390fd5b61197983838360016123b9565b8273ffffffffffffffffffffffffffffffffffffffff1661199982610ede565b73ffffffffffffffffffffffffffffffffffffffff16146119ef576040517f08c379a00000000000000000000000000000000000000000000000000000000081526004016119e690613b5d565b60405180910390fd5b6004600082815260200190815260200160002060006101000a81549073ffffffffffffffffffffffffffffffffffffffff02191690556001600360008573ffffffffffffffffffffffffffffffffffffffff1673ffffffffffffffffffffffffffffffffffffffff168152602001908152602001600020600082825403925050819055506001600360008473ffffffffffffffffffffffffffffffffffffffff1673ffffffffffffffffffffffffffffffffffffffff16815260200190815260200160002060008282540192505081905550816002600083815260200190815260200160002060006101000a81548173ffffffffffffffffffffffffffffffffffffffff021916908373ffffffffffffffffffffffffffffffffffffffff160217905550808273ffffffffffffffffffffffffffffffffffffffff168473ffffffffffffffffffffffffffffffffffffffff167fddf252ad1be2c89b69c2b068fc378daa952ba7f163c4a11628f55a4df523b3ef60405160405180910390a4611b7b83838360016123bf565b505050565b600081600001549050919050565b60008060008084519050600092505b80821015611d5e576000858381518110611be0577f4e487b7100000000000000000000000000000000000000000000000000000000600052603260045260246000fd5b602001015160f81c60f81b9050608060f81b817effffffffffffffffffffffffffffffffffffffffffffffffffffffffffffff19161015611c2f57600183611c289190613e0b565b9250611d4a565b60e060f81b817effffffffffffffffffffffffffffffffffffffffffffffffffffffffffffff19161015611c7157600283611c6a9190613e0b565b9250611d49565b60f060f81b817effffffffffffffffffffffffffffffffffffffffffffffffffffffffffffff19161015611cb357600383611cac9190613e0b565b9250611d48565b60f8801b817effffffffffffffffffffffffffffffffffffffffffffffffffffffffffffff19161015611cf457600483611ced9190613e0b565b9250611d47565b60fc60f81b817effffffffffffffffffffffffffffffffffffffffffffffffffffffffffffff19161015611d3657600583611d2f9190613e0b565b9250611d46565b600683611d439190613e0b565b92505b5b5b5b5b508280611d5690613fe6565b935050611b9d565b829350505050919050565b606060006001611d78846123c5565b01905060008167ffffffffffffffff811115611dbd577f4e487b7100000000000000000000000000000000000000000000000000000000600052604160045260246000fd5b6040519080825280601f01601f191660200182016040528015611def5781602001600182028036833780820191505090505b509050600082602001820190505b600115611e82578080600190039150507f3031323334353637383961626364656600000000000000000000000000000000600a86061a8153600a8581611e6c577f4e487b7100000000000000000000000000000000000000000000000000000000600052601260045260246000fd5b0494506000851415611e7d57611e82565b611dfd565b819350505050919050565b60606000825190506000811415611eb65760405180602001604052806000815250915050612046565b60006003600283611ec79190613e0b565b611ed19190613e61565b6004611edd9190613e92565b90506000602082611eee9190613e0b565b67ffffffffffffffff811115611f2d577f4e487b7100000000000000000000000000000000000000000000000000000000600052604160045260246000fd5b6040519080825280601f01601f191660200182016040528015611f5f5781602001600182028036833780820191505090505b5090506000604051806060016040528060408152602001614159604091399050600181016020830160005b868110156120035760038101905062ffffff818a015116603f8160121c168401518060081b905060ff603f83600c1c1686015116810190508060081b905060ff603f8360061c1686015116810190508060081b905060ff603f831686015116810190508060e01b90508084526004840193505050611f8a565b50600386066001811461201d576002811461202d57612038565b613d3d60f01b6002830352612038565b603d60f81b60018303525b508484525050819450505050505b919050565b6120658282604051806020016040528060008152506125fc565b5050565b61207282612378565b6120b1576040517f08c379a00000000000000000000000000000000000000000000000000000000081526004016120a890613c1d565b60405180910390fd5b806006600084815260200190815260200160002090805190602001906120d8929190612ad1565b505050565b6001816000016000828254019250508190555050565b60006002600083815260200190815260200160002060009054906101000a900473ffffffffffffffffffffffffffffffffffffffff169050919050565b8173ffffffffffffffffffffffffffffffffffffffff168373ffffffffffffffffffffffffffffffffffffffff16141561219f576040517f08c379a000000000000000000000000000000000000000000000000000000000815260040161219690613bbd565b60405180910390fd5b80600560008573ffffffffffffffffffffffffffffffffffffffff1673ffffffffffffffffffffffffffffffffffffffff16815260200190815260200160002060008473ffffffffffffffffffffffffffffffffffffffff1673ffffffffffffffffffffffffffffffffffffffff16815260200190815260200160002060006101000a81548160ff0219169083151502179055508173ffffffffffffffffffffffffffffffffffffffff168373ffffffffffffffffffffffffffffffffffffffff167f17307eab39ab6107e8899845ad3d59bd9653f200f220920489ca2b5937696c31836040516122909190613ae0565b60405180910390a3505050565b6122a8848484611886565b6122b484848484612657565b6122f3576040517f08c379a00000000000000000000000000000000000000000000000000000000081526004016122ea90613b3d565b60405180910390fd5b50505050565b606060405180602001604052806000815250905090565b606061231b826116e5565b60006123256122f9565b905060008151116123455760405180602001604052806000815250612370565b8061234f84611d69565b604051602001612360929190613968565b6040516020818303038152906040525b915050919050565b60008073ffffffffffffffffffffffffffffffffffffffff1661239a836120f3565b73ffffffffffffffffffffffffffffffffffffffff1614159050919050565b50505050565b50505050565b600080600090507a184f03e93ff9f4daa797ed6e38ed64bf6a1f0100000000000000008310612449577a184f03e93ff9f4daa797ed6e38ed64bf6a1f010000000000000000838161243f577f4e487b7100000000000000000000000000000000000000000000000000000000600052601260045260246000fd5b0492506040810190505b6d04ee2d6d415b85acef810000000083106124ac576d04ee2d6d415b85acef810000000083816124a2577f4e487b7100000000000000000000000000000000000000000000000000000000600052601260045260246000fd5b0492506020810190505b662386f26fc10000831061250157662386f26fc1000083816124f7577f4e487b7100000000000000000000000000000000000000000000000000000000600052601260045260246000fd5b0492506010810190505b6305f5e1008310612550576305f5e1008381612546577f4e487b7100000000000000000000000000000000000000000000000000000000600052601260045260246000fd5b0492506008810190505b612710831061259b576127108381612591577f4e487b7100000000000000000000000000000000000000000000000000000000600052601260045260246000fd5b0492506004810190505b606483106125e457606483816125da577f4e487b7100000000000000000000000000000000000000000000000000000000600052601260045260246000fd5b0492506002810190505b600a83106125f3576001810190505b80915050919050565b61260683836127ee565b6126136000848484612657565b612652576040517f08c379a000000000000000000000000000000000000000000000000000000000815260040161264990613b3d565b60405180910390fd5b505050565b60006126788473ffffffffffffffffffffffffffffffffffffffff16612a0c565b156127e1578373ffffffffffffffffffffffffffffffffffffffff1663150b7a026126a1611730565b8786866040518563ffffffff1660e01b81526004016126c39493929190613a72565b602060405180830381600087803b1580156126dd57600080fd5b505af192505050801561270e57506040513d601f19601f8201168201806040525081019061270b9190612ec7565b60015b612791573d806000811461273e576040519150601f19603f3d011682016040523d82523d6000602084013e612743565b606091505b50600081511415612789576040517f08c379a000000000000000000000000000000000000000000000000000000000815260040161278090613b3d565b60405180910390fd5b805181602001fd5b63150b7a0260e01b7bffffffffffffffffffffffffffffffffffffffffffffffffffffffff1916817bffffffffffffffffffffffffffffffffffffffffffffffffffffffff1916149150506127e6565b600190505b949350505050565b600073ffffffffffffffffffffffffffffffffffffffff168273ffffffffffffffffffffffffffffffffffffffff16141561285e576040517f08c379a000000000000000000000000000000000000000000000000000000000815260040161285590613c3d565b60405180910390fd5b61286781612378565b156128a7576040517f08c379a000000000000000000000000000000000000000000000000000000000815260040161289e90613b7d565b60405180910390fd5b6128b56000838360016123b9565b6128be81612378565b156128fe576040517f08c379a00000000000000000000000000000000000000000000000000000000081526004016128f590613b7d565b60405180910390fd5b6001600360008473ffffffffffffffffffffffffffffffffffffffff1673ffffffffffffffffffffffffffffffffffffffff16815260200190815260200160002060008282540192505081905550816002600083815260200190815260200160002060006101000a81548173ffffffffffffffffffffffffffffffffffffffff021916908373ffffffffffffffffffffffffffffffffffffffff160217905550808273ffffffffffffffffffffffffffffffffffffffff16600073ffffffffffffffffffffffffffffffffffffffff167fddf252ad1be2c89b69c2b068fc378daa952ba7f163c4a11628f55a4df523b3ef60405160405180910390a4612a086000838360016123bf565b5050565b6000808273ffffffffffffffffffffffffffffffffffffffff16803b806020016040519081016040528181526000908060200190933c51119050919050565b828054612a5790613fb4565b90600052602060002090601f016020900481019282612a795760008555612ac0565b82601f10612a9257803560ff1916838001178555612ac0565b82800160010185558215612ac0579182015b82811115612abf578235825591602001919060010190612aa4565b5b509050612acd9190612b57565b5090565b828054612add90613fb4565b90600052602060002090601f016020900481019282612aff5760008555612b46565b82601f10612b1857805160ff1916838001178555612b46565b82800160010185558215612b46579182015b82811115612b45578251825591602001919060010190612b2a565b5b509050612b539190612b57565b5090565b5b80821115612b70576000816000905550600101612b58565b5090565b6000612b87612b8284613d09565b613cd8565b905082815260208101848484011115612b9f57600080fd5b612baa848285613f72565b509392505050565b6000612bc5612bc084613d39565b613cd8565b905082815260208101848484011115612bdd57600080fd5b612be8848285613f72565b509392505050565b600081359050612bff816140fc565b92915050565b600081359050612c1481614113565b92915050565b600081359050612c298161412a565b92915050565b600081519050612c3e8161412a565b92915050565b600082601f830112612c5557600080fd5b8135612c65848260208601612b74565b91505092915050565b60008083601f840112612c8057600080fd5b8235905067ffffffffffffffff811115612c9957600080fd5b602083019150836001820283011115612cb157600080fd5b9250929050565b600082601f830112612cc957600080fd5b8135612cd9848260208601612bb2565b91505092915050565b600081359050612cf181614141565b92915050565b600060208284031215612d0957600080fd5b6000612d1784828501612bf0565b91505092915050565b60008060408385031215612d3357600080fd5b6000612d4185828601612bf0565b9250506020612d5285828601612bf0565b9150509250929050565b600080600060608486031215612d7157600080fd5b6000612d7f86828701612bf0565b9350506020612d9086828701612bf0565b9250506040612da186828701612ce2565b9150509250925092565b60008060008060808587031215612dc157600080fd5b6000612dcf87828801612bf0565b9450506020612de087828801612bf0565b9350506040612df187828801612ce2565b925050606085013567ffffffffffffffff811115612e0e57600080fd5b612e1a87828801612c44565b91505092959194509250565b60008060408385031215612e3957600080fd5b6000612e4785828601612bf0565b9250506020612e5885828601612c05565b9150509250929050565b60008060408385031215612e7557600080fd5b6000612e8385828601612bf0565b9250506020612e9485828601612ce2565b9150509250929050565b600060208284031215612eb057600080fd5b6000612ebe84828501612c1a565b91505092915050565b600060208284031215612ed957600080fd5b6000612ee784828501612c2f565b91505092915050565b60008060208385031215612f0357600080fd5b600083013567ffffffffffffffff811115612f1d57600080fd5b612f2985828601612c6e565b92509250509250929050565b60008060008060408587031215612f4b57600080fd5b600085013567ffffffffffffffff811115612f6557600080fd5b612f7187828801612c6e565b9450945050602085013567ffffffffffffffff811115612f9057600080fd5b612f9c87828801612c6e565b925092505092959194509250565b600080600080600060608688031215612fc257600080fd5b600086013567ffffffffffffffff811115612fdc57600080fd5b612fe888828901612c6e565b9550955050602086013567ffffffffffffffff81111561300757600080fd5b61301388828901612c6e565b9350935050604061302688828901612bf0565b9150509295509295909350565b60006020828403121561304557600080fd5b600082013567ffffffffffffffff81111561305f57600080fd5b61306b84828501612cb8565b91505092915050565b60006020828403121561308657600080fd5b600061309484828501612ce2565b91505092915050565b60006130a983836131b1565b905092915050565b6130ba81613efe565b82525050565b6130c981613eec565b82525050565b60006130da82613d8e565b6130e48185613dbc565b9350836020820285016130f685613d69565b8060005b858110156131325784840389528151613113858261309d565b945061311e83613daf565b925060208a019950506001810190506130fa565b50829750879550505050505092915050565b61314d81613f10565b82525050565b600061315e82613d99565b6131688185613dcd565b9350613178818560208601613f81565b613181816140eb565b840191505092915050565b60006131988385613e00565b93506131a5838584613f72565b82840190509392505050565b60006131bc82613da4565b6131c68185613dde565b93506131d6818560208601613f81565b6131df816140eb565b840191505092915050565b60006131f582613da4565b6131ff8185613def565b935061320f818560208601613f81565b613218816140eb565b840191505092915050565b600061322e82613da4565b6132388185613e00565b9350613248818560208601613f81565b80840191505092915050565b6000815461326181613fb4565b61326b8186613e00565b945060018216600081146132865760018114613297576132ca565b60ff198316865281860193506132ca565b6132a085613d79565b60005b838110156132c2578154818901526001820191506020810190506132a3565b838801955050505b50505092915050565b60006132e0602d83613def565b91507f4552433732313a2063616c6c6572206973206e6f7420746f6b656e206f776e6560008301527f72206f7220617070726f766564000000000000000000000000000000000000006020830152604082019050919050565b6000613346603283613def565b91507f4552433732313a207472616e7366657220746f206e6f6e20455243373231526560008301527f63656976657220696d706c656d656e74657200000000000000000000000000006020830152604082019050919050565b60006133ac602583613def565b91507f4552433732313a207472616e736665722066726f6d20696e636f72726563742060008301527f6f776e65720000000000000000000000000000000000000000000000000000006020830152604082019050919050565b6000613412601c83613def565b91507f4552433732313a20746f6b656e20616c7265616479206d696e746564000000006000830152602082019050919050565b6000613452605c83613e00565b91507f222c20226465736372697074696f6e223a20224120646f6d61696e206f6e207460008301527f6865204e696e6a61206e616d652073657276696365222c2022696d616765223a60208301527f2022646174613a696d6167652f7376672b786d6c3b6261736536342c000000006040830152605c82019050919050565b60006134de602483613def565b91507f4552433732313a207472616e7366657220746f20746865207a65726f2061646460008301527f72657373000000000000000000000000000000000000000000000000000000006020830152604082019050919050565b6000613544601983613def565b91507f4552433732313a20617070726f766520746f2063616c6c6572000000000000006000830152602082019050919050565b6000613584602083613def565b91507f696e76616c696420646f6d61696e206e616d6520636865636b206c656e6774686000830152602082019050919050565b60006135c4602983613def565b91507f4552433732313a2061646472657373207a65726f206973206e6f74206120766160008301527f6c6964206f776e657200000000000000000000000000000000000000000000006020830152604082019050919050565b600061362a600183613e00565b91507f2e000000000000000000000000000000000000000000000000000000000000006000830152600182019050919050565b600061366a602e83613def565b91507f45524337323155524953746f726167653a2055524920736574206f66206e6f6e60008301527f6578697374656e7420746f6b656e0000000000000000000000000000000000006020830152604082019050919050565b60006136d0600283613e00565b91507f227d0000000000000000000000000000000000000000000000000000000000006000830152600282019050919050565b6000613710602083613def565b91507f4552433732313a206d696e7420746f20746865207a65726f20616464726573736000830152602082019050919050565b6000613750600a83613e00565b91507f7b226e616d65223a2022000000000000000000000000000000000000000000006000830152600a82019050919050565b6000613790601883613def565b91507f4552433732313a20696e76616c696420746f6b656e20494400000000000000006000830152602082019050919050565b60006137d0602183613def565b91507f4552433732313a20617070726f76616c20746f2063757272656e74206f776e6560008301527f72000000000000000000000000000000000000000000000000000000000000006020830152604082019050919050565b6000613836601d83613e00565b91507f646174613a6170706c69636174696f6e2f6a736f6e3b6261736536342c0000006000830152601d82019050919050565b6000613876600c83613e00565b91507f222c226c656e677468223a2200000000000000000000000000000000000000006000830152600c82019050919050565b60006138b6603d83613def565b91507f4552433732313a20617070726f76652063616c6c6572206973206e6f7420746f60008301527f6b656e206f776e6572206f7220617070726f76656420666f7220616c6c0000006020830152604082019050919050565b61391881613f68565b82525050565b600061392b82848661318c565b91508190509392505050565b600061394482858761318c565b915061394f8261361d565b915061395b8284613254565b9150819050949350505050565b60006139748285613223565b91506139808284613223565b91508190509392505050565b60006139988286613254565b91506139a48285613223565b91506139b08284613254565b9150819050949350505050565b60006139c882613743565b91506139d48286613223565b91506139df82613445565b91506139eb8285613223565b91506139f682613869565b9150613a028284613223565b9150613a0d826136c3565b9150819050949350505050565b6000613a2582613829565b9150613a318284613223565b915081905092915050565b6000602082019050613a5160008301846130c0565b92915050565b6000602082019050613a6c60008301846130b1565b92915050565b6000608082019050613a8760008301876130c0565b613a9460208301866130c0565b613aa1604083018561390f565b8181036060830152613ab38184613153565b905095945050505050565b60006020820190508181036000830152613ad881846130cf565b905092915050565b6000602082019050613af56000830184613144565b92915050565b60006020820190508181036000830152613b1581846131ea565b905092915050565b60006020820190508181036000830152613b36816132d3565b9050919050565b60006020820190508181036000830152613b5681613339565b9050919050565b60006020820190508181036000830152613b768161339f565b9050919050565b60006020820190508181036000830152613b9681613405565b9050919050565b60006020820190508181036000830152613bb6816134d1565b9050919050565b60006020820190508181036000830152613bd681613537565b9050919050565b60006020820190508181036000830152613bf681613577565b9050919050565b60006020820190508181036000830152613c16816135b7565b9050919050565b60006020820190508181036000830152613c368161365d565b9050919050565b60006020820190508181036000830152613c5681613703565b9050919050565b60006020820190508181036000830152613c7681613783565b9050919050565b60006020820190508181036000830152613c96816137c3565b9050919050565b60006020820190508181036000830152613cb6816138a9565b9050919050565b6000602082019050613cd2600083018461390f565b92915050565b6000604051905081810181811067ffffffffffffffff82111715613cff57613cfe6140bc565b5b8060405250919050565b600067ffffffffffffffff821115613d2457613d236140bc565b5b601f19601f8301169050602081019050919050565b600067ffffffffffffffff821115613d5457613d536140bc565b5b601f19601f8301169050602081019050919050565b6000819050602082019050919050565b60008190508160005260206000209050919050565b600081519050919050565b600081519050919050565b600081519050919050565b6000602082019050919050565b600082825260208201905092915050565b600082825260208201905092915050565b600082825260208201905092915050565b600082825260208201905092915050565b600081905092915050565b6000613e1682613f68565b9150613e2183613f68565b9250827fffffffffffffffffffffffffffffffffffffffffffffffffffffffffffffffff03821115613e5657613e5561402f565b5b828201905092915050565b6000613e6c82613f68565b9150613e7783613f68565b925082613e8757613e8661405e565b5b828204905092915050565b6000613e9d82613f68565b9150613ea883613f68565b9250817fffffffffffffffffffffffffffffffffffffffffffffffffffffffffffffffff0483118215151615613ee157613ee061402f565b5b828202905092915050565b6000613ef782613f48565b9050919050565b6000613f0982613f48565b9050919050565b60008115159050919050565b60007fffffffff0000000000000000000000000000000000000000000000000000000082169050919050565b600073ffffffffffffffffffffffffffffffffffffffff82169050919050565b6000819050919050565b82818337600083830152505050565b60005b83811015613f9f578082015181840152602081019050613f84565b83811115613fae576000848401525b50505050565b60006002820490506001821680613fcc57607f821691505b60208210811415613fe057613fdf61408d565b5b50919050565b6000613ff182613f68565b91507fffffffffffffffffffffffffffffffffffffffffffffffffffffffffffffffff8214156140245761402361402f565b5b600182019050919050565b7f4e487b7100000000000000000000000000000000000000000000000000000000600052601160045260246000fd5b7f4e487b7100000000000000000000000000000000000000000000000000000000600052601260045260246000fd5b7f4e487b7100000000000000000000000000000000000000000000000000000000600052602260045260246000fd5b7f4e487b7100000000000000000000000000000000000000000000000000000000600052604160045260246000fd5b6000601f19601f8301169050919050565b61410581613eec565b811461411057600080fd5b50565b61411c81613f10565b811461412757600080fd5b50565b61413381613f1c565b811461413e57600080fd5b50565b61414a81613f68565b811461415557600080fd5b5056fe4142434445464748494a4b4c4d4e4f505152535455565758595a6162636465666768696a6b6c6d6e6f707172737475767778797a303132333435363738392b2fa26469706673582212203bc2cd50767abb9b0932c24090c7ca815ead61c3fd853fbbd6d2996e4bdb76c764736f6c634300080000333c73766720786d6c6e733d22687474703a2f2f7777772e77332e6f72672f323030302f737667222077696474683d2232373022206865696768743d22323730222066696c6c3d226e6f6e65223e3c706174682066696c6c3d2275726c282342292220643d224d302030683237307632373048307a222f3e3c646566733e3c66696c7465722069643d22412220636f6c6f722d696e746572706f6c6174696f6e2d66696c746572733d2273524742222066696c746572556e6974733d227573657253706163654f6e55736522206865696768743d22323730222077696474683d22323730223e3c666544726f70536861646f772064783d2230222064793d22312220737464446576696174696f6e3d22322220666c6f6f642d6f7061636974793d222e323235222077696474683d223230302522206865696768743d2232303025222f3e3c2f66696c7465723e3c2f646566733e3c7061746820643d224d37322e3836332034322e393439632d2e3636382d2e3338372d312e3432362d2e35392d322e3139372d2e3539732d312e3532392e3230342d322e3139372e35396c2d31302e30383120362e3033322d362e383520332e3933342d31302e30383120362e303332632d2e3636382e3338372d312e3432362e35392d322e3139372e3539732d312e3532392d2e3230342d322e3139372d2e35396c2d382e3031332d342e37323161342e353220342e35322030203020312d312e3538392d312e363136632d2e3338342d2e3636352d2e3539342d312e3431382d2e3630382d322e313837762d392e3331632d2e3031332d2e3737352e3138352d312e3533382e3537322d322e32303861342e323520342e323520302030203120312e3632352d312e3539356c372e3838342d342e3539632e3636382d2e33383720312e3432362d2e353920322e3139372d2e353973312e3532392e32303420322e3139372e35396c372e38383420342e353961342e353220342e353220302030203120312e35383920312e363136632e3338342e3636352e35393420312e3431382e36303820322e31383776362e3033326c362e38352d342e303635762d362e303332632e3031332d2e3737352d2e3138352d312e3533382d2e3537322d322e32303861342e323520342e32352030203020302d312e3632352d312e3539354c34312e3435362032342e3539632d2e3636382d2e3338372d312e3432362d2e35392d322e3139372d2e3539732d312e3532392e3230342d322e3139372e35396c2d31342e38363420382e36353561342e323520342e32352030203020302d312e36323520312e353935632d2e3338372e36372d2e35383520312e3433342d2e35373220322e3230387631372e343431632d2e3031332e3737352e31383520312e3533382e35373220322e32303861342e323520342e323520302030203020312e36323520312e3539356c31342e38363420382e363535632e3636382e33383720312e3432362e353920322e3139372e353973312e3532392d2e32303420322e3139372d2e35396c31302e3038312d352e39303120362e38352d342e3036352031302e3038312d352e393031632e3636382d2e33383720312e3432362d2e353920322e3139372d2e353973312e3532392e32303420322e3139372e35396c372e38383420342e353961342e353220342e353220302030203120312e35383920312e363136632e3338342e3636352e35393420312e3431382e36303820322e31383776392e333131632e3031332e3737352d2e31383520312e3533382d2e35373220322e32303861342e323520342e32352030203020312d312e36323520312e3539356c2d372e38383420342e373231632d2e3636382e3338372d312e3432362e35392d322e3139372e3539732d312e3532392d2e3230342d322e3139372d2e35396c2d372e3838342d342e353961342e353220342e35322030203020312d312e3538392d312e363136632d2e3338352d2e3636352d2e3539342d312e3431382d2e3630382d322e313837762d362e3033326c2d362e383520342e30363576362e303332632d2e3031332e3737352e31383520312e3533382e35373220322e32303861342e323520342e323520302030203020312e36323520312e3539356c31342e38363420382e363535632e3636382e33383720312e3432362e353920322e3139372e353973312e3532392d2e32303420322e3139372d2e35396c31342e3836342d382e363535632e3635372d2e33393420312e3230342d2e393520312e3538392d312e363136732e3539342d312e3431382e3630392d322e3138375635352e353338632e3031332d2e3737352d2e3138352d312e3533382d2e3537322d322e32303861342e323520342e32352030203020302d312e3632352d312e3539356c2d31342e3939332d382e3738367a222066696c6c3d2223666666222f3e3c646566733e3c6c696e6561724772616469656e742069643d2242222078313d2230222079313d2230222078323d22323730222079323d2232373022206772616469656e74556e6974733d227573657253706163654f6e557365223e3c73746f702073746f702d636f6c6f723d2223636235656565222f3e3c73746f70206f66667365743d2231222073746f702d636f6c6f723d2223306364376534222073746f702d6f7061636974793d222e3939222f3e3c2f6c696e6561724772616469656e743e3c2f646566733e3c7465787420783d2233322e352220793d223233312220666f6e742d73697a653d223237222066696c6c3d2223666666222066696c7465723d2275726c282341292220666f6e742d66616d696c793d22506c7573204a616b617274612053616e732c44656a6156752053616e732c4e6f746f20436f6c6f7220456d6f6a692c4170706c6520436f6c6f7220456d6f6a692c73616e732d73657269662220666f6e742d7765696768743d22626f6c64223e",
  "immutableReferences": {},
  "source": "//SPDX-License-Identifier: Unlicense\npragma solidity >=0.8.0;\n\nimport {StringUtils} from \"./../lib/StringUtils.sol\";\nimport {Base64} from \"./../lib/Base64.sol\";\nimport \"@openzeppelin/contracts/token/ERC721/extensions/ERC721URIStorage.sol\";\nimport \"@openzeppelin/contracts/utils/Counters.sol\";\n\n/**\n * DNS(DID Name Servivce) Contract\n */\ncontract DNS is ERC721URIStorage {\n    // tokenID\n    using Counters for Counters.Counter;\n    Counters.Counter private _tokenIds;\n    // Image data\n    string svgPartOne =\n        '<svg xmlns=\"http://www.w3.org/2000/svg\" width=\"270\" height=\"270\" fill=\"none\"><path fill=\"url(#B)\" d=\"M0 0h270v270H0z\"/><defs><filter id=\"A\" color-interpolation-filters=\"sRGB\" filterUnits=\"userSpaceOnUse\" height=\"270\" width=\"270\"><feDropShadow dx=\"0\" dy=\"1\" stdDeviation=\"2\" flood-opacity=\".225\" width=\"200%\" height=\"200%\"/></filter></defs><path d=\"M72.863 42.949c-.668-.387-1.426-.59-2.197-.59s-1.529.204-2.197.59l-10.081 6.032-6.85 3.934-10.081 6.032c-.668.387-1.426.59-2.197.59s-1.529-.204-2.197-.59l-8.013-4.721a4.52 4.52 0 0 1-1.589-1.616c-.384-.665-.594-1.418-.608-2.187v-9.31c-.013-.775.185-1.538.572-2.208a4.25 4.25 0 0 1 1.625-1.595l7.884-4.59c.668-.387 1.426-.59 2.197-.59s1.529.204 2.197.59l7.884 4.59a4.52 4.52 0 0 1 1.589 1.616c.384.665.594 1.418.608 2.187v6.032l6.85-4.065v-6.032c.013-.775-.185-1.538-.572-2.208a4.25 4.25 0 0 0-1.625-1.595L41.456 24.59c-.668-.387-1.426-.59-2.197-.59s-1.529.204-2.197.59l-14.864 8.655a4.25 4.25 0 0 0-1.625 1.595c-.387.67-.585 1.434-.572 2.208v17.441c-.013.775.185 1.538.572 2.208a4.25 4.25 0 0 0 1.625 1.595l14.864 8.655c.668.387 1.426.59 2.197.59s1.529-.204 2.197-.59l10.081-5.901 6.85-4.065 10.081-5.901c.668-.387 1.426-.59 2.197-.59s1.529.204 2.197.59l7.884 4.59a4.52 4.52 0 0 1 1.589 1.616c.384.665.594 1.418.608 2.187v9.311c.013.775-.185 1.538-.572 2.208a4.25 4.25 0 0 1-1.625 1.595l-7.884 4.721c-.668.387-1.426.59-2.197.59s-1.529-.204-2.197-.59l-7.884-4.59a4.52 4.52 0 0 1-1.589-1.616c-.385-.665-.594-1.418-.608-2.187v-6.032l-6.85 4.065v6.032c-.013.775.185 1.538.572 2.208a4.25 4.25 0 0 0 1.625 1.595l14.864 8.655c.668.387 1.426.59 2.197.59s1.529-.204 2.197-.59l14.864-8.655c.657-.394 1.204-.95 1.589-1.616s.594-1.418.609-2.187V55.538c.013-.775-.185-1.538-.572-2.208a4.25 4.25 0 0 0-1.625-1.595l-14.993-8.786z\" fill=\"#fff\"/><defs><linearGradient id=\"B\" x1=\"0\" y1=\"0\" x2=\"270\" y2=\"270\" gradientUnits=\"userSpaceOnUse\"><stop stop-color=\"#cb5eee\"/><stop offset=\"1\" stop-color=\"#0cd7e4\" stop-opacity=\".99\"/></linearGradient></defs><text x=\"32.5\" y=\"231\" font-size=\"27\" fill=\"#fff\" filter=\"url(#A)\" font-family=\"Plus Jakarta Sans,DejaVu Sans,Noto Color Emoji,Apple Color Emoji,sans-serif\" font-weight=\"bold\">';\n    string svgPartTwo = \"</text></svg>\";\n\n    // Top Level Domain\n    string public tld;\n    // owner address\n    address payable public owner;\n\n    mapping(string => string) public domains;\n    mapping(string => string) public records;\n    mapping(uint => string) public names;\n\n    modifier onlyOwner() {\n        require(isOwner());\n        _;\n    }\n\n    /**\n     * constuctor\n     * @param _tld top level domain\n     */\n    constructor(string memory _tld) payable ERC721(\"DID Name Service\", \"DNS\") {\n        // owner address\n        owner = payable(msg.sender);\n        tld = _tld;\n    }\n\n    /**\n     * register\n     * @param name domain\n     * @param did did\n     * @param to address\n     */\n    function register(\n        string calldata name,\n        string calldata did,\n        address to\n    ) public payable {\n        require(!valid(name), \"invalid domain name check length\");\n\n        // name + tld\n        string memory _name = string(abi.encodePacked(name, \".\", tld));\n        // create image data\n        string memory finalSvg = string(\n            abi.encodePacked(svgPartOne, _name, svgPartTwo)\n        );\n        //get token ID\n        uint256 newRecordId = _tokenIds.current();\n        uint256 length = StringUtils.strlen(name);\n        string memory strLen = Strings.toString(length);\n\n        // encode\n        string memory json = Base64.encode(\n            abi.encodePacked(\n                '{\"name\": \"',\n                _name,\n                '\", \"description\": \"A domain on the Ninja name service\", \"image\": \"data:image/svg+xml;base64,',\n                Base64.encode(bytes(finalSvg)),\n                '\",\"length\":\"',\n                strLen,\n                '\"}'\n            )\n        );\n        // generate URI\n        string memory finalTokenUri = string(\n            abi.encodePacked(\"data:application/json;base64,\", json)\n        );\n\n        // mint NFT\n        _safeMint(to, newRecordId);\n        // token URO\n        _setTokenURI(newRecordId, finalTokenUri);\n\n        // register\n        domains[name] = did;\n        names[newRecordId] = name;\n        _tokenIds.increment();\n    }\n\n    /**\n     * get name\n     * @param name domain\n     */\n    function getAddress(\n        string calldata name\n    ) public view returns (string memory) {\n        return domains[name];\n    }\n\n    /**\n     * set record\n     * @param name domain\n     * @param record data\n     */\n    function setRecord(string calldata name, string calldata record) public {\n        // register\n        records[name] = record;\n    }\n\n    /**\n     * get record data\n     * @param name name\n     */\n    function getRecord(\n        string calldata name\n    ) public view returns (string memory) {\n        return records[name];\n    }\n\n    /**\n     * check owner\n     */\n    function isOwner() public view returns (bool) {\n        return msg.sender == owner;\n    }\n\n    /**\n     * gell all names\n     */\n    function getAllNames() public view returns (string[] memory) {\n        string[] memory allNames = new string[](_tokenIds.current());\n        for (uint i = 0; i < _tokenIds.current(); i++) {\n            allNames[i] = names[i];\n        }\n        // \n        return allNames;\n    }\n\n    /**\n     * check domain name\n     */\n    function valid(string calldata name) public pure returns (bool) {\n        return StringUtils.strlen(name) >= 3 && StringUtils.strlen(name) <= 10;\n    }\n}\n",
  "sourcePath": "/Users/harukikondo/git/Web3Wallet/packages/backend/contracts/DNS/DNS.sol",
  "compiler": {
    "name": "solc",
    "version": "0.8.0+commit.c7dfd78e.Emscripten.clang"
  },
  "schemaVersion": "3.4.3",
  "updatedAt": "2023-03-28T13:13:20.712Z",
  "devdoc": {
    "kind": "dev",
    "methods": {
      "approve(address,uint256)": {
        "details": "See {IERC721-approve}."
      },
      "balanceOf(address)": {
        "details": "See {IERC721-balanceOf}."
      },
      "constructor": {
        "params": {
          "_tld": "top level domain"
        }
      },
      "getAddress(string)": {
        "params": {
          "name": "domain"
        }
      },
      "getApproved(uint256)": {
        "details": "See {IERC721-getApproved}."
      },
      "getRecord(string)": {
        "params": {
          "name": "name"
        }
      },
      "isApprovedForAll(address,address)": {
        "details": "See {IERC721-isApprovedForAll}."
      },
      "name()": {
        "details": "See {IERC721Metadata-name}."
      },
      "ownerOf(uint256)": {
        "details": "See {IERC721-ownerOf}."
      },
      "register(string,string,address)": {
        "params": {
          "did": "did",
          "name": "domain",
          "to": "address"
        }
      },
      "safeTransferFrom(address,address,uint256)": {
        "details": "See {IERC721-safeTransferFrom}."
      },
      "safeTransferFrom(address,address,uint256,bytes)": {
        "details": "See {IERC721-safeTransferFrom}."
      },
      "setApprovalForAll(address,bool)": {
        "details": "See {IERC721-setApprovalForAll}."
      },
      "setRecord(string,string)": {
        "params": {
          "name": "domain",
          "record": "data"
        }
      },
      "supportsInterface(bytes4)": {
        "details": "See {IERC165-supportsInterface}."
      },
      "symbol()": {
        "details": "See {IERC721Metadata-symbol}."
      },
      "tokenURI(uint256)": {
        "details": "See {IERC721Metadata-tokenURI}."
      },
      "transferFrom(address,address,uint256)": {
        "details": "See {IERC721-transferFrom}."
      }
    },
    "version": 1
  },
  "userdoc": {
    "kind": "user",
    "methods": {
      "constructor": {
        "notice": "constuctor"
      },
      "getAddress(string)": {
        "notice": "get name"
      },
      "getAllNames()": {
        "notice": "gell all names"
      },
      "getRecord(string)": {
        "notice": "get record data"
      },
      "isOwner()": {
        "notice": "check owner"
      },
      "register(string,string,address)": {
        "notice": "register"
      },
      "setRecord(string,string)": {
        "notice": "set record"
      },
      "valid(string)": {
        "notice": "check domain name"
      }
    },
    "notice": "DNS(DID Name Servivce) Contract",
    "version": 1
  }
}