{
  "contractName": "MultiSigWallet",
  "abi": [
    {
      "inputs": [
        {
          "internalType": "string",
          "name": "_name",
          "type": "string"
        },
        {
          "internalType": "address[]",
          "name": "_owners",
          "type": "address[]"
        },
        {
          "internalType": "uint256",
          "name": "_required",
          "type": "uint256"
        }
      ],
      "stateMutability": "nonpayable",
      "type": "constructor"
    },
    {
      "anonymous": false,
      "inputs": [
        {
          "indexed": true,
          "internalType": "address",
          "name": "owner",
          "type": "address"
        },
        {
          "indexed": true,
          "internalType": "uint256",
          "name": "txId",
          "type": "uint256"
        }
      ],
      "name": "Approve",
      "type": "event"
    },
    {
      "anonymous": false,
      "inputs": [
        {
          "indexed": true,
          "internalType": "address",
          "name": "sender",
          "type": "address"
        },
        {
          "indexed": false,
          "internalType": "uint256",
          "name": "amount",
          "type": "uint256"
        }
      ],
      "name": "Deposit",
      "type": "event"
    },
    {
      "anonymous": false,
      "inputs": [
        {
          "indexed": true,
          "internalType": "uint256",
          "name": "txId",
          "type": "uint256"
        }
      ],
      "name": "Execute",
      "type": "event"
    },
    {
      "anonymous": false,
      "inputs": [
        {
          "indexed": true,
          "internalType": "address",
          "name": "owner",
          "type": "address"
        },
        {
          "indexed": true,
          "internalType": "uint256",
          "name": "txId",
          "type": "uint256"
        }
      ],
      "name": "Revoke",
      "type": "event"
    },
    {
      "anonymous": false,
      "inputs": [
        {
          "indexed": true,
          "internalType": "uint256",
          "name": "txId",
          "type": "uint256"
        }
      ],
      "name": "Submit",
      "type": "event"
    },
    {
      "inputs": [
        {
          "internalType": "uint256",
          "name": "",
          "type": "uint256"
        },
        {
          "internalType": "address",
          "name": "",
          "type": "address"
        }
      ],
      "name": "approved",
      "outputs": [
        {
          "internalType": "bool",
          "name": "",
          "type": "bool"
        }
      ],
      "stateMutability": "view",
      "type": "function"
    },
    {
      "inputs": [
        {
          "internalType": "address",
          "name": "",
          "type": "address"
        }
      ],
      "name": "isOwner",
      "outputs": [
        {
          "internalType": "bool",
          "name": "",
          "type": "bool"
        }
      ],
      "stateMutability": "view",
      "type": "function"
    },
    {
      "inputs": [
        {
          "internalType": "uint256",
          "name": "",
          "type": "uint256"
        }
      ],
      "name": "owners",
      "outputs": [
        {
          "internalType": "address",
          "name": "",
          "type": "address"
        }
      ],
      "stateMutability": "view",
      "type": "function"
    },
    {
      "inputs": [],
      "name": "required",
      "outputs": [
        {
          "internalType": "uint256",
          "name": "",
          "type": "uint256"
        }
      ],
      "stateMutability": "view",
      "type": "function"
    },
    {
      "inputs": [
        {
          "internalType": "uint256",
          "name": "",
          "type": "uint256"
        }
      ],
      "name": "transactions",
      "outputs": [
        {
          "internalType": "address",
          "name": "to",
          "type": "address"
        },
        {
          "internalType": "uint256",
          "name": "value",
          "type": "uint256"
        },
        {
          "internalType": "bytes",
          "name": "data",
          "type": "bytes"
        },
        {
          "internalType": "bool",
          "name": "executed",
          "type": "bool"
        }
      ],
      "stateMutability": "view",
      "type": "function"
    },
    {
      "inputs": [],
      "name": "walletName",
      "outputs": [
        {
          "internalType": "string",
          "name": "",
          "type": "string"
        }
      ],
      "stateMutability": "view",
      "type": "function"
    },
    {
      "stateMutability": "payable",
      "type": "receive"
    },
    {
      "inputs": [
        {
          "internalType": "address",
          "name": "_to",
          "type": "address"
        },
        {
          "internalType": "uint256",
          "name": "_value",
          "type": "uint256"
        },
        {
          "internalType": "bytes",
          "name": "_data",
          "type": "bytes"
        }
      ],
      "name": "submit",
      "outputs": [],
      "stateMutability": "nonpayable",
      "type": "function"
    },
    {
      "inputs": [
        {
          "internalType": "uint256",
          "name": "_txId",
          "type": "uint256"
        }
      ],
      "name": "approve",
      "outputs": [],
      "stateMutability": "nonpayable",
      "type": "function"
    },
    {
      "inputs": [
        {
          "internalType": "uint256",
          "name": "_txId",
          "type": "uint256"
        }
      ],
      "name": "_getApprovalCount",
      "outputs": [
        {
          "internalType": "uint256",
          "name": "count",
          "type": "uint256"
        }
      ],
      "stateMutability": "view",
      "type": "function"
    },
    {
      "inputs": [
        {
          "internalType": "uint256",
          "name": "_txId",
          "type": "uint256"
        }
      ],
      "name": "execute",
      "outputs": [],
      "stateMutability": "payable",
      "type": "function"
    },
    {
      "inputs": [
        {
          "internalType": "uint256",
          "name": "_txId",
          "type": "uint256"
        }
      ],
      "name": "revoke",
      "outputs": [],
      "stateMutability": "nonpayable",
      "type": "function"
    },
    {
      "inputs": [],
      "name": "getName",
      "outputs": [
        {
          "internalType": "string",
          "name": "",
          "type": "string"
        }
      ],
      "stateMutability": "view",
      "type": "function"
    },
    {
      "inputs": [],
      "name": "getRequired",
      "outputs": [
        {
          "internalType": "uint256",
          "name": "",
          "type": "uint256"
        }
      ],
      "stateMutability": "view",
      "type": "function"
    },
    {
      "inputs": [],
      "name": "getOwnersCount",
      "outputs": [
        {
          "internalType": "uint256",
          "name": "",
          "type": "uint256"
        }
      ],
      "stateMutability": "view",
      "type": "function"
    },
    {
      "inputs": [],
      "name": "getTxs",
      "outputs": [
        {
          "components": [
            {
              "internalType": "address",
              "name": "to",
              "type": "address"
            },
            {
              "internalType": "uint256",
              "name": "value",
              "type": "uint256"
            },
            {
              "internalType": "bytes",
              "name": "data",
              "type": "bytes"
            },
            {
              "internalType": "bool",
              "name": "executed",
              "type": "bool"
            }
          ],
          "internalType": "struct MultiSigWallet.Transaction[]",
          "name": "",
          "type": "tuple[]"
        }
      ],
      "stateMutability": "view",
      "type": "function"
    }
  ],
  "bytecode": "0x60806040523480156200001157600080fd5b5060405162002887380380620028878339818101604052810190620000379190620006c8565b60008251116200007e576040517f08c379a00000000000000000000000000000000000000000000000000000000081526004016200007590620007e9565b60405180910390fd5b60008111801562000090575081518111155b620000d2576040517f08c379a0000000000000000000000000000000000000000000000000000000008152600401620000c99062000881565b60405180910390fd5b60005b8251811015620002d6576000838281518110620000f757620000f6620008a3565b5b60200260200101519050600073ffffffffffffffffffffffffffffffffffffffff168173ffffffffffffffffffffffffffffffffffffffff16141562000174576040517f08c379a00000000000000000000000000000000000000000000000000000000081526004016200016b9062000922565b60405180910390fd5b600460008273ffffffffffffffffffffffffffffffffffffffff1673ffffffffffffffffffffffffffffffffffffffff16815260200190815260200160002060009054906101000a900460ff161562000204576040517f08c379a0000000000000000000000000000000000000000000000000000000008152600401620001fb9062000994565b60405180910390fd5b6001600460008373ffffffffffffffffffffffffffffffffffffffff1673ffffffffffffffffffffffffffffffffffffffff16815260200190815260200160002060006101000a81548160ff0219169083151502179055506001819080600181540180825580915050600190039060005260206000200160009091909190916101000a81548173ffffffffffffffffffffffffffffffffffffffff021916908373ffffffffffffffffffffffffffffffffffffffff160217905550508080620002cd90620009e5565b915050620000d5565b508260009080519060200190620002ef92919062000300565b508060028190555050505062000a98565b8280546200030e9062000a62565b90600052602060002090601f0160209004810192826200033257600085556200037e565b82601f106200034d57805160ff19168380011785556200037e565b828001600101855582156200037e579182015b828111156200037d57825182559160200191906001019062000360565b5b5090506200038d919062000391565b5090565b5b80821115620003ac57600081600090555060010162000392565b5090565b6000604051905090565b600080fd5b600080fd5b600080fd5b600080fd5b6000601f19601f8301169050919050565b7f4e487b7100000000000000000000000000000000000000000000000000000000600052604160045260246000fd5b6200041982620003ce565b810181811067ffffffffffffffff821117156200043b576200043a620003df565b5b80604052505050565b600062000450620003b0565b90506200045e82826200040e565b919050565b600067ffffffffffffffff821115620004815762000480620003df565b5b6200048c82620003ce565b9050602081019050919050565b60005b83811015620004b95780820151818401526020810190506200049c565b83811115620004c9576000848401525b50505050565b6000620004e6620004e08462000463565b62000444565b905082815260208101848484011115620005055762000504620003c9565b5b6200051284828562000499565b509392505050565b600082601f830112620005325762000531620003c4565b5b815162000544848260208601620004cf565b91505092915050565b600067ffffffffffffffff8211156200056b576200056a620003df565b5b602082029050602081019050919050565b600080fd5b600073ffffffffffffffffffffffffffffffffffffffff82169050919050565b6000620005ae8262000581565b9050919050565b620005c081620005a1565b8114620005cc57600080fd5b50565b600081519050620005e081620005b5565b92915050565b6000620005fd620005f7846200054d565b62000444565b905080838252602082019050602084028301858111156200062357620006226200057c565b5b835b818110156200065057806200063b8882620005cf565b84526020840193505060208101905062000625565b5050509392505050565b600082601f830112620006725762000671620003c4565b5b815162000684848260208601620005e6565b91505092915050565b6000819050919050565b620006a2816200068d565b8114620006ae57600080fd5b50565b600081519050620006c28162000697565b92915050565b600080600060608486031215620006e457620006e3620003ba565b5b600084015167ffffffffffffffff811115620007055762000704620003bf565b5b62000713868287016200051a565b935050602084015167ffffffffffffffff811115620007375762000736620003bf565b5b62000745868287016200065a565b92505060406200075886828701620006b1565b9150509250925092565b600082825260208201905092915050565b7f6e756d626572206f66206f776e657220616464726573736573206d757374206260008201527f65206d6f7265207468616e207a65726f21210000000000000000000000000000602082015250565b6000620007d160328362000762565b9150620007de8262000773565b604082019050919050565b600060208201905081810360008301526200080481620007c2565b9050919050565b7f696e76616c6964207265717569726564206e756d626572206f66206f776e657260008201527f7300000000000000000000000000000000000000000000000000000000000000602082015250565b60006200086960218362000762565b915062000876826200080b565b604082019050919050565b600060208201905081810360008301526200089c816200085a565b9050919050565b7f4e487b7100000000000000000000000000000000000000000000000000000000600052603260045260246000fd5b7f696e76616c696420616464726573730000000000000000000000000000000000600082015250565b60006200090a600f8362000762565b91506200091782620008d2565b602082019050919050565b600060208201905081810360008301526200093d81620008fb565b9050919050565b7f6f776e6572206973206e6f7420756e6971756500000000000000000000000000600082015250565b60006200097c60138362000762565b9150620009898262000944565b602082019050919050565b60006020820190508181036000830152620009af816200096d565b9050919050565b7f4e487b7100000000000000000000000000000000000000000000000000000000600052601160045260246000fd5b6000620009f2826200068d565b91507fffffffffffffffffffffffffffffffffffffffffffffffffffffffffffffffff82141562000a285762000a27620009b6565b5b600182019050919050565b7f4e487b7100000000000000000000000000000000000000000000000000000000600052602260045260246000fd5b6000600282049050600182168062000a7b57607f821691505b6020821081141562000a925762000a9162000a33565b5b50919050565b611ddf8062000aa86000396000f3fe6080604052600436106100ec5760003560e01c80638253951a1161008a578063dc8452cd11610059578063dc8452cd14610364578063e0cedd9c1461038f578063eda8b7cd146103ba578063fe0d94c1146103f757610141565b80638253951a146102935780639ace38c2146102d0578063b759f95414610310578063cf8d8ca01461033957610141565b806317d7de7c116100c657806317d7de7c146101d757806320c5429b146102025780632f54bf6e1461022b57806373ff81cc1461026857610141565b8063025e7c27146101465780631398a5f61461018357806314de327f146101ae57610141565b36610141573373ffffffffffffffffffffffffffffffffffffffff167fe1fffcc4923d04b559f4d29a8bfc6cda04eb5b0d3c460751c2402c5c5cc9109c34604051610137919061133d565b60405180910390a2005b600080fd5b34801561015257600080fd5b5061016d6004803603810190610168919061138e565b610413565b60405161017a91906113fc565b60405180910390f35b34801561018f57600080fd5b50610198610452565b6040516101a5919061133d565b60405180910390f35b3480156101ba57600080fd5b506101d560048036038101906101d091906114a8565b61045c565b005b3480156101e357600080fd5b506101ec610665565b6040516101f991906115b5565b60405180910390f35b34801561020e57600080fd5b506102296004803603810190610224919061138e565b6106f7565b005b34801561023757600080fd5b50610252600480360381019061024d91906115d7565b610962565b60405161025f919061161f565b60405180910390f35b34801561027457600080fd5b5061027d610982565b60405161028a919061133d565b60405180910390f35b34801561029f57600080fd5b506102ba60048036038101906102b5919061163a565b61098f565b6040516102c7919061161f565b60405180910390f35b3480156102dc57600080fd5b506102f760048036038101906102f2919061138e565b6109be565b60405161030794939291906116cf565b60405180910390f35b34801561031c57600080fd5b506103376004803603810190610332919061138e565b610ab3565b005b34801561034557600080fd5b5061034e610d4d565b60405161035b91906115b5565b60405180910390f35b34801561037057600080fd5b50610379610ddb565b604051610386919061133d565b60405180910390f35b34801561039b57600080fd5b506103a4610de1565b6040516103b191906118b7565b60405180910390f35b3480156103c657600080fd5b506103e160048036038101906103dc919061138e565b610f4d565b6040516103ee919061133d565b60405180910390f35b610411600480360381019061040c919061138e565b611028565b005b6001818154811061042357600080fd5b906000526020600020016000915054906101000a900473ffffffffffffffffffffffffffffffffffffffff1681565b6000600254905090565b600460003373ffffffffffffffffffffffffffffffffffffffff1673ffffffffffffffffffffffffffffffffffffffff16815260200190815260200160002060009054906101000a900460ff166104e8576040517f08c379a00000000000000000000000000000000000000000000000000000000081526004016104df90611925565b60405180910390fd5b600360405180608001604052808673ffffffffffffffffffffffffffffffffffffffff16815260200185815260200184848080601f016020809104026020016040519081016040528093929190818152602001838380828437600081840152601f19601f82011690508083019250505050505050815260200160001515815250908060018154018082558091505060019003906000526020600020906004020160009091909190915060008201518160000160006101000a81548173ffffffffffffffffffffffffffffffffffffffff021916908373ffffffffffffffffffffffffffffffffffffffff1602179055506020820151816001015560408201518160020190805190602001906105fe929190611281565b5060608201518160030160006101000a81548160ff021916908315150217905550505060016003805490506106339190611974565b7f08324b3d745b914e3abd4ffbfead91e3b78391a98c173202129215ab933adfbe60405160405180910390a250505050565b606060008054610674906119d7565b80601f01602080910402602001604051908101604052809291908181526020018280546106a0906119d7565b80156106ed5780601f106106c2576101008083540402835291602001916106ed565b820191906000526020600020905b8154815290600101906020018083116106d057829003601f168201915b5050505050905090565b600460003373ffffffffffffffffffffffffffffffffffffffff1673ffffffffffffffffffffffffffffffffffffffff16815260200190815260200160002060009054906101000a900460ff16610783576040517f08c379a000000000000000000000000000000000000000000000000000000000815260040161077a90611925565b60405180910390fd5b8060038054905081106107cb576040517f08c379a00000000000000000000000000000000000000000000000000000000081526004016107c290611a55565b60405180910390fd5b81600381815481106107e0576107df611a75565b5b906000526020600020906004020160030160009054906101000a900460ff161561083f576040517f08c379a000000000000000000000000000000000000000000000000000000000815260040161083690611af0565b60405180910390fd5b60016005600085815260200190815260200160002060003373ffffffffffffffffffffffffffffffffffffffff1673ffffffffffffffffffffffffffffffffffffffff16815260200190815260200160002060006101000a81548160ff02191690831515021790556108b057600080fd5b60006005600085815260200190815260200160002060003373ffffffffffffffffffffffffffffffffffffffff1673ffffffffffffffffffffffffffffffffffffffff16815260200190815260200160002060006101000a81548160ff021916908315150217905550823373ffffffffffffffffffffffffffffffffffffffff167fec9ab91322523c899ede7830ec9bfc992b5981cdcc27b91162fb23de5791117b60405160405180910390a3505050565b60046020528060005260406000206000915054906101000a900460ff1681565b6000600180549050905090565b60056020528160005260406000206020528060005260406000206000915091509054906101000a900460ff1681565b600381815481106109ce57600080fd5b90600052602060002090600402016000915090508060000160009054906101000a900473ffffffffffffffffffffffffffffffffffffffff1690806001015490806002018054610a1d906119d7565b80601f0160208091040260200160405190810160405280929190818152602001828054610a49906119d7565b8015610a965780601f10610a6b57610100808354040283529160200191610a96565b820191906000526020600020905b815481529060010190602001808311610a7957829003601f168201915b5050505050908060030160009054906101000a900460ff16905084565b600460003373ffffffffffffffffffffffffffffffffffffffff1673ffffffffffffffffffffffffffffffffffffffff16815260200190815260200160002060009054906101000a900460ff16610b3f576040517f08c379a0000000000000000000000000000000000000000000000000000000008152600401610b3690611925565b60405180910390fd5b806003805490508110610b87576040517f08c379a0000000000000000000000000000000000000000000000000000000008152600401610b7e90611a55565b60405180910390fd5b816005600082815260200190815260200160002060003373ffffffffffffffffffffffffffffffffffffffff1673ffffffffffffffffffffffffffffffffffffffff16815260200190815260200160002060009054906101000a900460ff1615610c26576040517f08c379a0000000000000000000000000000000000000000000000000000000008152600401610c1d90611b5c565b60405180910390fd5b8260038181548110610c3b57610c3a611a75565b5b906000526020600020906004020160030160009054906101000a900460ff1615610c9a576040517f08c379a0000000000000000000000000000000000000000000000000000000008152600401610c9190611af0565b60405180910390fd5b60016005600086815260200190815260200160002060003373ffffffffffffffffffffffffffffffffffffffff1673ffffffffffffffffffffffffffffffffffffffff16815260200190815260200160002060006101000a81548160ff021916908315150217905550833373ffffffffffffffffffffffffffffffffffffffff167f90ec57f18fa7b15c6b8d5e4d1deb90796c74b2ff23d4d0cecad0cb42a96b312860405160405180910390a350505050565b60008054610d5a906119d7565b80601f0160208091040260200160405190810160405280929190818152602001828054610d86906119d7565b8015610dd35780601f10610da857610100808354040283529160200191610dd3565b820191906000526020600020905b815481529060010190602001808311610db657829003601f168201915b505050505081565b60025481565b60606003805480602002602001604051908101604052809291908181526020016000905b82821015610f4457838290600052602060002090600402016040518060800160405290816000820160009054906101000a900473ffffffffffffffffffffffffffffffffffffffff1673ffffffffffffffffffffffffffffffffffffffff1673ffffffffffffffffffffffffffffffffffffffff16815260200160018201548152602001600282018054610e98906119d7565b80601f0160208091040260200160405190810160405280929190818152602001828054610ec4906119d7565b8015610f115780601f10610ee657610100808354040283529160200191610f11565b820191906000526020600020905b815481529060010190602001808311610ef457829003601f168201915b505050505081526020016003820160009054906101000a900460ff16151515158152505081526020019060010190610e05565b50505050905090565b6000805b6001805490508110156110225760056000848152602001908152602001600020600060018381548110610f8757610f86611a75565b5b9060005260206000200160009054906101000a900473ffffffffffffffffffffffffffffffffffffffff1673ffffffffffffffffffffffffffffffffffffffff1673ffffffffffffffffffffffffffffffffffffffff16815260200190815260200160002060009054906101000a900460ff161561100f5760018261100c9190611b7c565b91505b808061101a90611bd2565b915050610f51565b50919050565b806003805490508110611070576040517f08c379a000000000000000000000000000000000000000000000000000000000815260040161106790611a55565b60405180910390fd5b816003818154811061108557611084611a75565b5b906000526020600020906004020160030160009054906101000a900460ff16156110e4576040517f08c379a00000000000000000000000000000000000000000000000000000000081526004016110db90611af0565b60405180910390fd5b6002546110f084610f4d565b1015611131576040517f08c379a000000000000000000000000000000000000000000000000000000000815260040161112890611c67565b60405180910390fd5b60006003848154811061114757611146611a75565b5b9060005260206000209060040201905060018160030160006101000a81548160ff02191690831515021790555060008160000160009054906101000a900473ffffffffffffffffffffffffffffffffffffffff1673ffffffffffffffffffffffffffffffffffffffff168260010154836002016040516111c79190611d26565b60006040518083038185875af1925050503d8060008114611204576040519150601f19603f3d011682016040523d82523d6000602084013e611209565b606091505b505090508061124d576040517f08c379a000000000000000000000000000000000000000000000000000000000815260040161124490611d89565b60405180910390fd5b847fddb556f1d2c1ec821e910b019d3685b229db152a0ecd517ca7e24b8bd713928960405160405180910390a25050505050565b82805461128d906119d7565b90600052602060002090601f0160209004810192826112af57600085556112f6565b82601f106112c857805160ff19168380011785556112f6565b828001600101855582156112f6579182015b828111156112f55782518255916020019190600101906112da565b5b5090506113039190611307565b5090565b5b80821115611320576000816000905550600101611308565b5090565b6000819050919050565b61133781611324565b82525050565b6000602082019050611352600083018461132e565b92915050565b600080fd5b600080fd5b61136b81611324565b811461137657600080fd5b50565b60008135905061138881611362565b92915050565b6000602082840312156113a4576113a3611358565b5b60006113b284828501611379565b91505092915050565b600073ffffffffffffffffffffffffffffffffffffffff82169050919050565b60006113e6826113bb565b9050919050565b6113f6816113db565b82525050565b600060208201905061141160008301846113ed565b92915050565b611420816113db565b811461142b57600080fd5b50565b60008135905061143d81611417565b92915050565b600080fd5b600080fd5b600080fd5b60008083601f84011261146857611467611443565b5b8235905067ffffffffffffffff81111561148557611484611448565b5b6020830191508360018202830111156114a1576114a061144d565b5b9250929050565b600080600080606085870312156114c2576114c1611358565b5b60006114d08782880161142e565b94505060206114e187828801611379565b935050604085013567ffffffffffffffff8111156115025761150161135d565b5b61150e87828801611452565b925092505092959194509250565b600081519050919050565b600082825260208201905092915050565b60005b8381101561155657808201518184015260208101905061153b565b83811115611565576000848401525b50505050565b6000601f19601f8301169050919050565b60006115878261151c565b6115918185611527565b93506115a1818560208601611538565b6115aa8161156b565b840191505092915050565b600060208201905081810360008301526115cf818461157c565b905092915050565b6000602082840312156115ed576115ec611358565b5b60006115fb8482850161142e565b91505092915050565b60008115159050919050565b61161981611604565b82525050565b60006020820190506116346000830184611610565b92915050565b6000806040838503121561165157611650611358565b5b600061165f85828601611379565b92505060206116708582860161142e565b9150509250929050565b600081519050919050565b600082825260208201905092915050565b60006116a18261167a565b6116ab8185611685565b93506116bb818560208601611538565b6116c48161156b565b840191505092915050565b60006080820190506116e460008301876113ed565b6116f1602083018661132e565b81810360408301526117038185611696565b90506117126060830184611610565b95945050505050565b600081519050919050565b600082825260208201905092915050565b6000819050602082019050919050565b611750816113db565b82525050565b61175f81611324565b82525050565b600082825260208201905092915050565b60006117818261167a565b61178b8185611765565b935061179b818560208601611538565b6117a48161156b565b840191505092915050565b6117b881611604565b82525050565b60006080830160008301516117d66000860182611747565b5060208301516117e96020860182611756565b50604083015184820360408601526118018282611776565b915050606083015161181660608601826117af565b508091505092915050565b600061182d83836117be565b905092915050565b6000602082019050919050565b600061184d8261171b565b6118578185611726565b93508360208202850161186985611737565b8060005b858110156118a557848403895281516118868582611821565b945061189183611835565b925060208a0199505060018101905061186d565b50829750879550505050505092915050565b600060208201905081810360008301526118d18184611842565b905092915050565b7f6d73672e73656e646572206d757374206265206f776e65722061646472657373600082015250565b600061190f602083611527565b915061191a826118d9565b602082019050919050565b6000602082019050818103600083015261193e81611902565b9050919050565b7f4e487b7100000000000000000000000000000000000000000000000000000000600052601160045260246000fd5b600061197f82611324565b915061198a83611324565b92508282101561199d5761199c611945565b5b828203905092915050565b7f4e487b7100000000000000000000000000000000000000000000000000000000600052602260045260246000fd5b600060028204905060018216806119ef57607f821691505b60208210811415611a0357611a026119a8565b5b50919050565b7f747820646f6573206e6f74206578697374000000000000000000000000000000600082015250565b6000611a3f601183611527565b9150611a4a82611a09565b602082019050919050565b60006020820190508181036000830152611a6e81611a32565b9050919050565b7f4e487b7100000000000000000000000000000000000000000000000000000000600052603260045260246000fd5b7f7468697320747820616c72656164792065786563757465640000000000000000600082015250565b6000611ada601883611527565b9150611ae582611aa4565b602082019050919050565b60006020820190508181036000830152611b0981611acd565b9050919050565b7f747820616c726561647920617070726f76656400000000000000000000000000600082015250565b6000611b46601383611527565b9150611b5182611b10565b602082019050919050565b60006020820190508181036000830152611b7581611b39565b9050919050565b6000611b8782611324565b9150611b9283611324565b9250827fffffffffffffffffffffffffffffffffffffffffffffffffffffffffffffffff03821115611bc757611bc6611945565b5b828201905092915050565b6000611bdd82611324565b91507fffffffffffffffffffffffffffffffffffffffffffffffffffffffffffffffff821415611c1057611c0f611945565b5b600182019050919050565b7f617070726f76616c73203c207265717569726564000000000000000000000000600082015250565b6000611c51601483611527565b9150611c5c82611c1b565b602082019050919050565b60006020820190508181036000830152611c8081611c44565b9050919050565b600081905092915050565b60008190508160005260206000209050919050565b60008154611cb4816119d7565b611cbe8186611c87565b94506001821660008114611cd95760018114611cea57611d1d565b60ff19831686528186019350611d1d565b611cf385611c92565b60005b83811015611d1557815481890152600182019150602081019050611cf6565b838801955050505b50505092915050565b6000611d328284611ca7565b915081905092915050565b7f7478206661696c69640000000000000000000000000000000000000000000000600082015250565b6000611d73600983611527565b9150611d7e82611d3d565b602082019050919050565b60006020820190508181036000830152611da281611d66565b905091905056fea2646970667358221220e3386fec298c57efb084f269e8a9f2a75300dc22002d13a92147600a76aa1ff864736f6c634300080a0033",
  "immutableReferences": {},
  "source": "// SPDX-License-Identifier: MIT\npragma solidity >=0.8.0;\n\n/**\n * MultiSigWallet\n */\ncontract MultiSigWallet {\n    // \n    struct Transaction {\n        // \n        address to;\n        // \n        uint256 value;\n        // \n        bytes data;\n        // \n        bool executed;\n    }\n\n    // \n    string public walletName;\n    // Owner\n    address[] public owners;\n    // \n    uint256 public required;\n    // \n    Transaction[] public transactions;\n\n    // ownermap\n    mapping(address => bool) public isOwner;\n    // IDonwermap\n    mapping(uint256 => mapping(address => bool)) public approved;\n\n    // \n    event Deposit(address indexed sender, uint256 amount);\n    event Submit(uint256 indexed txId);\n    event Approve(address indexed owner, uint256 indexed txId);\n    event Revoke(address indexed owner, uint256 indexed txId);\n    event Execute(uint256 indexed txId);\n\n    // owner\n    modifier onlyOwner() {\n        require(isOwner[msg.sender], \"msg.sender must be owner address\");\n        _;\n    }\n\n    // ID\n    modifier txExists(uint256 _txId) {\n        require(_txId < transactions.length, \"tx does not exist\");\n        _;\n    }\n\n    // \n    modifier notApproved(uint256 _txId) {\n        require(!approved[_txId][msg.sender], \"tx already approved\");\n        _;\n    }\n\n    // ID\n    modifier notExecuted(uint256 _txId) {\n        require(!transactions[_txId].executed, \"this tx already executed\");\n        _;\n    }\n\n    /**\n     * \n     * @param _name \n     * @param _owners owner\n     * @param _required \n     */\n    constructor(\n        string memory _name,\n        address[] memory _owners,\n        uint256 _required\n    ) {\n        // \n        require(\n            _owners.length > 0,\n            \"number of owner addresses must be more than zero!!\"\n        );\n        require(\n            _required > 0 && _required <= _owners.length,\n            \"invalid required number of owners\"\n        );\n\n        // ownermap\n        for (uint256 i; i < _owners.length; i++) {\n            // owner\n            address owner = _owners[i];\n            // owner\n            require(owner != address(0), \"invalid address\");\n            // \n            require(!isOwner[owner], \"owner is not unique\");\n            // map\n            isOwner[owner] = true;\n            owners.push(owner);\n        }\n\n        // \n        walletName = _name;\n        // \n        required = _required;\n    }\n\n    /**\n     * \n     */\n    receive() external payable {\n        // \n        emit Deposit(msg.sender, msg.value);\n    }\n\n    /**\n     * \n     * @param _to \n     * @param _value \n     * @param _data \n     */\n    function submit(\n        address _to,\n        uint256 _value,\n        bytes calldata _data\n    ) external onlyOwner {\n        // Transaction\n        transactions.push(\n            Transaction({to: _to, value: _value, data: _data, executed: false})\n        );\n        // \n        emit Submit(transactions.length - 1);\n    }\n\n    /**\n     * ID\n     * @param _txId ID\n     */\n    function approve(uint256 _txId)\n        external\n        onlyOwner\n        txExists(_txId)\n        notApproved(_txId)\n        notExecuted(_txId)\n    {\n        // \n        approved[_txId][msg.sender] = true;\n        // \n        emit Approve(msg.sender, _txId);\n    }\n\n    /**\n     * ID\n     * @param _txId ID\n     */\n    function _getApprovalCount(uint256 _txId)\n        public\n        view\n        returns (uint256 count)\n    {\n        // \n        for (uint256 i; i < owners.length; i++) {\n            // count\n            if (approved[_txId][owners[i]]) {\n                count += 1;\n            }\n        }\n    }\n\n    /**\n     * \n     * @param _txId ID\n     */\n    function execute(uint256 _txId)\n        external\n        payable\n        txExists(_txId)\n        notExecuted(_txId)\n    {\n        // \n        require(_getApprovalCount(_txId) >= required, \"approvals < required\");\n        // \n        Transaction storage transaction = transactions[_txId];\n        // \n        transaction.executed = true;\n        // \n        (bool success, ) = payable(transaction.to).call{\n            value: transaction.value\n        }(transaction.data);\n        // \n        require(success, \"tx failid\");\n        // \n        emit Execute(_txId);\n    }\n\n    /**\n     * \n     * @param _txId ID\n     */\n    function revoke(uint256 _txId)\n        external\n        onlyOwner\n        txExists(_txId)\n        notExecuted(_txId)\n    {\n        // \n        require(approved[_txId][msg.sender] = true);\n        // \n        approved[_txId][msg.sender] = false;\n        // \n        emit Revoke(msg.sender, _txId);\n    }\n\n    /**\n     * \n     */\n    function getName() public view returns (string memory) {\n        return walletName;\n    }\n\n    /**\n     * \n     */\n    function getRequired() public view returns (uint256) {\n        return required;\n    }\n\n    /**\n     * owner\n     */\n    function getOwnersCount() public view returns (uint256) {\n        return owners.length;\n    }\n\n    /**\n     * \n     */\n    function getTxs() public view returns (Transaction[] memory) {\n        return transactions;\n    }\n}\n",
  "sourcePath": "/Users/harukikondo/git/Web3Wallet/packages/backend/contracts/Wallet/MultiSigWallet.sol",
  "compiler": {
    "name": "solc",
    "version": "0.8.10+commit.fc410830.Emscripten.clang"
  },
  "schemaVersion": "3.4.13",
  "updatedAt": "2023-04-01T07:55:25.507Z",
  "devdoc": {
    "kind": "dev",
    "methods": {
      "_getApprovalCount(uint256)": {
        "params": {
          "_txId": "ID"
        }
      },
      "approve(uint256)": {
        "params": {
          "_txId": "ID"
        }
      },
      "constructor": {
        "params": {
          "_name": "",
          "_owners": "owner",
          "_required": ""
        }
      },
      "execute(uint256)": {
        "params": {
          "_txId": "ID"
        }
      },
      "revoke(uint256)": {
        "params": {
          "_txId": "ID"
        }
      },
      "submit(address,uint256,bytes)": {
        "params": {
          "_data": "",
          "_to": "",
          "_value": ""
        }
      }
    },
    "version": 1
  },
  "userdoc": {
    "kind": "user",
    "methods": {
      "_getApprovalCount(uint256)": {
        "notice": "ID"
      },
      "approve(uint256)": {
        "notice": "ID"
      },
      "constructor": {
        "notice": ""
      },
      "execute(uint256)": {
        "notice": ""
      },
      "getName()": {
        "notice": ""
      },
      "getOwnersCount()": {
        "notice": "owner"
      },
      "getRequired()": {
        "notice": ""
      },
      "getTxs()": {
        "notice": ""
      },
      "revoke(uint256)": {
        "notice": ""
      },
      "submit(address,uint256,bytes)": {
        "notice": ""
      }
    },
    "notice": "MultiSigWallet",
    "version": 1
  }
}