{
  "contractName": "MyToken",
  "abi": [
    {
      "inputs": [
        {
          "internalType": "string",
          "name": "_name",
          "type": "string"
        },
        {
          "internalType": "string",
          "name": "_symbol",
          "type": "string"
        }
      ],
      "stateMutability": "nonpayable",
      "type": "constructor"
    },
    {
      "anonymous": false,
      "inputs": [
        {
          "indexed": true,
          "internalType": "address",
          "name": "owner",
          "type": "address"
        },
        {
          "indexed": true,
          "internalType": "address",
          "name": "spender",
          "type": "address"
        },
        {
          "indexed": false,
          "internalType": "uint256",
          "name": "value",
          "type": "uint256"
        }
      ],
      "name": "Approval",
      "type": "event"
    },
    {
      "anonymous": false,
      "inputs": [
        {
          "indexed": true,
          "internalType": "address",
          "name": "delegator",
          "type": "address"
        },
        {
          "indexed": true,
          "internalType": "address",
          "name": "fromDelegate",
          "type": "address"
        },
        {
          "indexed": true,
          "internalType": "address",
          "name": "toDelegate",
          "type": "address"
        }
      ],
      "name": "DelegateChanged",
      "type": "event"
    },
    {
      "anonymous": false,
      "inputs": [
        {
          "indexed": true,
          "internalType": "address",
          "name": "delegate",
          "type": "address"
        },
        {
          "indexed": false,
          "internalType": "uint256",
          "name": "previousBalance",
          "type": "uint256"
        },
        {
          "indexed": false,
          "internalType": "uint256",
          "name": "newBalance",
          "type": "uint256"
        }
      ],
      "name": "DelegateVotesChanged",
      "type": "event"
    },
    {
      "anonymous": false,
      "inputs": [
        {
          "indexed": true,
          "internalType": "address",
          "name": "previousOwner",
          "type": "address"
        },
        {
          "indexed": true,
          "internalType": "address",
          "name": "newOwner",
          "type": "address"
        }
      ],
      "name": "OwnershipTransferred",
      "type": "event"
    },
    {
      "anonymous": false,
      "inputs": [
        {
          "indexed": false,
          "internalType": "address",
          "name": "account",
          "type": "address"
        }
      ],
      "name": "Paused",
      "type": "event"
    },
    {
      "anonymous": false,
      "inputs": [
        {
          "indexed": true,
          "internalType": "address",
          "name": "from",
          "type": "address"
        },
        {
          "indexed": true,
          "internalType": "address",
          "name": "to",
          "type": "address"
        },
        {
          "indexed": false,
          "internalType": "uint256",
          "name": "value",
          "type": "uint256"
        }
      ],
      "name": "Transfer",
      "type": "event"
    },
    {
      "anonymous": false,
      "inputs": [
        {
          "indexed": false,
          "internalType": "address",
          "name": "account",
          "type": "address"
        }
      ],
      "name": "Unpaused",
      "type": "event"
    },
    {
      "inputs": [],
      "name": "DOMAIN_SEPARATOR",
      "outputs": [
        {
          "internalType": "bytes32",
          "name": "",
          "type": "bytes32"
        }
      ],
      "stateMutability": "view",
      "type": "function",
      "constant": true
    },
    {
      "inputs": [
        {
          "internalType": "address",
          "name": "owner",
          "type": "address"
        },
        {
          "internalType": "address",
          "name": "spender",
          "type": "address"
        }
      ],
      "name": "allowance",
      "outputs": [
        {
          "internalType": "uint256",
          "name": "",
          "type": "uint256"
        }
      ],
      "stateMutability": "view",
      "type": "function",
      "constant": true
    },
    {
      "inputs": [
        {
          "internalType": "address",
          "name": "spender",
          "type": "address"
        },
        {
          "internalType": "uint256",
          "name": "amount",
          "type": "uint256"
        }
      ],
      "name": "approve",
      "outputs": [
        {
          "internalType": "bool",
          "name": "",
          "type": "bool"
        }
      ],
      "stateMutability": "nonpayable",
      "type": "function"
    },
    {
      "inputs": [
        {
          "internalType": "address",
          "name": "account",
          "type": "address"
        }
      ],
      "name": "balanceOf",
      "outputs": [
        {
          "internalType": "uint256",
          "name": "",
          "type": "uint256"
        }
      ],
      "stateMutability": "view",
      "type": "function",
      "constant": true
    },
    {
      "inputs": [
        {
          "internalType": "uint256",
          "name": "amount",
          "type": "uint256"
        }
      ],
      "name": "burn",
      "outputs": [],
      "stateMutability": "nonpayable",
      "type": "function"
    },
    {
      "inputs": [
        {
          "internalType": "address",
          "name": "account",
          "type": "address"
        },
        {
          "internalType": "uint256",
          "name": "amount",
          "type": "uint256"
        }
      ],
      "name": "burnFrom",
      "outputs": [],
      "stateMutability": "nonpayable",
      "type": "function"
    },
    {
      "inputs": [
        {
          "internalType": "address",
          "name": "account",
          "type": "address"
        },
        {
          "internalType": "uint32",
          "name": "pos",
          "type": "uint32"
        }
      ],
      "name": "checkpoints",
      "outputs": [
        {
          "components": [
            {
              "internalType": "uint32",
              "name": "fromBlock",
              "type": "uint32"
            },
            {
              "internalType": "uint224",
              "name": "votes",
              "type": "uint224"
            }
          ],
          "internalType": "struct ERC20Votes.Checkpoint",
          "name": "",
          "type": "tuple"
        }
      ],
      "stateMutability": "view",
      "type": "function",
      "constant": true
    },
    {
      "inputs": [],
      "name": "decimals",
      "outputs": [
        {
          "internalType": "uint8",
          "name": "",
          "type": "uint8"
        }
      ],
      "stateMutability": "view",
      "type": "function",
      "constant": true
    },
    {
      "inputs": [
        {
          "internalType": "address",
          "name": "spender",
          "type": "address"
        },
        {
          "internalType": "uint256",
          "name": "subtractedValue",
          "type": "uint256"
        }
      ],
      "name": "decreaseAllowance",
      "outputs": [
        {
          "internalType": "bool",
          "name": "",
          "type": "bool"
        }
      ],
      "stateMutability": "nonpayable",
      "type": "function"
    },
    {
      "inputs": [
        {
          "internalType": "address",
          "name": "delegatee",
          "type": "address"
        }
      ],
      "name": "delegate",
      "outputs": [],
      "stateMutability": "nonpayable",
      "type": "function"
    },
    {
      "inputs": [
        {
          "internalType": "address",
          "name": "delegatee",
          "type": "address"
        },
        {
          "internalType": "uint256",
          "name": "nonce",
          "type": "uint256"
        },
        {
          "internalType": "uint256",
          "name": "expiry",
          "type": "uint256"
        },
        {
          "internalType": "uint8",
          "name": "v",
          "type": "uint8"
        },
        {
          "internalType": "bytes32",
          "name": "r",
          "type": "bytes32"
        },
        {
          "internalType": "bytes32",
          "name": "s",
          "type": "bytes32"
        }
      ],
      "name": "delegateBySig",
      "outputs": [],
      "stateMutability": "nonpayable",
      "type": "function"
    },
    {
      "inputs": [
        {
          "internalType": "address",
          "name": "account",
          "type": "address"
        }
      ],
      "name": "delegates",
      "outputs": [
        {
          "internalType": "address",
          "name": "",
          "type": "address"
        }
      ],
      "stateMutability": "view",
      "type": "function",
      "constant": true
    },
    {
      "inputs": [
        {
          "internalType": "uint256",
          "name": "blockNumber",
          "type": "uint256"
        }
      ],
      "name": "getPastTotalSupply",
      "outputs": [
        {
          "internalType": "uint256",
          "name": "",
          "type": "uint256"
        }
      ],
      "stateMutability": "view",
      "type": "function",
      "constant": true
    },
    {
      "inputs": [
        {
          "internalType": "address",
          "name": "account",
          "type": "address"
        },
        {
          "internalType": "uint256",
          "name": "blockNumber",
          "type": "uint256"
        }
      ],
      "name": "getPastVotes",
      "outputs": [
        {
          "internalType": "uint256",
          "name": "",
          "type": "uint256"
        }
      ],
      "stateMutability": "view",
      "type": "function",
      "constant": true
    },
    {
      "inputs": [
        {
          "internalType": "address",
          "name": "account",
          "type": "address"
        }
      ],
      "name": "getVotes",
      "outputs": [
        {
          "internalType": "uint256",
          "name": "",
          "type": "uint256"
        }
      ],
      "stateMutability": "view",
      "type": "function",
      "constant": true
    },
    {
      "inputs": [
        {
          "internalType": "address",
          "name": "spender",
          "type": "address"
        },
        {
          "internalType": "uint256",
          "name": "addedValue",
          "type": "uint256"
        }
      ],
      "name": "increaseAllowance",
      "outputs": [
        {
          "internalType": "bool",
          "name": "",
          "type": "bool"
        }
      ],
      "stateMutability": "nonpayable",
      "type": "function"
    },
    {
      "inputs": [],
      "name": "name",
      "outputs": [
        {
          "internalType": "string",
          "name": "",
          "type": "string"
        }
      ],
      "stateMutability": "view",
      "type": "function",
      "constant": true
    },
    {
      "inputs": [
        {
          "internalType": "address",
          "name": "owner",
          "type": "address"
        }
      ],
      "name": "nonces",
      "outputs": [
        {
          "internalType": "uint256",
          "name": "",
          "type": "uint256"
        }
      ],
      "stateMutability": "view",
      "type": "function",
      "constant": true
    },
    {
      "inputs": [
        {
          "internalType": "address",
          "name": "account",
          "type": "address"
        }
      ],
      "name": "numCheckpoints",
      "outputs": [
        {
          "internalType": "uint32",
          "name": "",
          "type": "uint32"
        }
      ],
      "stateMutability": "view",
      "type": "function",
      "constant": true
    },
    {
      "inputs": [],
      "name": "owner",
      "outputs": [
        {
          "internalType": "address",
          "name": "",
          "type": "address"
        }
      ],
      "stateMutability": "view",
      "type": "function",
      "constant": true
    },
    {
      "inputs": [],
      "name": "paused",
      "outputs": [
        {
          "internalType": "bool",
          "name": "",
          "type": "bool"
        }
      ],
      "stateMutability": "view",
      "type": "function",
      "constant": true
    },
    {
      "inputs": [
        {
          "internalType": "address",
          "name": "owner",
          "type": "address"
        },
        {
          "internalType": "address",
          "name": "spender",
          "type": "address"
        },
        {
          "internalType": "uint256",
          "name": "value",
          "type": "uint256"
        },
        {
          "internalType": "uint256",
          "name": "deadline",
          "type": "uint256"
        },
        {
          "internalType": "uint8",
          "name": "v",
          "type": "uint8"
        },
        {
          "internalType": "bytes32",
          "name": "r",
          "type": "bytes32"
        },
        {
          "internalType": "bytes32",
          "name": "s",
          "type": "bytes32"
        }
      ],
      "name": "permit",
      "outputs": [],
      "stateMutability": "nonpayable",
      "type": "function"
    },
    {
      "inputs": [],
      "name": "renounceOwnership",
      "outputs": [],
      "stateMutability": "nonpayable",
      "type": "function"
    },
    {
      "inputs": [],
      "name": "symbol",
      "outputs": [
        {
          "internalType": "string",
          "name": "",
          "type": "string"
        }
      ],
      "stateMutability": "view",
      "type": "function",
      "constant": true
    },
    {
      "inputs": [],
      "name": "totalSupply",
      "outputs": [
        {
          "internalType": "uint256",
          "name": "",
          "type": "uint256"
        }
      ],
      "stateMutability": "view",
      "type": "function",
      "constant": true
    },
    {
      "inputs": [
        {
          "internalType": "address",
          "name": "to",
          "type": "address"
        },
        {
          "internalType": "uint256",
          "name": "amount",
          "type": "uint256"
        }
      ],
      "name": "transfer",
      "outputs": [
        {
          "internalType": "bool",
          "name": "",
          "type": "bool"
        }
      ],
      "stateMutability": "nonpayable",
      "type": "function"
    },
    {
      "inputs": [
        {
          "internalType": "address",
          "name": "from",
          "type": "address"
        },
        {
          "internalType": "address",
          "name": "to",
          "type": "address"
        },
        {
          "internalType": "uint256",
          "name": "amount",
          "type": "uint256"
        }
      ],
      "name": "transferFrom",
      "outputs": [
        {
          "internalType": "bool",
          "name": "",
          "type": "bool"
        }
      ],
      "stateMutability": "nonpayable",
      "type": "function"
    },
    {
      "inputs": [
        {
          "internalType": "address",
          "name": "newOwner",
          "type": "address"
        }
      ],
      "name": "transferOwnership",
      "outputs": [],
      "stateMutability": "nonpayable",
      "type": "function"
    },
    {
      "inputs": [],
      "name": "pause",
      "outputs": [],
      "stateMutability": "nonpayable",
      "type": "function"
    },
    {
      "inputs": [],
      "name": "unpause",
      "outputs": [],
      "stateMutability": "nonpayable",
      "type": "function"
    },
    {
      "inputs": [
        {
          "internalType": "address",
          "name": "to",
          "type": "address"
        },
        {
          "internalType": "uint256",
          "name": "amount",
          "type": "uint256"
        }
      ],
      "name": "mint",
      "outputs": [],
      "stateMutability": "nonpayable",
      "type": "function"
    },
    {
      "inputs": [
        {
          "internalType": "address",
          "name": "to",
          "type": "address"
        },
        {
          "internalType": "uint256",
          "name": "amount",
          "type": "uint256"
        }
      ],
      "name": "burnToken",
      "outputs": [],
      "stateMutability": "nonpayable",
      "type": "function"
    }
  ],
  "bytecode": "0x6101406040523480156200001257600080fd5b5060405162004b0438038062004b048339818101604052810190620000389190620003fd565b81806040518060400160405280600181526020017f3100000000000000000000000000000000000000000000000000000000000000815250848481600390805190602001906200008a929190620002db565b508060049080519060200190620000a3929190620002db565b5050506000600560006101000a81548160ff021916908315150217905550620000e1620000d5620001d160201b60201c565b620001d960201b60201c565b60008280519060200120905060008280519060200120905060007f8b73c3c69bb8fe3d512ecc4cf759cc79239f7b179b0ffacaa9a75d522b39400f90508260e081815250508161010081815250504660a081815250506200014a8184846200029f60201b60201c565b608081815250503073ffffffffffffffffffffffffffffffffffffffff1660c08173ffffffffffffffffffffffffffffffffffffffff1660601b8152505080610120818152505050505050505081600b9080519060200190620001af929190620002db565b5080600c9080519060200190620001c8929190620002db565b50505062000679565b600033905090565b6000600560019054906101000a900473ffffffffffffffffffffffffffffffffffffffff16905081600560016101000a81548173ffffffffffffffffffffffffffffffffffffffff021916908373ffffffffffffffffffffffffffffffffffffffff1602179055508173ffffffffffffffffffffffffffffffffffffffff168173ffffffffffffffffffffffffffffffffffffffff167f8be0079c531659141344cd1fd0a4f28419497f9722a3daafe3b4186f6b6457e060405160405180910390a35050565b60008383834630604051602001620002bc959493929190620004a3565b6040516020818303038152906040528051906020012090509392505050565b828054620002e990620005e5565b90600052602060002090601f0160209004810192826200030d576000855562000359565b82601f106200032857805160ff191683800117855562000359565b8280016001018555821562000359579182015b82811115620003585782518255916020019190600101906200033b565b5b5090506200036891906200036c565b5090565b5b80821115620003875760008160009055506001016200036d565b5090565b6000620003a26200039c8462000534565b62000500565b905082815260208101848484011115620003bb57600080fd5b620003c8848285620005af565b509392505050565b600082601f830112620003e257600080fd5b8151620003f48482602086016200038b565b91505092915050565b600080604083850312156200041157600080fd5b600083015167ffffffffffffffff8111156200042c57600080fd5b6200043a85828601620003d0565b925050602083015167ffffffffffffffff8111156200045857600080fd5b6200046685828601620003d0565b9150509250929050565b6200047b8162000567565b82525050565b6200048c816200057b565b82525050565b6200049d81620005a5565b82525050565b600060a082019050620004ba600083018862000481565b620004c9602083018762000481565b620004d8604083018662000481565b620004e7606083018562000492565b620004f6608083018462000470565b9695505050505050565b6000604051905081810181811067ffffffffffffffff821117156200052a57620005296200064a565b5b8060405250919050565b600067ffffffffffffffff8211156200055257620005516200064a565b5b601f19601f8301169050602081019050919050565b6000620005748262000585565b9050919050565b6000819050919050565b600073ffffffffffffffffffffffffffffffffffffffff82169050919050565b6000819050919050565b60005b83811015620005cf578082015181840152602081019050620005b2565b83811115620005df576000848401525b50505050565b60006002820490506001821680620005fe57607f821691505b602082108114156200061557620006146200061b565b5b50919050565b7f4e487b7100000000000000000000000000000000000000000000000000000000600052602260045260246000fd5b7f4e487b7100000000000000000000000000000000000000000000000000000000600052604160045260246000fd5b60805160a05160c05160601c60e0516101005161012051614438620006cc600039600061173d0152600061177f0152600061175e01526000611693015260006116e90152600061171201526144386000f3fe608060405234801561001057600080fd5b50600436106101f05760003560e01c8063715018a61161010f578063a457c2d7116100a2578063d505accf11610071578063d505accf146105cd578063dd62ed3e146105e9578063f1127ed814610619578063f2fde38b14610649576101f0565b8063a457c2d714610535578063a9059cbb14610565578063c3cda52014610595578063d1df306c146105b1576101f0565b80638da5cb5b116100de5780638da5cb5b146104995780638e539e8c146104b757806395d89b41146104e75780639ab24eb014610505576101f0565b8063715018a61461043957806379cc6790146104435780637ecebe001461045f5780638456cb591461048f576101f0565b80633f4ba83a116101875780635c19a95c116101565780635c19a95c1461039f5780635c975abb146103bb5780636fcfff45146103d957806370a0823114610409576101f0565b80633f4ba83a1461032d57806340c10f191461033757806342966c6814610353578063587cde1e1461036f576101f0565b8063313ce567116101c3578063313ce567146102915780633644e515146102af57806339509351146102cd5780633a46b1a8146102fd576101f0565b806306fdde03146101f5578063095ea7b31461021357806318160ddd1461024357806323b872dd14610261575b600080fd5b6101fd610665565b60405161020a9190613d32565b60405180910390f35b61022d600480360381019061022891906130dd565b6106f7565b60405161023a9190613bbe565b60405180910390f35b61024b61071a565b604051610258919061408f565b60405180910390f35b61027b60048036038101906102769190612ff0565b610724565b6040516102889190613bbe565b60405180910390f35b610299610753565b6040516102a691906140ee565b60405180910390f35b6102b761075c565b6040516102c49190613bd9565b60405180910390f35b6102e760048036038101906102e291906130dd565b61076b565b6040516102f49190613bbe565b60405180910390f35b610317600480360381019061031291906130dd565b6107a2565b604051610324919061408f565b60405180910390f35b610335610836565b005b610351600480360381019061034c91906130dd565b610848565b005b61036d600480360381019061036891906131de565b61085e565b005b61038960048036038101906103849190612f8b565b610872565b6040516103969190613ba3565b60405180910390f35b6103b960048036038101906103b49190612f8b565b6108db565b005b6103c36108ef565b6040516103d09190613bbe565b60405180910390f35b6103f360048036038101906103ee9190612f8b565b610906565b60405161040091906140d3565b60405180910390f35b610423600480360381019061041e9190612f8b565b61095a565b604051610430919061408f565b60405180910390f35b6104416109a2565b005b61045d600480360381019061045891906130dd565b6109b6565b005b61047960048036038101906104749190612f8b565b6109d6565b604051610486919061408f565b60405180910390f35b610497610a26565b005b6104a1610a38565b6040516104ae9190613ba3565b60405180910390f35b6104d160048036038101906104cc91906131de565b610a62565b6040516104de919061408f565b60405180910390f35b6104ef610ab8565b6040516104fc9190613d32565b60405180910390f35b61051f600480360381019061051a9190612f8b565b610b4a565b60405161052c919061408f565b60405180910390f35b61054f600480360381019061054a91906130dd565b610c81565b60405161055c9190613bbe565b60405180910390f35b61057f600480360381019061057a91906130dd565b610cf8565b60405161058c9190613bbe565b60405180910390f35b6105af60048036038101906105aa9190613119565b610d1b565b005b6105cb60048036038101906105c691906130dd565b610e1f565b005b6105e760048036038101906105e2919061303f565b610e35565b005b61060360048036038101906105fe9190612fb4565b610f77565b604051610610919061408f565b60405180910390f35b610633600480360381019061062e91906131a2565b610ffe565b6040516106409190614074565b60405180910390f35b610663600480360381019061065e9190612f8b565b611134565b005b606060038054610674906142b5565b80601f01602080910402602001604051908101604052809291908181526020018280546106a0906142b5565b80156106ed5780601f106106c2576101008083540402835291602001916106ed565b820191906000526020600020905b8154815290600101906020018083116106d057829003601f168201915b5050505050905090565b6000806107026111b8565b905061070f8185856111c0565b600191505092915050565b6000600254905090565b60008061072f6111b8565b905061073c85828561138b565b610747858585611417565b60019150509392505050565b60006012905090565b600061076661168f565b905090565b6000806107766111b8565b90506107978185856107888589610f77565b6107929190614130565b6111c0565b600191505092915050565b60004382106107e6576040517f08c379a00000000000000000000000000000000000000000000000000000000081526004016107dd90613d94565b60405180910390fd5b61082e600960008573ffffffffffffffffffffffffffffffffffffffff1673ffffffffffffffffffffffffffffffffffffffff168152602001908152602001600020836117a9565b905092915050565b61083e6118fa565b610846611978565b565b6108506118fa565b61085a82826119db565b5050565b61086f6108696111b8565b826119e9565b50565b6000600860008373ffffffffffffffffffffffffffffffffffffffff1673ffffffffffffffffffffffffffffffffffffffff16815260200190815260200160002060009054906101000a900473ffffffffffffffffffffffffffffffffffffffff169050919050565b6108ec6108e66111b8565b826119f7565b50565b6000600560009054906101000a900460ff16905090565b6000610953600960008473ffffffffffffffffffffffffffffffffffffffff1673ffffffffffffffffffffffffffffffffffffffff16815260200190815260200160002080549050611b11565b9050919050565b60008060008373ffffffffffffffffffffffffffffffffffffffff1673ffffffffffffffffffffffffffffffffffffffff168152602001908152602001600020549050919050565b6109aa6118fa565b6109b46000611b64565b565b6109c8826109c26111b8565b8361138b565b6109d282826119e9565b5050565b6000610a1f600660008473ffffffffffffffffffffffffffffffffffffffff1673ffffffffffffffffffffffffffffffffffffffff168152602001908152602001600020611c2a565b9050919050565b610a2e6118fa565b610a36611c38565b565b6000600560019054906101000a900473ffffffffffffffffffffffffffffffffffffffff16905090565b6000438210610aa6576040517f08c379a0000000000000000000000000000000000000000000000000000000008152600401610a9d90613d94565b60405180910390fd5b610ab1600a836117a9565b9050919050565b606060048054610ac7906142b5565b80601f0160208091040260200160405190810160405280929190818152602001828054610af3906142b5565b8015610b405780601f10610b1557610100808354040283529160200191610b40565b820191906000526020600020905b815481529060010190602001808311610b2357829003601f168201915b5050505050905090565b600080600960008473ffffffffffffffffffffffffffffffffffffffff1673ffffffffffffffffffffffffffffffffffffffff16815260200190815260200160002080549050905060008114610c5857600960008473ffffffffffffffffffffffffffffffffffffffff1673ffffffffffffffffffffffffffffffffffffffff168152602001908152602001600020600182610be691906141b7565b81548110610c1d577f4e487b7100000000000000000000000000000000000000000000000000000000600052603260045260246000fd5b9060005260206000200160000160049054906101000a90047bffffffffffffffffffffffffffffffffffffffffffffffffffffffff16610c5b565b60005b7bffffffffffffffffffffffffffffffffffffffffffffffffffffffff16915050919050565b600080610c8c6111b8565b90506000610c9a8286610f77565b905083811015610cdf576040517f08c379a0000000000000000000000000000000000000000000000000000000008152600401610cd690614034565b60405180910390fd5b610cec82868684036111c0565b60019250505092915050565b600080610d036111b8565b9050610d10818585611417565b600191505092915050565b83421115610d5e576040517f08c379a0000000000000000000000000000000000000000000000000000000008152600401610d5590613dd4565b60405180910390fd5b6000610dc0610db87fe48329057bfd03d55e49b547132e39cffd9c1820ad7b9d4c5307691425d15adf898989604051602001610d9d9493929190613c55565b60405160208183030381529060405280519060200120611c9b565b858585611cb5565b9050610dcb81611ce0565b8614610e0c576040517f08c379a0000000000000000000000000000000000000000000000000000000008152600401610e0390613e34565b60405180910390fd5b610e1681886119f7565b50505050505050565b610e276118fa565b610e3182826119e9565b5050565b83421115610e78576040517f08c379a0000000000000000000000000000000000000000000000000000000008152600401610e6f90613eb4565b60405180910390fd5b60007f6e71edae12b1b97f4d1f60370fef10105fa2faae0126114a169c64845d6126c9888888610ea78c611ce0565b89604051602001610ebd96959493929190613bf4565b6040516020818303038152906040528051906020012090506000610ee082611c9b565b90506000610ef082878787611cb5565b90508973ffffffffffffffffffffffffffffffffffffffff168173ffffffffffffffffffffffffffffffffffffffff1614610f60576040517f08c379a0000000000000000000000000000000000000000000000000000000008152600401610f5790613f34565b60405180910390fd5b610f6b8a8a8a6111c0565b50505050505050505050565b6000600160008473ffffffffffffffffffffffffffffffffffffffff1673ffffffffffffffffffffffffffffffffffffffff16815260200190815260200160002060008373ffffffffffffffffffffffffffffffffffffffff1673ffffffffffffffffffffffffffffffffffffffff16815260200190815260200160002054905092915050565b611006612ee4565b600960008473ffffffffffffffffffffffffffffffffffffffff1673ffffffffffffffffffffffffffffffffffffffff1681526020019081526020016000208263ffffffff1681548110611083577f4e487b7100000000000000000000000000000000000000000000000000000000600052603260045260246000fd5b906000526020600020016040518060400160405290816000820160009054906101000a900463ffffffff1663ffffffff1663ffffffff1681526020016000820160049054906101000a90047bffffffffffffffffffffffffffffffffffffffffffffffffffffffff167bffffffffffffffffffffffffffffffffffffffffffffffffffffffff167bffffffffffffffffffffffffffffffffffffffffffffffffffffffff1681525050905092915050565b61113c6118fa565b600073ffffffffffffffffffffffffffffffffffffffff168173ffffffffffffffffffffffffffffffffffffffff1614156111ac576040517f08c379a00000000000000000000000000000000000000000000000000000000081526004016111a390613e54565b60405180910390fd5b6111b581611b64565b50565b600033905090565b600073ffffffffffffffffffffffffffffffffffffffff168373ffffffffffffffffffffffffffffffffffffffff161415611230576040517f08c379a000000000000000000000000000000000000000000000000000000000815260040161122790614014565b60405180910390fd5b600073ffffffffffffffffffffffffffffffffffffffff168273ffffffffffffffffffffffffffffffffffffffff1614156112a0576040517f08c379a000000000000000000000000000000000000000000000000000000000815260040161129790613e74565b60405180910390fd5b80600160008573ffffffffffffffffffffffffffffffffffffffff1673ffffffffffffffffffffffffffffffffffffffff16815260200190815260200160002060008473ffffffffffffffffffffffffffffffffffffffff1673ffffffffffffffffffffffffffffffffffffffff168152602001908152602001600020819055508173ffffffffffffffffffffffffffffffffffffffff168373ffffffffffffffffffffffffffffffffffffffff167f8c5be1e5ebec7d5bd14f71427d1e84f3dd0314c0f7b2291e5b200ac8c7c3b9258360405161137e919061408f565b60405180910390a3505050565b60006113978484610f77565b90507fffffffffffffffffffffffffffffffffffffffffffffffffffffffffffffffff81146114115781811015611403576040517f08c379a00000000000000000000000000000000000000000000000000000000081526004016113fa90613e94565b60405180910390fd5b61141084848484036111c0565b5b50505050565b600073ffffffffffffffffffffffffffffffffffffffff168373ffffffffffffffffffffffffffffffffffffffff161415611487576040517f08c379a000000000000000000000000000000000000000000000000000000000815260040161147e90613fd4565b60405180910390fd5b600073ffffffffffffffffffffffffffffffffffffffff168273ffffffffffffffffffffffffffffffffffffffff1614156114f7576040517f08c379a00000000000000000000000000000000000000000000000000000000081526004016114ee90613d74565b60405180910390fd5b611502838383611d3e565b60008060008573ffffffffffffffffffffffffffffffffffffffff1673ffffffffffffffffffffffffffffffffffffffff16815260200190815260200160002054905081811015611588576040517f08c379a000000000000000000000000000000000000000000000000000000000815260040161157f90613ed4565b60405180910390fd5b8181036000808673ffffffffffffffffffffffffffffffffffffffff1673ffffffffffffffffffffffffffffffffffffffff16815260200190815260200160002081905550816000808573ffffffffffffffffffffffffffffffffffffffff1673ffffffffffffffffffffffffffffffffffffffff168152602001908152602001600020600082825401925050819055508273ffffffffffffffffffffffffffffffffffffffff168473ffffffffffffffffffffffffffffffffffffffff167fddf252ad1be2c89b69c2b068fc378daa952ba7f163c4a11628f55a4df523b3ef84604051611676919061408f565b60405180910390a3611689848484611d56565b50505050565b60007f000000000000000000000000000000000000000000000000000000000000000073ffffffffffffffffffffffffffffffffffffffff163073ffffffffffffffffffffffffffffffffffffffff1614801561170b57507f000000000000000000000000000000000000000000000000000000000000000046145b15611738577f000000000000000000000000000000000000000000000000000000000000000090506117a6565b6117a37f00000000000000000000000000000000000000000000000000000000000000007f00000000000000000000000000000000000000000000000000000000000000007f0000000000000000000000000000000000000000000000000000000000000000611d66565b90505b90565b60008083805490509050600080829050600583111561181f5760006117cd84611da0565b846117d891906141b7565b9050856117e58883611fca565b60000160009054906101000a900463ffffffff1663ffffffff16111561180d5780915061181d565b60018161181a9190614130565b92505b505b5b8082101561187f5760006118348383611fdf565b9050856118418883611fca565b60000160009054906101000a900463ffffffff1663ffffffff16111561186957809150611879565b6001816118769190614130565b92505b50611820565b600081146118ce5761189d8660018361189891906141b7565b611fca565b60000160049054906101000a90047bffffffffffffffffffffffffffffffffffffffffffffffffffffffff166118d1565b60005b7bffffffffffffffffffffffffffffffffffffffffffffffffffffffff16935050505092915050565b6119026111b8565b73ffffffffffffffffffffffffffffffffffffffff16611920610a38565b73ffffffffffffffffffffffffffffffffffffffff1614611976576040517f08c379a000000000000000000000000000000000000000000000000000000000815260040161196d90613f74565b60405180910390fd5b565b611980612005565b6000600560006101000a81548160ff0219169083151502179055507f5db9ee0a495bf2e6ff9c91a7834c1ba4fdd244a5e8aa4e537bd38aeae4b073aa6119c46111b8565b6040516119d19190613ba3565b60405180910390a1565b6119e5828261204e565b5050565b6119f382826120db565b5050565b6000611a0283610872565b90506000611a0f8461095a565b905082600860008673ffffffffffffffffffffffffffffffffffffffff1673ffffffffffffffffffffffffffffffffffffffff16815260200190815260200160002060006101000a81548173ffffffffffffffffffffffffffffffffffffffff021916908373ffffffffffffffffffffffffffffffffffffffff1602179055508273ffffffffffffffffffffffffffffffffffffffff168273ffffffffffffffffffffffffffffffffffffffff168573ffffffffffffffffffffffffffffffffffffffff167f3134e8a2e6d97e929a7e54011ea5485d7d196dd5f0ba4d4ef95803e8e3fc257f60405160405180910390a4611b0b8284836120f9565b50505050565b600063ffffffff8016821115611b5c576040517f08c379a0000000000000000000000000000000000000000000000000000000008152600401611b5390613ff4565b60405180910390fd5b819050919050565b6000600560019054906101000a900473ffffffffffffffffffffffffffffffffffffffff16905081600560016101000a81548173ffffffffffffffffffffffffffffffffffffffff021916908373ffffffffffffffffffffffffffffffffffffffff1602179055508173ffffffffffffffffffffffffffffffffffffffff168173ffffffffffffffffffffffffffffffffffffffff167f8be0079c531659141344cd1fd0a4f28419497f9722a3daafe3b4186f6b6457e060405160405180910390a35050565b600081600001549050919050565b611c406122f2565b6001600560006101000a81548160ff0219169083151502179055507f62e78cea01bee320cd4e420270b5ea74000d11b0c9f74754ebdbfc544b05a258611c846111b8565b604051611c919190613ba3565b60405180910390a1565b6000611cae611ca861168f565b8361233c565b9050919050565b6000806000611cc68787878761236f565b91509150611cd381612452565b8192505050949350505050565b600080600660008473ffffffffffffffffffffffffffffffffffffffff1673ffffffffffffffffffffffffffffffffffffffff1681526020019081526020016000209050611d2d81611c2a565b9150611d38816126f0565b50919050565b611d466122f2565b611d51838383612706565b505050565b611d6183838361270b565b505050565b60008383834630604051602001611d81959493929190613c9a565b6040516020818303038152906040528051906020012090509392505050565b600080821415611db35760009050611fc5565b60006001611dc084612736565b901c6001901b90506001818481611e00577f4e487b7100000000000000000000000000000000000000000000000000000000600052601260045260246000fd5b048201901c90506001818481611e3f577f4e487b7100000000000000000000000000000000000000000000000000000000600052601260045260246000fd5b048201901c90506001818481611e7e577f4e487b7100000000000000000000000000000000000000000000000000000000600052601260045260246000fd5b048201901c90506001818481611ebd577f4e487b7100000000000000000000000000000000000000000000000000000000600052601260045260246000fd5b048201901c90506001818481611efc577f4e487b7100000000000000000000000000000000000000000000000000000000600052601260045260246000fd5b048201901c90506001818481611f3b577f4e487b7100000000000000000000000000000000000000000000000000000000600052601260045260246000fd5b048201901c90506001818481611f7a577f4e487b7100000000000000000000000000000000000000000000000000000000600052601260045260246000fd5b048201901c9050611fc181828581611fbb577f4e487b7100000000000000000000000000000000000000000000000000000000600052601260045260246000fd5b04612817565b9150505b919050565b60008260005281602060002001905092915050565b60006002828418611ff09190614186565b828416611ffd9190614130565b905092915050565b61200d6108ef565b61204c576040517f08c379a000000000000000000000000000000000000000000000000000000000815260040161204390613db4565b60405180910390fd5b565b6120588282612830565b612060612987565b7bffffffffffffffffffffffffffffffffffffffffffffffffffffffff1661208661071a565b11156120c7576040517f08c379a00000000000000000000000000000000000000000000000000000000081526004016120be90613f54565b60405180910390fd5b6120d5600a6129ab836129c1565b50505050565b6120e58282612c90565b6120f3600a612e5e836129c1565b50505050565b8173ffffffffffffffffffffffffffffffffffffffff168373ffffffffffffffffffffffffffffffffffffffff16141580156121355750600081115b156122ed57600073ffffffffffffffffffffffffffffffffffffffff168373ffffffffffffffffffffffffffffffffffffffff1614612213576000806121bc600960008773ffffffffffffffffffffffffffffffffffffffff1673ffffffffffffffffffffffffffffffffffffffff168152602001908152602001600020612e5e856129c1565b915091508473ffffffffffffffffffffffffffffffffffffffff167fdec2bacdd2f05b59de34da9b523dff8be42e5e38e818c82fdb0bae774387a72483836040516122089291906140aa565b60405180910390a250505b600073ffffffffffffffffffffffffffffffffffffffff168273ffffffffffffffffffffffffffffffffffffffff16146122ec57600080612295600960008673ffffffffffffffffffffffffffffffffffffffff1673ffffffffffffffffffffffffffffffffffffffff1681526020019081526020016000206129ab856129c1565b915091508373ffffffffffffffffffffffffffffffffffffffff167fdec2bacdd2f05b59de34da9b523dff8be42e5e38e818c82fdb0bae774387a72483836040516122e19291906140aa565b60405180910390a250505b5b505050565b6122fa6108ef565b1561233a576040517f08c379a000000000000000000000000000000000000000000000000000000000815260040161233190613f14565b60405180910390fd5b565b60008282604051602001612351929190613b6c565b60405160208183030381529060405280519060200120905092915050565b6000807f7fffffffffffffffffffffffffffffff5d576e7357a4501ddfe92f46681b20a08360001c11156123aa576000600391509150612449565b6000600187878787604051600081526020016040526040516123cf9493929190613ced565b6020604051602081039080840390855afa1580156123f1573d6000803e3d6000fd5b505050602060405103519050600073ffffffffffffffffffffffffffffffffffffffff168173ffffffffffffffffffffffffffffffffffffffff16141561244057600060019250925050612449565b80600092509250505b94509492505050565b6000600481111561248c577f4e487b7100000000000000000000000000000000000000000000000000000000600052602160045260246000fd5b8160048111156124c5577f4e487b7100000000000000000000000000000000000000000000000000000000600052602160045260246000fd5b14156124d0576126ed565b6001600481111561250a577f4e487b7100000000000000000000000000000000000000000000000000000000600052602160045260246000fd5b816004811115612543577f4e487b7100000000000000000000000000000000000000000000000000000000600052602160045260246000fd5b1415612584576040517f08c379a000000000000000000000000000000000000000000000000000000000815260040161257b90613d54565b60405180910390fd5b600260048111156125be577f4e487b7100000000000000000000000000000000000000000000000000000000600052602160045260246000fd5b8160048111156125f7577f4e487b7100000000000000000000000000000000000000000000000000000000600052602160045260246000fd5b1415612638576040517f08c379a000000000000000000000000000000000000000000000000000000000815260040161262f90613e14565b60405180910390fd5b60036004811115612672577f4e487b7100000000000000000000000000000000000000000000000000000000600052602160045260246000fd5b8160048111156126ab577f4e487b7100000000000000000000000000000000000000000000000000000000600052602160045260246000fd5b14156126ec576040517f08c379a00000000000000000000000000000000000000000000000000000000081526004016126e390613ef4565b60405180910390fd5b5b50565b6001816000016000828254019250508190555050565b505050565b612716838383612e74565b61273161272284610872565b61272b84610872565b836120f9565b505050565b600080600090506000608084901c111561275857608083901c92506080810190505b6000604084901c111561277357604083901c92506040810190505b6000602084901c111561278e57602083901c92506020810190505b6000601084901c11156127a957601083901c92506010810190505b6000600884901c11156127c457600883901c92506008810190505b6000600484901c11156127df57600483901c92506004810190505b6000600284901c11156127fa57600283901c92506002810190505b6000600184901c111561280e576001810190505b80915050919050565b60008183106128265781612828565b825b905092915050565b600073ffffffffffffffffffffffffffffffffffffffff168273ffffffffffffffffffffffffffffffffffffffff1614156128a0576040517f08c379a000000000000000000000000000000000000000000000000000000000815260040161289790614054565b60405180910390fd5b6128ac60008383611d3e565b80600260008282546128be9190614130565b92505081905550806000808473ffffffffffffffffffffffffffffffffffffffff1673ffffffffffffffffffffffffffffffffffffffff168152602001908152602001600020600082825401925050819055508173ffffffffffffffffffffffffffffffffffffffff16600073ffffffffffffffffffffffffffffffffffffffff167fddf252ad1be2c89b69c2b068fc378daa952ba7f163c4a11628f55a4df523b3ef8360405161296f919061408f565b60405180910390a361298360008383611d56565b5050565b60007bffffffffffffffffffffffffffffffffffffffffffffffffffffffff905090565b600081836129b99190614130565b905092915050565b6000806000858054905090506000808214612a90576129ec876001846129e791906141b7565b611fca565b6040518060400160405290816000820160009054906101000a900463ffffffff1663ffffffff1663ffffffff1681526020016000820160049054906101000a90047bffffffffffffffffffffffffffffffffffffffffffffffffffffffff167bffffffffffffffffffffffffffffffffffffffffffffffffffffffff167bffffffffffffffffffffffffffffffffffffffffffffffffffffffff1681525050612acc565b6040518060400160405280600063ffffffff16815260200160007bffffffffffffffffffffffffffffffffffffffffffffffffffffffff168152505b905080602001517bffffffffffffffffffffffffffffffffffffffffffffffffffffffff169350612b0184868863ffffffff16565b9250600082118015612b1c575043816000015163ffffffff16145b15612b9657612b2a83612e79565b612b4088600185612b3b91906141b7565b611fca565b60000160046101000a8154817bffffffffffffffffffffffffffffffffffffffffffffffffffffffff02191690837bffffffffffffffffffffffffffffffffffffffffffffffffffffffff160217905550612c86565b866040518060400160405280612bab43611b11565b63ffffffff168152602001612bbf86612e79565b7bffffffffffffffffffffffffffffffffffffffffffffffffffffffff168152509080600181540180825580915050600190039060005260206000200160009091909190915060008201518160000160006101000a81548163ffffffff021916908363ffffffff16021790555060208201518160000160046101000a8154817bffffffffffffffffffffffffffffffffffffffffffffffffffffffff02191690837bffffffffffffffffffffffffffffffffffffffffffffffffffffffff16021790555050505b5050935093915050565b600073ffffffffffffffffffffffffffffffffffffffff168273ffffffffffffffffffffffffffffffffffffffff161415612d00576040517f08c379a0000000000000000000000000000000000000000000000000000000008152600401612cf790613fb4565b60405180910390fd5b612d0c82600083611d3e565b60008060008473ffffffffffffffffffffffffffffffffffffffff1673ffffffffffffffffffffffffffffffffffffffff16815260200190815260200160002054905081811015612d92576040517f08c379a0000000000000000000000000000000000000000000000000000000008152600401612d8990613df4565b60405180910390fd5b8181036000808573ffffffffffffffffffffffffffffffffffffffff1673ffffffffffffffffffffffffffffffffffffffff1681526020019081526020016000208190555081600260008282540392505081905550600073ffffffffffffffffffffffffffffffffffffffff168373ffffffffffffffffffffffffffffffffffffffff167fddf252ad1be2c89b69c2b068fc378daa952ba7f163c4a11628f55a4df523b3ef84604051612e45919061408f565b60405180910390a3612e5983600084611d56565b505050565b60008183612e6c91906141b7565b905092915050565b505050565b60007bffffffffffffffffffffffffffffffffffffffffffffffffffffffff8016821115612edc576040517f08c379a0000000000000000000000000000000000000000000000000000000008152600401612ed390613f94565b60405180910390fd5b819050919050565b6040518060400160405280600063ffffffff16815260200160007bffffffffffffffffffffffffffffffffffffffffffffffffffffffff1681525090565b600081359050612f318161438f565b92915050565b600081359050612f46816143a6565b92915050565b600081359050612f5b816143bd565b92915050565b600081359050612f70816143d4565b92915050565b600081359050612f85816143eb565b92915050565b600060208284031215612f9d57600080fd5b6000612fab84828501612f22565b91505092915050565b60008060408385031215612fc757600080fd5b6000612fd585828601612f22565b9250506020612fe685828601612f22565b9150509250929050565b60008060006060848603121561300557600080fd5b600061301386828701612f22565b935050602061302486828701612f22565b925050604061303586828701612f4c565b9150509250925092565b600080600080600080600060e0888a03121561305a57600080fd5b60006130688a828b01612f22565b97505060206130798a828b01612f22565b965050604061308a8a828b01612f4c565b955050606061309b8a828b01612f4c565b94505060806130ac8a828b01612f76565b93505060a06130bd8a828b01612f37565b92505060c06130ce8a828b01612f37565b91505092959891949750929550565b600080604083850312156130f057600080fd5b60006130fe85828601612f22565b925050602061310f85828601612f4c565b9150509250929050565b60008060008060008060c0878903121561313257600080fd5b600061314089828a01612f22565b965050602061315189828a01612f4c565b955050604061316289828a01612f4c565b945050606061317389828a01612f76565b935050608061318489828a01612f37565b92505060a061319589828a01612f37565b9150509295509295509295565b600080604083850312156131b557600080fd5b60006131c385828601612f22565b92505060206131d485828601612f61565b9150509250929050565b6000602082840312156131f057600080fd5b60006131fe84828501612f4c565b91505092915050565b613210816141eb565b82525050565b61321f816141fd565b82525050565b61322e81614209565b82525050565b61324561324082614209565b6142e7565b82525050565b600061325682614109565b6132608185614114565b9350613270818560208601614282565b6132798161437e565b840191505092915050565b6000613291601883614114565b91507f45434453413a20696e76616c6964207369676e617475726500000000000000006000830152602082019050919050565b60006132d1602383614114565b91507f45524332303a207472616e7366657220746f20746865207a65726f206164647260008301527f65737300000000000000000000000000000000000000000000000000000000006020830152604082019050919050565b6000613337601f83614114565b91507f4552433230566f7465733a20626c6f636b206e6f7420796574206d696e6564006000830152602082019050919050565b6000613377601483614114565b91507f5061757361626c653a206e6f74207061757365640000000000000000000000006000830152602082019050919050565b60006133b7601d83614114565b91507f4552433230566f7465733a207369676e617475726520657870697265640000006000830152602082019050919050565b60006133f7602283614114565b91507f45524332303a206275726e20616d6f756e7420657863656564732062616c616e60008301527f63650000000000000000000000000000000000000000000000000000000000006020830152604082019050919050565b600061345d601f83614114565b91507f45434453413a20696e76616c6964207369676e6174757265206c656e677468006000830152602082019050919050565b600061349d601983614114565b91507f4552433230566f7465733a20696e76616c6964206e6f6e6365000000000000006000830152602082019050919050565b60006134dd602683614114565b91507f4f776e61626c653a206e6577206f776e657220697320746865207a65726f206160008301527f64647265737300000000000000000000000000000000000000000000000000006020830152604082019050919050565b6000613543602283614114565b91507f45524332303a20617070726f766520746f20746865207a65726f20616464726560008301527f73730000000000000000000000000000000000000000000000000000000000006020830152604082019050919050565b60006135a9600283614125565b91507f19010000000000000000000000000000000000000000000000000000000000006000830152600282019050919050565b60006135e9601d83614114565b91507f45524332303a20696e73756666696369656e7420616c6c6f77616e63650000006000830152602082019050919050565b6000613629601d83614114565b91507f45524332305065726d69743a206578706972656420646561646c696e650000006000830152602082019050919050565b6000613669602683614114565b91507f45524332303a207472616e7366657220616d6f756e742065786365656473206260008301527f616c616e636500000000000000000000000000000000000000000000000000006020830152604082019050919050565b60006136cf602283614114565b91507f45434453413a20696e76616c6964207369676e6174757265202773272076616c60008301527f75650000000000000000000000000000000000000000000000000000000000006020830152604082019050919050565b6000613735601083614114565b91507f5061757361626c653a20706175736564000000000000000000000000000000006000830152602082019050919050565b6000613775601e83614114565b91507f45524332305065726d69743a20696e76616c6964207369676e617475726500006000830152602082019050919050565b60006137b5603083614114565b91507f4552433230566f7465733a20746f74616c20737570706c79207269736b73206f60008301527f766572666c6f77696e6720766f746573000000000000000000000000000000006020830152604082019050919050565b600061381b602083614114565b91507f4f776e61626c653a2063616c6c6572206973206e6f7420746865206f776e65726000830152602082019050919050565b600061385b602783614114565b91507f53616665436173743a2076616c756520646f65736e27742066697420696e203260008301527f32342062697473000000000000000000000000000000000000000000000000006020830152604082019050919050565b60006138c1602183614114565b91507f45524332303a206275726e2066726f6d20746865207a65726f2061646472657360008301527f73000000000000000000000000000000000000000000000000000000000000006020830152604082019050919050565b6000613927602583614114565b91507f45524332303a207472616e736665722066726f6d20746865207a65726f20616460008301527f64726573730000000000000000000000000000000000000000000000000000006020830152604082019050919050565b600061398d602683614114565b91507f53616665436173743a2076616c756520646f65736e27742066697420696e203360008301527f32206269747300000000000000000000000000000000000000000000000000006020830152604082019050919050565b60006139f3602483614114565b91507f45524332303a20617070726f76652066726f6d20746865207a65726f2061646460008301527f72657373000000000000000000000000000000000000000000000000000000006020830152604082019050919050565b6000613a59602583614114565b91507f45524332303a2064656372656173656420616c6c6f77616e63652062656c6f7760008301527f207a65726f0000000000000000000000000000000000000000000000000000006020830152604082019050919050565b6000613abf601f83614114565b91507f45524332303a206d696e7420746f20746865207a65726f2061646472657373006000830152602082019050919050565b604082016000820151613b086000850182613b3f565b506020820151613b1b6020850182613b21565b50505050565b613b2a81614233565b82525050565b613b398161425b565b82525050565b613b4881614265565b82525050565b613b5781614265565b82525050565b613b6681614275565b82525050565b6000613b778261359c565b9150613b838285613234565b602082019150613b938284613234565b6020820191508190509392505050565b6000602082019050613bb86000830184613207565b92915050565b6000602082019050613bd36000830184613216565b92915050565b6000602082019050613bee6000830184613225565b92915050565b600060c082019050613c096000830189613225565b613c166020830188613207565b613c236040830187613207565b613c306060830186613b30565b613c3d6080830185613b30565b613c4a60a0830184613b30565b979650505050505050565b6000608082019050613c6a6000830187613225565b613c776020830186613207565b613c846040830185613b30565b613c916060830184613b30565b95945050505050565b600060a082019050613caf6000830188613225565b613cbc6020830187613225565b613cc96040830186613225565b613cd66060830185613b30565b613ce36080830184613207565b9695505050505050565b6000608082019050613d026000830187613225565b613d0f6020830186613b5d565b613d1c6040830185613225565b613d296060830184613225565b95945050505050565b60006020820190508181036000830152613d4c818461324b565b905092915050565b60006020820190508181036000830152613d6d81613284565b9050919050565b60006020820190508181036000830152613d8d816132c4565b9050919050565b60006020820190508181036000830152613dad8161332a565b9050919050565b60006020820190508181036000830152613dcd8161336a565b9050919050565b60006020820190508181036000830152613ded816133aa565b9050919050565b60006020820190508181036000830152613e0d816133ea565b9050919050565b60006020820190508181036000830152613e2d81613450565b9050919050565b60006020820190508181036000830152613e4d81613490565b9050919050565b60006020820190508181036000830152613e6d816134d0565b9050919050565b60006020820190508181036000830152613e8d81613536565b9050919050565b60006020820190508181036000830152613ead816135dc565b9050919050565b60006020820190508181036000830152613ecd8161361c565b9050919050565b60006020820190508181036000830152613eed8161365c565b9050919050565b60006020820190508181036000830152613f0d816136c2565b9050919050565b60006020820190508181036000830152613f2d81613728565b9050919050565b60006020820190508181036000830152613f4d81613768565b9050919050565b60006020820190508181036000830152613f6d816137a8565b9050919050565b60006020820190508181036000830152613f8d8161380e565b9050919050565b60006020820190508181036000830152613fad8161384e565b9050919050565b60006020820190508181036000830152613fcd816138b4565b9050919050565b60006020820190508181036000830152613fed8161391a565b9050919050565b6000602082019050818103600083015261400d81613980565b9050919050565b6000602082019050818103600083015261402d816139e6565b9050919050565b6000602082019050818103600083015261404d81613a4c565b9050919050565b6000602082019050818103600083015261406d81613ab2565b9050919050565b60006040820190506140896000830184613af2565b92915050565b60006020820190506140a46000830184613b30565b92915050565b60006040820190506140bf6000830185613b30565b6140cc6020830184613b30565b9392505050565b60006020820190506140e86000830184613b4e565b92915050565b60006020820190506141036000830184613b5d565b92915050565b600081519050919050565b600082825260208201905092915050565b600081905092915050565b600061413b8261425b565b91506141468361425b565b9250827fffffffffffffffffffffffffffffffffffffffffffffffffffffffffffffffff0382111561417b5761417a6142f1565b5b828201905092915050565b60006141918261425b565b915061419c8361425b565b9250826141ac576141ab614320565b5b828204905092915050565b60006141c28261425b565b91506141cd8361425b565b9250828210156141e0576141df6142f1565b5b828203905092915050565b60006141f682614213565b9050919050565b60008115159050919050565b6000819050919050565b600073ffffffffffffffffffffffffffffffffffffffff82169050919050565b60007bffffffffffffffffffffffffffffffffffffffffffffffffffffffff82169050919050565b6000819050919050565b600063ffffffff82169050919050565b600060ff82169050919050565b60005b838110156142a0578082015181840152602081019050614285565b838111156142af576000848401525b50505050565b600060028204905060018216806142cd57607f821691505b602082108114156142e1576142e061434f565b5b50919050565b6000819050919050565b7f4e487b7100000000000000000000000000000000000000000000000000000000600052601160045260246000fd5b7f4e487b7100000000000000000000000000000000000000000000000000000000600052601260045260246000fd5b7f4e487b7100000000000000000000000000000000000000000000000000000000600052602260045260246000fd5b6000601f19601f8301169050919050565b614398816141eb565b81146143a357600080fd5b50565b6143af81614209565b81146143ba57600080fd5b50565b6143c68161425b565b81146143d157600080fd5b50565b6143dd81614265565b81146143e857600080fd5b50565b6143f481614275565b81146143ff57600080fd5b5056fea264697066735822122018ce6c0681bc13d4181b945de78a14f9f69facef56e63e5007fc9ca85b06f20664736f6c63430008000033",
  "immutableReferences": {
    "2575": [
      {
        "length": 32,
        "start": 5906
      }
    ],
    "2577": [
      {
        "length": 32,
        "start": 5865
      }
    ],
    "2579": [
      {
        "length": 32,
        "start": 5779
      }
    ],
    "2581": [
      {
        "length": 32,
        "start": 5982
      }
    ],
    "2583": [
      {
        "length": 32,
        "start": 6015
      }
    ],
    "2585": [
      {
        "length": 32,
        "start": 5949
      }
    ]
  },
  "source": "// SPDX-License-Identifier: MIT\npragma solidity >=0.8.0;\n\nimport \"@openzeppelin/contracts/token/ERC20/ERC20.sol\";\nimport \"@openzeppelin/contracts/token/ERC20/extensions/ERC20Burnable.sol\";\nimport \"@openzeppelin/contracts/security/Pausable.sol\";\nimport \"@openzeppelin/contracts/access/Ownable.sol\";\nimport \"@openzeppelin/contracts/token/ERC20/extensions/draft-ERC20Permit.sol\";\nimport \"@openzeppelin/contracts/token/ERC20/extensions/ERC20Votes.sol\";\n\n/**\n * MyToken Contract\n */\ncontract MyToken is\n    ERC20,\n    ERC20Burnable,\n    Pausable,\n    Ownable,\n    ERC20Permit,\n    ERC20Votes\n{\n    // \n    string tokenName;\n    // \n    string tokenSymbol;\n\n    /**\n     * \n     * @param _name \n     * @param _symbol \n     */\n    constructor(string memory _name, string memory _symbol)\n        ERC20(_name, _symbol)\n        ERC20Permit(_name)\n    {\n        // \n        tokenName = _name;\n        tokenSymbol = _symbol;\n    }\n\n    /**\n     * \n     */\n    function pause() public onlyOwner {\n        _pause();\n    }\n\n    /**\n     * \n     */\n    function unpause() public onlyOwner {\n        _unpause();\n    }\n\n    /**\n     * \n     * @param to \n     * @param amount \n     */\n    function mint(address to, uint256 amount) public onlyOwner {\n        _mint(to, amount);\n    }\n\n    /**\n     * \n     * @param to \n     * @param amount \n     */\n    function burnToken(address to, uint256 amount) public onlyOwner {\n        _burn(to, amount);\n    }\n\n    /**\n     * \n     * @param from \n     * @param to \n     * @param amount \n     */\n    function _beforeTokenTransfer(\n        address from,\n        address to,\n        uint256 amount\n    ) internal override whenNotPaused {\n        super._beforeTokenTransfer(from, to, amount);\n    }\n\n    /**\n     * \n     * @param from \n     * @param to \n     * @param amount \n     */\n    function _afterTokenTransfer(\n        address from,\n        address to,\n        uint256 amount\n    ) internal override(ERC20, ERC20Votes) {\n        super._afterTokenTransfer(from, to, amount);\n    }\n\n    /**\n     * \n     */\n    function _mint(address to, uint256 amount)\n        internal\n        override(ERC20, ERC20Votes)\n    {\n        super._mint(to, amount);\n    }\n\n    /**\n     * \n     */\n    function _burn(address account, uint256 amount)\n        internal\n        override(ERC20, ERC20Votes)\n    {\n        super._burn(account, amount);\n    }\n}\n",
  "sourcePath": "/Users/harukikondo/git/Web3Wallet/packages/backend/contracts/Token/MyToken.sol",
  "compiler": {
    "name": "solc",
    "version": "0.8.0+commit.c7dfd78e.Emscripten.clang"
  },
  "schemaVersion": "3.4.3",
  "updatedAt": "2023-03-29T13:57:15.667Z",
  "networkType": "ethereum",
  "devdoc": {
    "kind": "dev",
    "methods": {
      "DOMAIN_SEPARATOR()": {
        "details": "See {IERC20Permit-DOMAIN_SEPARATOR}."
      },
      "allowance(address,address)": {
        "details": "See {IERC20-allowance}."
      },
      "approve(address,uint256)": {
        "details": "See {IERC20-approve}. NOTE: If `amount` is the maximum `uint256`, the allowance is not updated on `transferFrom`. This is semantically equivalent to an infinite approval. Requirements: - `spender` cannot be the zero address."
      },
      "balanceOf(address)": {
        "details": "See {IERC20-balanceOf}."
      },
      "burn(uint256)": {
        "details": "Destroys `amount` tokens from the caller. See {ERC20-_burn}."
      },
      "burnFrom(address,uint256)": {
        "details": "Destroys `amount` tokens from `account`, deducting from the caller's allowance. See {ERC20-_burn} and {ERC20-allowance}. Requirements: - the caller must have allowance for ``accounts``'s tokens of at least `amount`."
      },
      "burnToken(address,uint256)": {
        "params": {
          "amount": "",
          "to": ""
        }
      },
      "checkpoints(address,uint32)": {
        "details": "Get the `pos`-th checkpoint for `account`."
      },
      "constructor": {
        "params": {
          "_name": "",
          "_symbol": ""
        }
      },
      "decimals()": {
        "details": "Returns the number of decimals used to get its user representation. For example, if `decimals` equals `2`, a balance of `505` tokens should be displayed to a user as `5.05` (`505 / 10 ** 2`). Tokens usually opt for a value of 18, imitating the relationship between Ether and Wei. This is the value {ERC20} uses, unless this function is overridden; NOTE: This information is only used for _display_ purposes: it in no way affects any of the arithmetic of the contract, including {IERC20-balanceOf} and {IERC20-transfer}."
      },
      "decreaseAllowance(address,uint256)": {
        "details": "Atomically decreases the allowance granted to `spender` by the caller. This is an alternative to {approve} that can be used as a mitigation for problems described in {IERC20-approve}. Emits an {Approval} event indicating the updated allowance. Requirements: - `spender` cannot be the zero address. - `spender` must have allowance for the caller of at least `subtractedValue`."
      },
      "delegate(address)": {
        "details": "Delegate votes from the sender to `delegatee`."
      },
      "delegateBySig(address,uint256,uint256,uint8,bytes32,bytes32)": {
        "details": "Delegates votes from signer to `delegatee`"
      },
      "delegates(address)": {
        "details": "Get the address `account` is currently delegating to."
      },
      "getPastTotalSupply(uint256)": {
        "details": "Retrieve the `totalSupply` at the end of `blockNumber`. Note, this value is the sum of all balances. It is but NOT the sum of all the delegated votes! Requirements: - `blockNumber` must have been already mined"
      },
      "getPastVotes(address,uint256)": {
        "details": "Retrieve the number of votes for `account` at the end of `blockNumber`. Requirements: - `blockNumber` must have been already mined"
      },
      "getVotes(address)": {
        "details": "Gets the current votes balance for `account`"
      },
      "increaseAllowance(address,uint256)": {
        "details": "Atomically increases the allowance granted to `spender` by the caller. This is an alternative to {approve} that can be used as a mitigation for problems described in {IERC20-approve}. Emits an {Approval} event indicating the updated allowance. Requirements: - `spender` cannot be the zero address."
      },
      "mint(address,uint256)": {
        "params": {
          "amount": "",
          "to": ""
        }
      },
      "name()": {
        "details": "Returns the name of the token."
      },
      "nonces(address)": {
        "details": "See {IERC20Permit-nonces}."
      },
      "numCheckpoints(address)": {
        "details": "Get number of checkpoints for `account`."
      },
      "owner()": {
        "details": "Returns the address of the current owner."
      },
      "paused()": {
        "details": "Returns true if the contract is paused, and false otherwise."
      },
      "permit(address,address,uint256,uint256,uint8,bytes32,bytes32)": {
        "details": "See {IERC20Permit-permit}."
      },
      "renounceOwnership()": {
        "details": "Leaves the contract without owner. It will not be possible to call `onlyOwner` functions anymore. Can only be called by the current owner. NOTE: Renouncing ownership will leave the contract without an owner, thereby removing any functionality that is only available to the owner."
      },
      "symbol()": {
        "details": "Returns the symbol of the token, usually a shorter version of the name."
      },
      "totalSupply()": {
        "details": "See {IERC20-totalSupply}."
      },
      "transfer(address,uint256)": {
        "details": "See {IERC20-transfer}. Requirements: - `to` cannot be the zero address. - the caller must have a balance of at least `amount`."
      },
      "transferFrom(address,address,uint256)": {
        "details": "See {IERC20-transferFrom}. Emits an {Approval} event indicating the updated allowance. This is not required by the EIP. See the note at the beginning of {ERC20}. NOTE: Does not update the allowance if the current allowance is the maximum `uint256`. Requirements: - `from` and `to` cannot be the zero address. - `from` must have a balance of at least `amount`. - the caller must have allowance for ``from``'s tokens of at least `amount`."
      },
      "transferOwnership(address)": {
        "details": "Transfers ownership of the contract to a new account (`newOwner`). Can only be called by the current owner."
      }
    },
    "version": 1
  },
  "userdoc": {
    "kind": "user",
    "methods": {
      "burnToken(address,uint256)": {
        "notice": ""
      },
      "constructor": {
        "notice": ""
      },
      "mint(address,uint256)": {
        "notice": ""
      },
      "pause()": {
        "notice": ""
      },
      "unpause()": {
        "notice": ""
      }
    },
    "notice": "MyToken Contract",
    "version": 1
  }
}