{
  "contractName": "MyToken",
  "abi": [
    {
      "inputs": [
        {
          "internalType": "string",
          "name": "_name",
          "type": "string"
        },
        {
          "internalType": "string",
          "name": "_symbol",
          "type": "string"
        }
      ],
      "stateMutability": "nonpayable",
      "type": "constructor"
    },
    {
      "anonymous": false,
      "inputs": [
        {
          "indexed": true,
          "internalType": "address",
          "name": "owner",
          "type": "address"
        },
        {
          "indexed": true,
          "internalType": "address",
          "name": "spender",
          "type": "address"
        },
        {
          "indexed": false,
          "internalType": "uint256",
          "name": "value",
          "type": "uint256"
        }
      ],
      "name": "Approval",
      "type": "event"
    },
    {
      "anonymous": false,
      "inputs": [
        {
          "indexed": true,
          "internalType": "address",
          "name": "delegator",
          "type": "address"
        },
        {
          "indexed": true,
          "internalType": "address",
          "name": "fromDelegate",
          "type": "address"
        },
        {
          "indexed": true,
          "internalType": "address",
          "name": "toDelegate",
          "type": "address"
        }
      ],
      "name": "DelegateChanged",
      "type": "event"
    },
    {
      "anonymous": false,
      "inputs": [
        {
          "indexed": true,
          "internalType": "address",
          "name": "delegate",
          "type": "address"
        },
        {
          "indexed": false,
          "internalType": "uint256",
          "name": "previousBalance",
          "type": "uint256"
        },
        {
          "indexed": false,
          "internalType": "uint256",
          "name": "newBalance",
          "type": "uint256"
        }
      ],
      "name": "DelegateVotesChanged",
      "type": "event"
    },
    {
      "anonymous": false,
      "inputs": [
        {
          "indexed": true,
          "internalType": "address",
          "name": "previousOwner",
          "type": "address"
        },
        {
          "indexed": true,
          "internalType": "address",
          "name": "newOwner",
          "type": "address"
        }
      ],
      "name": "OwnershipTransferred",
      "type": "event"
    },
    {
      "anonymous": false,
      "inputs": [
        {
          "indexed": false,
          "internalType": "address",
          "name": "account",
          "type": "address"
        }
      ],
      "name": "Paused",
      "type": "event"
    },
    {
      "anonymous": false,
      "inputs": [
        {
          "indexed": true,
          "internalType": "address",
          "name": "from",
          "type": "address"
        },
        {
          "indexed": true,
          "internalType": "address",
          "name": "to",
          "type": "address"
        },
        {
          "indexed": false,
          "internalType": "uint256",
          "name": "value",
          "type": "uint256"
        }
      ],
      "name": "Transfer",
      "type": "event"
    },
    {
      "anonymous": false,
      "inputs": [
        {
          "indexed": false,
          "internalType": "address",
          "name": "account",
          "type": "address"
        }
      ],
      "name": "Unpaused",
      "type": "event"
    },
    {
      "inputs": [],
      "name": "DOMAIN_SEPARATOR",
      "outputs": [
        {
          "internalType": "bytes32",
          "name": "",
          "type": "bytes32"
        }
      ],
      "stateMutability": "view",
      "type": "function"
    },
    {
      "inputs": [
        {
          "internalType": "address",
          "name": "owner",
          "type": "address"
        },
        {
          "internalType": "address",
          "name": "spender",
          "type": "address"
        }
      ],
      "name": "allowance",
      "outputs": [
        {
          "internalType": "uint256",
          "name": "",
          "type": "uint256"
        }
      ],
      "stateMutability": "view",
      "type": "function"
    },
    {
      "inputs": [
        {
          "internalType": "address",
          "name": "spender",
          "type": "address"
        },
        {
          "internalType": "uint256",
          "name": "amount",
          "type": "uint256"
        }
      ],
      "name": "approve",
      "outputs": [
        {
          "internalType": "bool",
          "name": "",
          "type": "bool"
        }
      ],
      "stateMutability": "nonpayable",
      "type": "function"
    },
    {
      "inputs": [
        {
          "internalType": "address",
          "name": "account",
          "type": "address"
        }
      ],
      "name": "balanceOf",
      "outputs": [
        {
          "internalType": "uint256",
          "name": "",
          "type": "uint256"
        }
      ],
      "stateMutability": "view",
      "type": "function"
    },
    {
      "inputs": [
        {
          "internalType": "uint256",
          "name": "amount",
          "type": "uint256"
        }
      ],
      "name": "burn",
      "outputs": [],
      "stateMutability": "nonpayable",
      "type": "function"
    },
    {
      "inputs": [
        {
          "internalType": "address",
          "name": "account",
          "type": "address"
        },
        {
          "internalType": "uint256",
          "name": "amount",
          "type": "uint256"
        }
      ],
      "name": "burnFrom",
      "outputs": [],
      "stateMutability": "nonpayable",
      "type": "function"
    },
    {
      "inputs": [
        {
          "internalType": "address",
          "name": "account",
          "type": "address"
        },
        {
          "internalType": "uint32",
          "name": "pos",
          "type": "uint32"
        }
      ],
      "name": "checkpoints",
      "outputs": [
        {
          "components": [
            {
              "internalType": "uint32",
              "name": "fromBlock",
              "type": "uint32"
            },
            {
              "internalType": "uint224",
              "name": "votes",
              "type": "uint224"
            }
          ],
          "internalType": "struct ERC20Votes.Checkpoint",
          "name": "",
          "type": "tuple"
        }
      ],
      "stateMutability": "view",
      "type": "function"
    },
    {
      "inputs": [],
      "name": "decimals",
      "outputs": [
        {
          "internalType": "uint8",
          "name": "",
          "type": "uint8"
        }
      ],
      "stateMutability": "view",
      "type": "function"
    },
    {
      "inputs": [
        {
          "internalType": "address",
          "name": "spender",
          "type": "address"
        },
        {
          "internalType": "uint256",
          "name": "subtractedValue",
          "type": "uint256"
        }
      ],
      "name": "decreaseAllowance",
      "outputs": [
        {
          "internalType": "bool",
          "name": "",
          "type": "bool"
        }
      ],
      "stateMutability": "nonpayable",
      "type": "function"
    },
    {
      "inputs": [
        {
          "internalType": "address",
          "name": "delegatee",
          "type": "address"
        }
      ],
      "name": "delegate",
      "outputs": [],
      "stateMutability": "nonpayable",
      "type": "function"
    },
    {
      "inputs": [
        {
          "internalType": "address",
          "name": "delegatee",
          "type": "address"
        },
        {
          "internalType": "uint256",
          "name": "nonce",
          "type": "uint256"
        },
        {
          "internalType": "uint256",
          "name": "expiry",
          "type": "uint256"
        },
        {
          "internalType": "uint8",
          "name": "v",
          "type": "uint8"
        },
        {
          "internalType": "bytes32",
          "name": "r",
          "type": "bytes32"
        },
        {
          "internalType": "bytes32",
          "name": "s",
          "type": "bytes32"
        }
      ],
      "name": "delegateBySig",
      "outputs": [],
      "stateMutability": "nonpayable",
      "type": "function"
    },
    {
      "inputs": [
        {
          "internalType": "address",
          "name": "account",
          "type": "address"
        }
      ],
      "name": "delegates",
      "outputs": [
        {
          "internalType": "address",
          "name": "",
          "type": "address"
        }
      ],
      "stateMutability": "view",
      "type": "function"
    },
    {
      "inputs": [
        {
          "internalType": "uint256",
          "name": "blockNumber",
          "type": "uint256"
        }
      ],
      "name": "getPastTotalSupply",
      "outputs": [
        {
          "internalType": "uint256",
          "name": "",
          "type": "uint256"
        }
      ],
      "stateMutability": "view",
      "type": "function"
    },
    {
      "inputs": [
        {
          "internalType": "address",
          "name": "account",
          "type": "address"
        },
        {
          "internalType": "uint256",
          "name": "blockNumber",
          "type": "uint256"
        }
      ],
      "name": "getPastVotes",
      "outputs": [
        {
          "internalType": "uint256",
          "name": "",
          "type": "uint256"
        }
      ],
      "stateMutability": "view",
      "type": "function"
    },
    {
      "inputs": [
        {
          "internalType": "address",
          "name": "account",
          "type": "address"
        }
      ],
      "name": "getVotes",
      "outputs": [
        {
          "internalType": "uint256",
          "name": "",
          "type": "uint256"
        }
      ],
      "stateMutability": "view",
      "type": "function"
    },
    {
      "inputs": [
        {
          "internalType": "address",
          "name": "spender",
          "type": "address"
        },
        {
          "internalType": "uint256",
          "name": "addedValue",
          "type": "uint256"
        }
      ],
      "name": "increaseAllowance",
      "outputs": [
        {
          "internalType": "bool",
          "name": "",
          "type": "bool"
        }
      ],
      "stateMutability": "nonpayable",
      "type": "function"
    },
    {
      "inputs": [],
      "name": "name",
      "outputs": [
        {
          "internalType": "string",
          "name": "",
          "type": "string"
        }
      ],
      "stateMutability": "view",
      "type": "function"
    },
    {
      "inputs": [
        {
          "internalType": "address",
          "name": "owner",
          "type": "address"
        }
      ],
      "name": "nonces",
      "outputs": [
        {
          "internalType": "uint256",
          "name": "",
          "type": "uint256"
        }
      ],
      "stateMutability": "view",
      "type": "function"
    },
    {
      "inputs": [
        {
          "internalType": "address",
          "name": "account",
          "type": "address"
        }
      ],
      "name": "numCheckpoints",
      "outputs": [
        {
          "internalType": "uint32",
          "name": "",
          "type": "uint32"
        }
      ],
      "stateMutability": "view",
      "type": "function"
    },
    {
      "inputs": [],
      "name": "owner",
      "outputs": [
        {
          "internalType": "address",
          "name": "",
          "type": "address"
        }
      ],
      "stateMutability": "view",
      "type": "function"
    },
    {
      "inputs": [],
      "name": "paused",
      "outputs": [
        {
          "internalType": "bool",
          "name": "",
          "type": "bool"
        }
      ],
      "stateMutability": "view",
      "type": "function"
    },
    {
      "inputs": [
        {
          "internalType": "address",
          "name": "owner",
          "type": "address"
        },
        {
          "internalType": "address",
          "name": "spender",
          "type": "address"
        },
        {
          "internalType": "uint256",
          "name": "value",
          "type": "uint256"
        },
        {
          "internalType": "uint256",
          "name": "deadline",
          "type": "uint256"
        },
        {
          "internalType": "uint8",
          "name": "v",
          "type": "uint8"
        },
        {
          "internalType": "bytes32",
          "name": "r",
          "type": "bytes32"
        },
        {
          "internalType": "bytes32",
          "name": "s",
          "type": "bytes32"
        }
      ],
      "name": "permit",
      "outputs": [],
      "stateMutability": "nonpayable",
      "type": "function"
    },
    {
      "inputs": [],
      "name": "renounceOwnership",
      "outputs": [],
      "stateMutability": "nonpayable",
      "type": "function"
    },
    {
      "inputs": [],
      "name": "symbol",
      "outputs": [
        {
          "internalType": "string",
          "name": "",
          "type": "string"
        }
      ],
      "stateMutability": "view",
      "type": "function"
    },
    {
      "inputs": [],
      "name": "totalSupply",
      "outputs": [
        {
          "internalType": "uint256",
          "name": "",
          "type": "uint256"
        }
      ],
      "stateMutability": "view",
      "type": "function"
    },
    {
      "inputs": [
        {
          "internalType": "address",
          "name": "to",
          "type": "address"
        },
        {
          "internalType": "uint256",
          "name": "amount",
          "type": "uint256"
        }
      ],
      "name": "transfer",
      "outputs": [
        {
          "internalType": "bool",
          "name": "",
          "type": "bool"
        }
      ],
      "stateMutability": "nonpayable",
      "type": "function"
    },
    {
      "inputs": [
        {
          "internalType": "address",
          "name": "from",
          "type": "address"
        },
        {
          "internalType": "address",
          "name": "to",
          "type": "address"
        },
        {
          "internalType": "uint256",
          "name": "amount",
          "type": "uint256"
        }
      ],
      "name": "transferFrom",
      "outputs": [
        {
          "internalType": "bool",
          "name": "",
          "type": "bool"
        }
      ],
      "stateMutability": "nonpayable",
      "type": "function"
    },
    {
      "inputs": [
        {
          "internalType": "address",
          "name": "newOwner",
          "type": "address"
        }
      ],
      "name": "transferOwnership",
      "outputs": [],
      "stateMutability": "nonpayable",
      "type": "function"
    },
    {
      "inputs": [],
      "name": "pause",
      "outputs": [],
      "stateMutability": "nonpayable",
      "type": "function"
    },
    {
      "inputs": [],
      "name": "unpause",
      "outputs": [],
      "stateMutability": "nonpayable",
      "type": "function"
    },
    {
      "inputs": [
        {
          "internalType": "address",
          "name": "to",
          "type": "address"
        },
        {
          "internalType": "uint256",
          "name": "amount",
          "type": "uint256"
        }
      ],
      "name": "mint",
      "outputs": [],
      "stateMutability": "nonpayable",
      "type": "function"
    },
    {
      "inputs": [
        {
          "internalType": "address",
          "name": "to",
          "type": "address"
        },
        {
          "internalType": "uint256",
          "name": "amount",
          "type": "uint256"
        }
      ],
      "name": "burnToken",
      "outputs": [],
      "stateMutability": "nonpayable",
      "type": "function"
    }
  ],
  "bytecode": "0x6101406040523480156200001257600080fd5b5060405162004a7e38038062004a7e833981810160405281019062000038919062000525565b81806040518060400160405280600181526020017f3100000000000000000000000000000000000000000000000000000000000000815250848481600390805190602001906200008a929190620002d8565b508060049080519060200190620000a3929190620002d8565b5050506000600560006101000a81548160ff021916908315150217905550620000e1620000d5620001ce60201b60201c565b620001d660201b60201c565b60008280519060200120905060008280519060200120905060007f8b73c3c69bb8fe3d512ecc4cf759cc79239f7b179b0ffacaa9a75d522b39400f90508260e081815250508161010081815250504660a081815250506200014a8184846200029c60201b60201c565b608081815250503073ffffffffffffffffffffffffffffffffffffffff1660c08173ffffffffffffffffffffffffffffffffffffffff168152505080610120818152505050505050505081600b9080519060200190620001ac929190620002d8565b5080600c9080519060200190620001c5929190620002d8565b505050620006e7565b600033905090565b6000600560019054906101000a900473ffffffffffffffffffffffffffffffffffffffff16905081600560016101000a81548173ffffffffffffffffffffffffffffffffffffffff021916908373ffffffffffffffffffffffffffffffffffffffff1602179055508173ffffffffffffffffffffffffffffffffffffffff168173ffffffffffffffffffffffffffffffffffffffff167f8be0079c531659141344cd1fd0a4f28419497f9722a3daafe3b4186f6b6457e060405160405180910390a35050565b60008383834630604051602001620002b995949392919062000625565b6040516020818303038152906040528051906020012090509392505050565b828054620002e690620006b1565b90600052602060002090601f0160209004810192826200030a576000855562000356565b82601f106200032557805160ff191683800117855562000356565b8280016001018555821562000356579182015b828111156200035557825182559160200191906001019062000338565b5b50905062000365919062000369565b5090565b5b80821115620003845760008160009055506001016200036a565b5090565b6000604051905090565b600080fd5b600080fd5b600080fd5b600080fd5b6000601f19601f8301169050919050565b7f4e487b7100000000000000000000000000000000000000000000000000000000600052604160045260246000fd5b620003f182620003a6565b810181811067ffffffffffffffff82111715620004135762000412620003b7565b5b80604052505050565b60006200042862000388565b9050620004368282620003e6565b919050565b600067ffffffffffffffff821115620004595762000458620003b7565b5b6200046482620003a6565b9050602081019050919050565b60005b838110156200049157808201518184015260208101905062000474565b83811115620004a1576000848401525b50505050565b6000620004be620004b8846200043b565b6200041c565b905082815260208101848484011115620004dd57620004dc620003a1565b5b620004ea84828562000471565b509392505050565b600082601f8301126200050a57620005096200039c565b5b81516200051c848260208601620004a7565b91505092915050565b600080604083850312156200053f576200053e62000392565b5b600083015167ffffffffffffffff81111562000560576200055f62000397565b5b6200056e85828601620004f2565b925050602083015167ffffffffffffffff81111562000592576200059162000397565b5b620005a085828601620004f2565b9150509250929050565b6000819050919050565b620005bf81620005aa565b82525050565b6000819050919050565b620005da81620005c5565b82525050565b600073ffffffffffffffffffffffffffffffffffffffff82169050919050565b60006200060d82620005e0565b9050919050565b6200061f8162000600565b82525050565b600060a0820190506200063c6000830188620005b4565b6200064b6020830187620005b4565b6200065a6040830186620005b4565b620006696060830185620005cf565b62000678608083018462000614565b9695505050505050565b7f4e487b7100000000000000000000000000000000000000000000000000000000600052602260045260246000fd5b60006002820490506001821680620006ca57607f821691505b60208210811415620006e157620006e062000682565b5b50919050565b60805160a05160c05160e05161010051610120516143476200073760003960006116f10152600061173301526000611712015260006116470152600061169d015260006116c601526143476000f3fe608060405234801561001057600080fd5b50600436106101f05760003560e01c8063715018a61161010f578063a457c2d7116100a2578063d505accf11610071578063d505accf146105cd578063dd62ed3e146105e9578063f1127ed814610619578063f2fde38b14610649576101f0565b8063a457c2d714610535578063a9059cbb14610565578063c3cda52014610595578063d1df306c146105b1576101f0565b80638da5cb5b116100de5780638da5cb5b146104995780638e539e8c146104b757806395d89b41146104e75780639ab24eb014610505576101f0565b8063715018a61461043957806379cc6790146104435780637ecebe001461045f5780638456cb591461048f576101f0565b80633f4ba83a116101875780635c19a95c116101565780635c19a95c1461039f5780635c975abb146103bb5780636fcfff45146103d957806370a0823114610409576101f0565b80633f4ba83a1461032d57806340c10f191461033757806342966c6814610353578063587cde1e1461036f576101f0565b8063313ce567116101c3578063313ce567146102915780633644e515146102af57806339509351146102cd5780633a46b1a8146102fd576101f0565b806306fdde03146101f5578063095ea7b31461021357806318160ddd1461024357806323b872dd14610261575b600080fd5b6101fd610665565b60405161020a9190612d0f565b60405180910390f35b61022d60048036038101906102289190612dca565b6106f7565b60405161023a9190612e25565b60405180910390f35b61024b61071a565b6040516102589190612e4f565b60405180910390f35b61027b60048036038101906102769190612e6a565b610724565b6040516102889190612e25565b60405180910390f35b610299610753565b6040516102a69190612ed9565b60405180910390f35b6102b761075c565b6040516102c49190612f0d565b60405180910390f35b6102e760048036038101906102e29190612dca565b61076b565b6040516102f49190612e25565b60405180910390f35b61031760048036038101906103129190612dca565b6107a2565b6040516103249190612e4f565b60405180910390f35b610335610836565b005b610351600480360381019061034c9190612dca565b610848565b005b61036d60048036038101906103689190612f28565b61085e565b005b61038960048036038101906103849190612f55565b610872565b6040516103969190612f91565b60405180910390f35b6103b960048036038101906103b49190612f55565b6108db565b005b6103c36108ef565b6040516103d09190612e25565b60405180910390f35b6103f360048036038101906103ee9190612f55565b610906565b6040516104009190612fcb565b60405180910390f35b610423600480360381019061041e9190612f55565b61095a565b6040516104309190612e4f565b60405180910390f35b6104416109a2565b005b61045d60048036038101906104589190612dca565b6109b6565b005b61047960048036038101906104749190612f55565b6109d6565b6040516104869190612e4f565b60405180910390f35b610497610a26565b005b6104a1610a38565b6040516104ae9190612f91565b60405180910390f35b6104d160048036038101906104cc9190612f28565b610a62565b6040516104de9190612e4f565b60405180910390f35b6104ef610ab8565b6040516104fc9190612d0f565b60405180910390f35b61051f600480360381019061051a9190612f55565b610b4a565b60405161052c9190612e4f565b60405180910390f35b61054f600480360381019061054a9190612dca565b610c5b565b60405161055c9190612e25565b60405180910390f35b61057f600480360381019061057a9190612dca565b610cd2565b60405161058c9190612e25565b60405180910390f35b6105af60048036038101906105aa919061303e565b610cf5565b005b6105cb60048036038101906105c69190612dca565b610df9565b005b6105e760048036038101906105e291906130cb565b610e0f565b005b61060360048036038101906105fe919061316d565b610f51565b6040516106109190612e4f565b60405180910390f35b610633600480360381019061062e91906131d9565b610fd8565b604051610640919061328e565b60405180910390f35b610663600480360381019061065e9190612f55565b6110e8565b005b606060038054610674906132d8565b80601f01602080910402602001604051908101604052809291908181526020018280546106a0906132d8565b80156106ed5780601f106106c2576101008083540402835291602001916106ed565b820191906000526020600020905b8154815290600101906020018083116106d057829003601f168201915b5050505050905090565b60008061070261116c565b905061070f818585611174565b600191505092915050565b6000600254905090565b60008061072f61116c565b905061073c85828561133f565b6107478585856113cb565b60019150509392505050565b60006012905090565b6000610766611643565b905090565b60008061077661116c565b90506107978185856107888589610f51565b6107929190613339565b611174565b600191505092915050565b60004382106107e6576040517f08c379a00000000000000000000000000000000000000000000000000000000081526004016107dd906133db565b60405180910390fd5b61082e600960008573ffffffffffffffffffffffffffffffffffffffff1673ffffffffffffffffffffffffffffffffffffffff1681526020019081526020016000208361175d565b905092915050565b61083e6118ae565b61084661192c565b565b6108506118ae565b61085a828261198f565b5050565b61086f61086961116c565b8261199d565b50565b6000600860008373ffffffffffffffffffffffffffffffffffffffff1673ffffffffffffffffffffffffffffffffffffffff16815260200190815260200160002060009054906101000a900473ffffffffffffffffffffffffffffffffffffffff169050919050565b6108ec6108e661116c565b826119ab565b50565b6000600560009054906101000a900460ff16905090565b6000610953600960008473ffffffffffffffffffffffffffffffffffffffff1673ffffffffffffffffffffffffffffffffffffffff16815260200190815260200160002080549050611ac5565b9050919050565b60008060008373ffffffffffffffffffffffffffffffffffffffff1673ffffffffffffffffffffffffffffffffffffffff168152602001908152602001600020549050919050565b6109aa6118ae565b6109b46000611b18565b565b6109c8826109c261116c565b8361133f565b6109d2828261199d565b5050565b6000610a1f600660008473ffffffffffffffffffffffffffffffffffffffff1673ffffffffffffffffffffffffffffffffffffffff168152602001908152602001600020611bde565b9050919050565b610a2e6118ae565b610a36611bec565b565b6000600560019054906101000a900473ffffffffffffffffffffffffffffffffffffffff16905090565b6000438210610aa6576040517f08c379a0000000000000000000000000000000000000000000000000000000008152600401610a9d906133db565b60405180910390fd5b610ab1600a8361175d565b9050919050565b606060048054610ac7906132d8565b80601f0160208091040260200160405190810160405280929190818152602001828054610af3906132d8565b8015610b405780601f10610b1557610100808354040283529160200191610b40565b820191906000526020600020905b815481529060010190602001808311610b2357829003601f168201915b5050505050905090565b600080600960008473ffffffffffffffffffffffffffffffffffffffff1673ffffffffffffffffffffffffffffffffffffffff16815260200190815260200160002080549050905060008114610c3257600960008473ffffffffffffffffffffffffffffffffffffffff1673ffffffffffffffffffffffffffffffffffffffff168152602001908152602001600020600182610be691906133fb565b81548110610bf757610bf661342f565b5b9060005260206000200160000160049054906101000a90047bffffffffffffffffffffffffffffffffffffffffffffffffffffffff16610c35565b60005b7bffffffffffffffffffffffffffffffffffffffffffffffffffffffff16915050919050565b600080610c6661116c565b90506000610c748286610f51565b905083811015610cb9576040517f08c379a0000000000000000000000000000000000000000000000000000000008152600401610cb0906134d0565b60405180910390fd5b610cc68286868403611174565b60019250505092915050565b600080610cdd61116c565b9050610cea8185856113cb565b600191505092915050565b83421115610d38576040517f08c379a0000000000000000000000000000000000000000000000000000000008152600401610d2f9061353c565b60405180910390fd5b6000610d9a610d927fe48329057bfd03d55e49b547132e39cffd9c1820ad7b9d4c5307691425d15adf898989604051602001610d77949392919061355c565b60405160208183030381529060405280519060200120611c4f565b858585611c69565b9050610da581611c94565b8614610de6576040517f08c379a0000000000000000000000000000000000000000000000000000000008152600401610ddd906135ed565b60405180910390fd5b610df081886119ab565b50505050505050565b610e016118ae565b610e0b828261199d565b5050565b83421115610e52576040517f08c379a0000000000000000000000000000000000000000000000000000000008152600401610e4990613659565b60405180910390fd5b60007f6e71edae12b1b97f4d1f60370fef10105fa2faae0126114a169c64845d6126c9888888610e818c611c94565b89604051602001610e9796959493929190613679565b6040516020818303038152906040528051906020012090506000610eba82611c4f565b90506000610eca82878787611c69565b90508973ffffffffffffffffffffffffffffffffffffffff168173ffffffffffffffffffffffffffffffffffffffff1614610f3a576040517f08c379a0000000000000000000000000000000000000000000000000000000008152600401610f3190613726565b60405180910390fd5b610f458a8a8a611174565b50505050505050505050565b6000600160008473ffffffffffffffffffffffffffffffffffffffff1673ffffffffffffffffffffffffffffffffffffffff16815260200190815260200160002060008373ffffffffffffffffffffffffffffffffffffffff1673ffffffffffffffffffffffffffffffffffffffff16815260200190815260200160002054905092915050565b610fe0612c38565b600960008473ffffffffffffffffffffffffffffffffffffffff1673ffffffffffffffffffffffffffffffffffffffff1681526020019081526020016000208263ffffffff16815481106110375761103661342f565b5b906000526020600020016040518060400160405290816000820160009054906101000a900463ffffffff1663ffffffff1663ffffffff1681526020016000820160049054906101000a90047bffffffffffffffffffffffffffffffffffffffffffffffffffffffff167bffffffffffffffffffffffffffffffffffffffffffffffffffffffff167bffffffffffffffffffffffffffffffffffffffffffffffffffffffff1681525050905092915050565b6110f06118ae565b600073ffffffffffffffffffffffffffffffffffffffff168173ffffffffffffffffffffffffffffffffffffffff161415611160576040517f08c379a0000000000000000000000000000000000000000000000000000000008152600401611157906137b8565b60405180910390fd5b61116981611b18565b50565b600033905090565b600073ffffffffffffffffffffffffffffffffffffffff168373ffffffffffffffffffffffffffffffffffffffff1614156111e4576040517f08c379a00000000000000000000000000000000000000000000000000000000081526004016111db9061384a565b60405180910390fd5b600073ffffffffffffffffffffffffffffffffffffffff168273ffffffffffffffffffffffffffffffffffffffff161415611254576040517f08c379a000000000000000000000000000000000000000000000000000000000815260040161124b906138dc565b60405180910390fd5b80600160008573ffffffffffffffffffffffffffffffffffffffff1673ffffffffffffffffffffffffffffffffffffffff16815260200190815260200160002060008473ffffffffffffffffffffffffffffffffffffffff1673ffffffffffffffffffffffffffffffffffffffff168152602001908152602001600020819055508173ffffffffffffffffffffffffffffffffffffffff168373ffffffffffffffffffffffffffffffffffffffff167f8c5be1e5ebec7d5bd14f71427d1e84f3dd0314c0f7b2291e5b200ac8c7c3b925836040516113329190612e4f565b60405180910390a3505050565b600061134b8484610f51565b90507fffffffffffffffffffffffffffffffffffffffffffffffffffffffffffffffff81146113c557818110156113b7576040517f08c379a00000000000000000000000000000000000000000000000000000000081526004016113ae90613948565b60405180910390fd5b6113c48484848403611174565b5b50505050565b600073ffffffffffffffffffffffffffffffffffffffff168373ffffffffffffffffffffffffffffffffffffffff16141561143b576040517f08c379a0000000000000000000000000000000000000000000000000000000008152600401611432906139da565b60405180910390fd5b600073ffffffffffffffffffffffffffffffffffffffff168273ffffffffffffffffffffffffffffffffffffffff1614156114ab576040517f08c379a00000000000000000000000000000000000000000000000000000000081526004016114a290613a6c565b60405180910390fd5b6114b6838383611cf2565b60008060008573ffffffffffffffffffffffffffffffffffffffff1673ffffffffffffffffffffffffffffffffffffffff1681526020019081526020016000205490508181101561153c576040517f08c379a000000000000000000000000000000000000000000000000000000000815260040161153390613afe565b60405180910390fd5b8181036000808673ffffffffffffffffffffffffffffffffffffffff1673ffffffffffffffffffffffffffffffffffffffff16815260200190815260200160002081905550816000808573ffffffffffffffffffffffffffffffffffffffff1673ffffffffffffffffffffffffffffffffffffffff168152602001908152602001600020600082825401925050819055508273ffffffffffffffffffffffffffffffffffffffff168473ffffffffffffffffffffffffffffffffffffffff167fddf252ad1be2c89b69c2b068fc378daa952ba7f163c4a11628f55a4df523b3ef8460405161162a9190612e4f565b60405180910390a361163d848484611d0a565b50505050565b60007f000000000000000000000000000000000000000000000000000000000000000073ffffffffffffffffffffffffffffffffffffffff163073ffffffffffffffffffffffffffffffffffffffff161480156116bf57507f000000000000000000000000000000000000000000000000000000000000000046145b156116ec577f0000000000000000000000000000000000000000000000000000000000000000905061175a565b6117577f00000000000000000000000000000000000000000000000000000000000000007f00000000000000000000000000000000000000000000000000000000000000007f0000000000000000000000000000000000000000000000000000000000000000611d1a565b90505b90565b6000808380549050905060008082905060058311156117d357600061178184611d54565b8461178c91906133fb565b9050856117998883611e4e565b60000160009054906101000a900463ffffffff1663ffffffff1611156117c1578091506117d1565b6001816117ce9190613339565b92505b505b5b808210156118335760006117e88383611e63565b9050856117f58883611e4e565b60000160009054906101000a900463ffffffff1663ffffffff16111561181d5780915061182d565b60018161182a9190613339565b92505b506117d4565b60008114611882576118518660018361184c91906133fb565b611e4e565b60000160049054906101000a90047bffffffffffffffffffffffffffffffffffffffffffffffffffffffff16611885565b60005b7bffffffffffffffffffffffffffffffffffffffffffffffffffffffff16935050505092915050565b6118b661116c565b73ffffffffffffffffffffffffffffffffffffffff166118d4610a38565b73ffffffffffffffffffffffffffffffffffffffff161461192a576040517f08c379a000000000000000000000000000000000000000000000000000000000815260040161192190613b6a565b60405180910390fd5b565b611934611e89565b6000600560006101000a81548160ff0219169083151502179055507f5db9ee0a495bf2e6ff9c91a7834c1ba4fdd244a5e8aa4e537bd38aeae4b073aa61197861116c565b6040516119859190612f91565b60405180910390a1565b6119998282611ed2565b5050565b6119a78282611f5f565b5050565b60006119b683610872565b905060006119c38461095a565b905082600860008673ffffffffffffffffffffffffffffffffffffffff1673ffffffffffffffffffffffffffffffffffffffff16815260200190815260200160002060006101000a81548173ffffffffffffffffffffffffffffffffffffffff021916908373ffffffffffffffffffffffffffffffffffffffff1602179055508273ffffffffffffffffffffffffffffffffffffffff168273ffffffffffffffffffffffffffffffffffffffff168573ffffffffffffffffffffffffffffffffffffffff167f3134e8a2e6d97e929a7e54011ea5485d7d196dd5f0ba4d4ef95803e8e3fc257f60405160405180910390a4611abf828483611f7d565b50505050565b600063ffffffff8016821115611b10576040517f08c379a0000000000000000000000000000000000000000000000000000000008152600401611b0790613bfc565b60405180910390fd5b819050919050565b6000600560019054906101000a900473ffffffffffffffffffffffffffffffffffffffff16905081600560016101000a81548173ffffffffffffffffffffffffffffffffffffffff021916908373ffffffffffffffffffffffffffffffffffffffff1602179055508173ffffffffffffffffffffffffffffffffffffffff168173ffffffffffffffffffffffffffffffffffffffff167f8be0079c531659141344cd1fd0a4f28419497f9722a3daafe3b4186f6b6457e060405160405180910390a35050565b600081600001549050919050565b611bf4612176565b6001600560006101000a81548160ff0219169083151502179055507f62e78cea01bee320cd4e420270b5ea74000d11b0c9f74754ebdbfc544b05a258611c3861116c565b604051611c459190612f91565b60405180910390a1565b6000611c62611c5c611643565b836121c0565b9050919050565b6000806000611c7a878787876121f3565b91509150611c87816122d6565b8192505050949350505050565b600080600660008473ffffffffffffffffffffffffffffffffffffffff1673ffffffffffffffffffffffffffffffffffffffff1681526020019081526020016000209050611ce181611bde565b9150611cec81612444565b50919050565b611cfa612176565b611d0583838361245a565b505050565b611d1583838361245f565b505050565b60008383834630604051602001611d35959493929190613c1c565b6040516020818303038152906040528051906020012090509392505050565b600080821415611d675760009050611e49565b60006001611d748461248a565b901c6001901b90506001818481611d8e57611d8d613c6f565b5b048201901c90506001818481611da757611da6613c6f565b5b048201901c90506001818481611dc057611dbf613c6f565b5b048201901c90506001818481611dd957611dd8613c6f565b5b048201901c90506001818481611df257611df1613c6f565b5b048201901c90506001818481611e0b57611e0a613c6f565b5b048201901c90506001818481611e2457611e23613c6f565b5b048201901c9050611e4581828581611e3f57611e3e613c6f565b5b0461256b565b9150505b919050565b60008260005281602060002001905092915050565b60006002828418611e749190613c9e565b828416611e819190613339565b905092915050565b611e916108ef565b611ed0576040517f08c379a0000000000000000000000000000000000000000000000000000000008152600401611ec790613d1b565b60405180910390fd5b565b611edc8282612584565b611ee46126db565b7bffffffffffffffffffffffffffffffffffffffffffffffffffffffff16611f0a61071a565b1115611f4b576040517f08c379a0000000000000000000000000000000000000000000000000000000008152600401611f4290613dad565b60405180910390fd5b611f59600a6126ff83612715565b50505050565b611f6982826129e4565b611f77600a612bb283612715565b50505050565b8173ffffffffffffffffffffffffffffffffffffffff168373ffffffffffffffffffffffffffffffffffffffff1614158015611fb95750600081115b1561217157600073ffffffffffffffffffffffffffffffffffffffff168373ffffffffffffffffffffffffffffffffffffffff161461209757600080612040600960008773ffffffffffffffffffffffffffffffffffffffff1673ffffffffffffffffffffffffffffffffffffffff168152602001908152602001600020612bb285612715565b915091508473ffffffffffffffffffffffffffffffffffffffff167fdec2bacdd2f05b59de34da9b523dff8be42e5e38e818c82fdb0bae774387a724838360405161208c929190613dcd565b60405180910390a250505b600073ffffffffffffffffffffffffffffffffffffffff168273ffffffffffffffffffffffffffffffffffffffff161461217057600080612119600960008673ffffffffffffffffffffffffffffffffffffffff1673ffffffffffffffffffffffffffffffffffffffff1681526020019081526020016000206126ff85612715565b915091508373ffffffffffffffffffffffffffffffffffffffff167fdec2bacdd2f05b59de34da9b523dff8be42e5e38e818c82fdb0bae774387a7248383604051612165929190613dcd565b60405180910390a250505b5b505050565b61217e6108ef565b156121be576040517f08c379a00000000000000000000000000000000000000000000000000000000081526004016121b590613e42565b60405180910390fd5b565b600082826040516020016121d5929190613eda565b60405160208183030381529060405280519060200120905092915050565b6000807f7fffffffffffffffffffffffffffffff5d576e7357a4501ddfe92f46681b20a08360001c111561222e5760006003915091506122cd565b6000600187878787604051600081526020016040526040516122539493929190613f11565b6020604051602081039080840390855afa158015612275573d6000803e3d6000fd5b505050602060405103519050600073ffffffffffffffffffffffffffffffffffffffff168173ffffffffffffffffffffffffffffffffffffffff1614156122c4576000600192509250506122cd565b80600092509250505b94509492505050565b600060048111156122ea576122e9613f56565b5b8160048111156122fd576122fc613f56565b5b141561230857612441565b6001600481111561231c5761231b613f56565b5b81600481111561232f5761232e613f56565b5b1415612370576040517f08c379a000000000000000000000000000000000000000000000000000000000815260040161236790613fd1565b60405180910390fd5b6002600481111561238457612383613f56565b5b81600481111561239757612396613f56565b5b14156123d8576040517f08c379a00000000000000000000000000000000000000000000000000000000081526004016123cf9061403d565b60405180910390fd5b600360048111156123ec576123eb613f56565b5b8160048111156123ff576123fe613f56565b5b1415612440576040517f08c379a0000000000000000000000000000000000000000000000000000000008152600401612437906140cf565b60405180910390fd5b5b50565b6001816000016000828254019250508190555050565b505050565b61246a838383612bc8565b61248561247684610872565b61247f84610872565b83611f7d565b505050565b600080600090506000608084901c11156124ac57608083901c92506080810190505b6000604084901c11156124c757604083901c92506040810190505b6000602084901c11156124e257602083901c92506020810190505b6000601084901c11156124fd57601083901c92506010810190505b6000600884901c111561251857600883901c92506008810190505b6000600484901c111561253357600483901c92506004810190505b6000600284901c111561254e57600283901c92506002810190505b6000600184901c1115612562576001810190505b80915050919050565b600081831061257a578161257c565b825b905092915050565b600073ffffffffffffffffffffffffffffffffffffffff168273ffffffffffffffffffffffffffffffffffffffff1614156125f4576040517f08c379a00000000000000000000000000000000000000000000000000000000081526004016125eb9061413b565b60405180910390fd5b61260060008383611cf2565b80600260008282546126129190613339565b92505081905550806000808473ffffffffffffffffffffffffffffffffffffffff1673ffffffffffffffffffffffffffffffffffffffff168152602001908152602001600020600082825401925050819055508173ffffffffffffffffffffffffffffffffffffffff16600073ffffffffffffffffffffffffffffffffffffffff167fddf252ad1be2c89b69c2b068fc378daa952ba7f163c4a11628f55a4df523b3ef836040516126c39190612e4f565b60405180910390a36126d760008383611d0a565b5050565b60007bffffffffffffffffffffffffffffffffffffffffffffffffffffffff905090565b6000818361270d9190613339565b905092915050565b60008060008580549050905060008082146127e4576127408760018461273b91906133fb565b611e4e565b6040518060400160405290816000820160009054906101000a900463ffffffff1663ffffffff1663ffffffff1681526020016000820160049054906101000a90047bffffffffffffffffffffffffffffffffffffffffffffffffffffffff167bffffffffffffffffffffffffffffffffffffffffffffffffffffffff167bffffffffffffffffffffffffffffffffffffffffffffffffffffffff1681525050612820565b6040518060400160405280600063ffffffff16815260200160007bffffffffffffffffffffffffffffffffffffffffffffffffffffffff168152505b905080602001517bffffffffffffffffffffffffffffffffffffffffffffffffffffffff16935061285584868863ffffffff16565b9250600082118015612870575043816000015163ffffffff16145b156128ea5761287e83612bcd565b6128948860018561288f91906133fb565b611e4e565b60000160046101000a8154817bffffffffffffffffffffffffffffffffffffffffffffffffffffffff02191690837bffffffffffffffffffffffffffffffffffffffffffffffffffffffff1602179055506129da565b8660405180604001604052806128ff43611ac5565b63ffffffff16815260200161291386612bcd565b7bffffffffffffffffffffffffffffffffffffffffffffffffffffffff168152509080600181540180825580915050600190039060005260206000200160009091909190915060008201518160000160006101000a81548163ffffffff021916908363ffffffff16021790555060208201518160000160046101000a8154817bffffffffffffffffffffffffffffffffffffffffffffffffffffffff02191690837bffffffffffffffffffffffffffffffffffffffffffffffffffffffff16021790555050505b5050935093915050565b600073ffffffffffffffffffffffffffffffffffffffff168273ffffffffffffffffffffffffffffffffffffffff161415612a54576040517f08c379a0000000000000000000000000000000000000000000000000000000008152600401612a4b906141cd565b60405180910390fd5b612a6082600083611cf2565b60008060008473ffffffffffffffffffffffffffffffffffffffff1673ffffffffffffffffffffffffffffffffffffffff16815260200190815260200160002054905081811015612ae6576040517f08c379a0000000000000000000000000000000000000000000000000000000008152600401612add9061425f565b60405180910390fd5b8181036000808573ffffffffffffffffffffffffffffffffffffffff1673ffffffffffffffffffffffffffffffffffffffff1681526020019081526020016000208190555081600260008282540392505081905550600073ffffffffffffffffffffffffffffffffffffffff168373ffffffffffffffffffffffffffffffffffffffff167fddf252ad1be2c89b69c2b068fc378daa952ba7f163c4a11628f55a4df523b3ef84604051612b999190612e4f565b60405180910390a3612bad83600084611d0a565b505050565b60008183612bc091906133fb565b905092915050565b505050565b60007bffffffffffffffffffffffffffffffffffffffffffffffffffffffff8016821115612c30576040517f08c379a0000000000000000000000000000000000000000000000000000000008152600401612c27906142f1565b60405180910390fd5b819050919050565b6040518060400160405280600063ffffffff16815260200160007bffffffffffffffffffffffffffffffffffffffffffffffffffffffff1681525090565b600081519050919050565b600082825260208201905092915050565b60005b83811015612cb0578082015181840152602081019050612c95565b83811115612cbf576000848401525b50505050565b6000601f19601f8301169050919050565b6000612ce182612c76565b612ceb8185612c81565b9350612cfb818560208601612c92565b612d0481612cc5565b840191505092915050565b60006020820190508181036000830152612d298184612cd6565b905092915050565b600080fd5b600073ffffffffffffffffffffffffffffffffffffffff82169050919050565b6000612d6182612d36565b9050919050565b612d7181612d56565b8114612d7c57600080fd5b50565b600081359050612d8e81612d68565b92915050565b6000819050919050565b612da781612d94565b8114612db257600080fd5b50565b600081359050612dc481612d9e565b92915050565b60008060408385031215612de157612de0612d31565b5b6000612def85828601612d7f565b9250506020612e0085828601612db5565b9150509250929050565b60008115159050919050565b612e1f81612e0a565b82525050565b6000602082019050612e3a6000830184612e16565b92915050565b612e4981612d94565b82525050565b6000602082019050612e646000830184612e40565b92915050565b600080600060608486031215612e8357612e82612d31565b5b6000612e9186828701612d7f565b9350506020612ea286828701612d7f565b9250506040612eb386828701612db5565b9150509250925092565b600060ff82169050919050565b612ed381612ebd565b82525050565b6000602082019050612eee6000830184612eca565b92915050565b6000819050919050565b612f0781612ef4565b82525050565b6000602082019050612f226000830184612efe565b92915050565b600060208284031215612f3e57612f3d612d31565b5b6000612f4c84828501612db5565b91505092915050565b600060208284031215612f6b57612f6a612d31565b5b6000612f7984828501612d7f565b91505092915050565b612f8b81612d56565b82525050565b6000602082019050612fa66000830184612f82565b92915050565b600063ffffffff82169050919050565b612fc581612fac565b82525050565b6000602082019050612fe06000830184612fbc565b92915050565b612fef81612ebd565b8114612ffa57600080fd5b50565b60008135905061300c81612fe6565b92915050565b61301b81612ef4565b811461302657600080fd5b50565b60008135905061303881613012565b92915050565b60008060008060008060c0878903121561305b5761305a612d31565b5b600061306989828a01612d7f565b965050602061307a89828a01612db5565b955050604061308b89828a01612db5565b945050606061309c89828a01612ffd565b93505060806130ad89828a01613029565b92505060a06130be89828a01613029565b9150509295509295509295565b600080600080600080600060e0888a0312156130ea576130e9612d31565b5b60006130f88a828b01612d7f565b97505060206131098a828b01612d7f565b965050604061311a8a828b01612db5565b955050606061312b8a828b01612db5565b945050608061313c8a828b01612ffd565b93505060a061314d8a828b01613029565b92505060c061315e8a828b01613029565b91505092959891949750929550565b6000806040838503121561318457613183612d31565b5b600061319285828601612d7f565b92505060206131a385828601612d7f565b9150509250929050565b6131b681612fac565b81146131c157600080fd5b50565b6000813590506131d3816131ad565b92915050565b600080604083850312156131f0576131ef612d31565b5b60006131fe85828601612d7f565b925050602061320f858286016131c4565b9150509250929050565b61322281612fac565b82525050565b60007bffffffffffffffffffffffffffffffffffffffffffffffffffffffff82169050919050565b61325981613228565b82525050565b6040820160008201516132756000850182613219565b5060208201516132886020850182613250565b50505050565b60006040820190506132a3600083018461325f565b92915050565b7f4e487b7100000000000000000000000000000000000000000000000000000000600052602260045260246000fd5b600060028204905060018216806132f057607f821691505b60208210811415613304576133036132a9565b5b50919050565b7f4e487b7100000000000000000000000000000000000000000000000000000000600052601160045260246000fd5b600061334482612d94565b915061334f83612d94565b9250827fffffffffffffffffffffffffffffffffffffffffffffffffffffffffffffffff038211156133845761338361330a565b5b828201905092915050565b7f4552433230566f7465733a20626c6f636b206e6f7420796574206d696e656400600082015250565b60006133c5601f83612c81565b91506133d08261338f565b602082019050919050565b600060208201905081810360008301526133f4816133b8565b9050919050565b600061340682612d94565b915061341183612d94565b9250828210156134245761342361330a565b5b828203905092915050565b7f4e487b7100000000000000000000000000000000000000000000000000000000600052603260045260246000fd5b7f45524332303a2064656372656173656420616c6c6f77616e63652062656c6f7760008201527f207a65726f000000000000000000000000000000000000000000000000000000602082015250565b60006134ba602583612c81565b91506134c58261345e565b604082019050919050565b600060208201905081810360008301526134e9816134ad565b9050919050565b7f4552433230566f7465733a207369676e61747572652065787069726564000000600082015250565b6000613526601d83612c81565b9150613531826134f0565b602082019050919050565b6000602082019050818103600083015261355581613519565b9050919050565b60006080820190506135716000830187612efe565b61357e6020830186612f82565b61358b6040830185612e40565b6135986060830184612e40565b95945050505050565b7f4552433230566f7465733a20696e76616c6964206e6f6e636500000000000000600082015250565b60006135d7601983612c81565b91506135e2826135a1565b602082019050919050565b60006020820190508181036000830152613606816135ca565b9050919050565b7f45524332305065726d69743a206578706972656420646561646c696e65000000600082015250565b6000613643601d83612c81565b915061364e8261360d565b602082019050919050565b6000602082019050818103600083015261367281613636565b9050919050565b600060c08201905061368e6000830189612efe565b61369b6020830188612f82565b6136a86040830187612f82565b6136b56060830186612e40565b6136c26080830185612e40565b6136cf60a0830184612e40565b979650505050505050565b7f45524332305065726d69743a20696e76616c6964207369676e61747572650000600082015250565b6000613710601e83612c81565b915061371b826136da565b602082019050919050565b6000602082019050818103600083015261373f81613703565b9050919050565b7f4f776e61626c653a206e6577206f776e657220697320746865207a65726f206160008201527f6464726573730000000000000000000000000000000000000000000000000000602082015250565b60006137a2602683612c81565b91506137ad82613746565b604082019050919050565b600060208201905081810360008301526137d181613795565b9050919050565b7f45524332303a20617070726f76652066726f6d20746865207a65726f2061646460008201527f7265737300000000000000000000000000000000000000000000000000000000602082015250565b6000613834602483612c81565b915061383f826137d8565b604082019050919050565b6000602082019050818103600083015261386381613827565b9050919050565b7f45524332303a20617070726f766520746f20746865207a65726f20616464726560008201527f7373000000000000000000000000000000000000000000000000000000000000602082015250565b60006138c6602283612c81565b91506138d18261386a565b604082019050919050565b600060208201905081810360008301526138f5816138b9565b9050919050565b7f45524332303a20696e73756666696369656e7420616c6c6f77616e6365000000600082015250565b6000613932601d83612c81565b915061393d826138fc565b602082019050919050565b6000602082019050818103600083015261396181613925565b9050919050565b7f45524332303a207472616e736665722066726f6d20746865207a65726f20616460008201527f6472657373000000000000000000000000000000000000000000000000000000602082015250565b60006139c4602583612c81565b91506139cf82613968565b604082019050919050565b600060208201905081810360008301526139f3816139b7565b9050919050565b7f45524332303a207472616e7366657220746f20746865207a65726f206164647260008201527f6573730000000000000000000000000000000000000000000000000000000000602082015250565b6000613a56602383612c81565b9150613a61826139fa565b604082019050919050565b60006020820190508181036000830152613a8581613a49565b9050919050565b7f45524332303a207472616e7366657220616d6f756e742065786365656473206260008201527f616c616e63650000000000000000000000000000000000000000000000000000602082015250565b6000613ae8602683612c81565b9150613af382613a8c565b604082019050919050565b60006020820190508181036000830152613b1781613adb565b9050919050565b7f4f776e61626c653a2063616c6c6572206973206e6f7420746865206f776e6572600082015250565b6000613b54602083612c81565b9150613b5f82613b1e565b602082019050919050565b60006020820190508181036000830152613b8381613b47565b9050919050565b7f53616665436173743a2076616c756520646f65736e27742066697420696e203360008201527f3220626974730000000000000000000000000000000000000000000000000000602082015250565b6000613be6602683612c81565b9150613bf182613b8a565b604082019050919050565b60006020820190508181036000830152613c1581613bd9565b9050919050565b600060a082019050613c316000830188612efe565b613c3e6020830187612efe565b613c4b6040830186612efe565b613c586060830185612e40565b613c656080830184612f82565b9695505050505050565b7f4e487b7100000000000000000000000000000000000000000000000000000000600052601260045260246000fd5b6000613ca982612d94565b9150613cb483612d94565b925082613cc457613cc3613c6f565b5b828204905092915050565b7f5061757361626c653a206e6f7420706175736564000000000000000000000000600082015250565b6000613d05601483612c81565b9150613d1082613ccf565b602082019050919050565b60006020820190508181036000830152613d3481613cf8565b9050919050565b7f4552433230566f7465733a20746f74616c20737570706c79207269736b73206f60008201527f766572666c6f77696e6720766f74657300000000000000000000000000000000602082015250565b6000613d97603083612c81565b9150613da282613d3b565b604082019050919050565b60006020820190508181036000830152613dc681613d8a565b9050919050565b6000604082019050613de26000830185612e40565b613def6020830184612e40565b9392505050565b7f5061757361626c653a2070617573656400000000000000000000000000000000600082015250565b6000613e2c601083612c81565b9150613e3782613df6565b602082019050919050565b60006020820190508181036000830152613e5b81613e1f565b9050919050565b600081905092915050565b7f1901000000000000000000000000000000000000000000000000000000000000600082015250565b6000613ea3600283613e62565b9150613eae82613e6d565b600282019050919050565b6000819050919050565b613ed4613ecf82612ef4565b613eb9565b82525050565b6000613ee582613e96565b9150613ef18285613ec3565b602082019150613f018284613ec3565b6020820191508190509392505050565b6000608082019050613f266000830187612efe565b613f336020830186612eca565b613f406040830185612efe565b613f4d6060830184612efe565b95945050505050565b7f4e487b7100000000000000000000000000000000000000000000000000000000600052602160045260246000fd5b7f45434453413a20696e76616c6964207369676e61747572650000000000000000600082015250565b6000613fbb601883612c81565b9150613fc682613f85565b602082019050919050565b60006020820190508181036000830152613fea81613fae565b9050919050565b7f45434453413a20696e76616c6964207369676e6174757265206c656e67746800600082015250565b6000614027601f83612c81565b915061403282613ff1565b602082019050919050565b600060208201905081810360008301526140568161401a565b9050919050565b7f45434453413a20696e76616c6964207369676e6174757265202773272076616c60008201527f7565000000000000000000000000000000000000000000000000000000000000602082015250565b60006140b9602283612c81565b91506140c48261405d565b604082019050919050565b600060208201905081810360008301526140e8816140ac565b9050919050565b7f45524332303a206d696e7420746f20746865207a65726f206164647265737300600082015250565b6000614125601f83612c81565b9150614130826140ef565b602082019050919050565b6000602082019050818103600083015261415481614118565b9050919050565b7f45524332303a206275726e2066726f6d20746865207a65726f2061646472657360008201527f7300000000000000000000000000000000000000000000000000000000000000602082015250565b60006141b7602183612c81565b91506141c28261415b565b604082019050919050565b600060208201905081810360008301526141e6816141aa565b9050919050565b7f45524332303a206275726e20616d6f756e7420657863656564732062616c616e60008201527f6365000000000000000000000000000000000000000000000000000000000000602082015250565b6000614249602283612c81565b9150614254826141ed565b604082019050919050565b600060208201905081810360008301526142788161423c565b9050919050565b7f53616665436173743a2076616c756520646f65736e27742066697420696e203260008201527f3234206269747300000000000000000000000000000000000000000000000000602082015250565b60006142db602783612c81565b91506142e68261427f565b604082019050919050565b6000602082019050818103600083015261430a816142ce565b905091905056fea2646970667358221220748cf7495bd463f0bc95f3e2aa7943a2f5303c6e299ccdeba47d994fc67d5d0e64736f6c634300080a0033",
  "immutableReferences": {
    "4119": [
      {
        "length": 32,
        "start": 5830
      }
    ],
    "4121": [
      {
        "length": 32,
        "start": 5789
      }
    ],
    "4123": [
      {
        "length": 32,
        "start": 5703
      }
    ],
    "4125": [
      {
        "length": 32,
        "start": 5906
      }
    ],
    "4127": [
      {
        "length": 32,
        "start": 5939
      }
    ],
    "4129": [
      {
        "length": 32,
        "start": 5873
      }
    ]
  },
  "source": "// SPDX-License-Identifier: MIT\npragma solidity >=0.8.0;\n\nimport \"@openzeppelin/contracts/token/ERC20/ERC20.sol\";\nimport \"@openzeppelin/contracts/token/ERC20/extensions/ERC20Burnable.sol\";\nimport \"@openzeppelin/contracts/security/Pausable.sol\";\nimport \"@openzeppelin/contracts/access/Ownable.sol\";\nimport \"@openzeppelin/contracts/token/ERC20/extensions/draft-ERC20Permit.sol\";\nimport \"@openzeppelin/contracts/token/ERC20/extensions/ERC20Votes.sol\";\n\n/**\n * MyToken Contract\n */\ncontract MyToken is\n    ERC20,\n    ERC20Burnable,\n    Pausable,\n    Ownable,\n    ERC20Permit,\n    ERC20Votes\n{\n    // \n    string tokenName;\n    // \n    string tokenSymbol;\n\n    /**\n     * \n     * @param _name \n     * @param _symbol \n     */\n    constructor(string memory _name, string memory _symbol)\n        ERC20(_name, _symbol)\n        ERC20Permit(_name)\n    {\n        // \n        tokenName = _name;\n        tokenSymbol = _symbol;\n    }\n\n    /**\n     * \n     */\n    function pause() public onlyOwner {\n        _pause();\n    }\n\n    /**\n     * \n     */\n    function unpause() public onlyOwner {\n        _unpause();\n    }\n\n    /**\n     * \n     * @param to \n     * @param amount \n     */\n    function mint(address to, uint256 amount) public onlyOwner {\n        _mint(to, amount);\n    }\n\n    /**\n     * \n     * @param to \n     * @param amount \n     */\n    function burnToken(address to, uint256 amount) public onlyOwner {\n        _burn(to, amount);\n    }\n\n    /**\n     * \n     * @param from \n     * @param to \n     * @param amount \n     */\n    function _beforeTokenTransfer(\n        address from,\n        address to,\n        uint256 amount\n    ) internal override whenNotPaused {\n        super._beforeTokenTransfer(from, to, amount);\n    }\n\n    /**\n     * \n     * @param from \n     * @param to \n     * @param amount \n     */\n    function _afterTokenTransfer(\n        address from,\n        address to,\n        uint256 amount\n    ) internal override(ERC20, ERC20Votes) {\n        super._afterTokenTransfer(from, to, amount);\n    }\n\n    /**\n     * \n     */\n    function _mint(address to, uint256 amount)\n        internal\n        override(ERC20, ERC20Votes)\n    {\n        super._mint(to, amount);\n    }\n\n    /**\n     * \n     */\n    function _burn(address account, uint256 amount)\n        internal\n        override(ERC20, ERC20Votes)\n    {\n        super._burn(account, amount);\n    }\n}\n",
  "sourcePath": "/Users/harukikondo/git/Web3Wallet/packages/backend/contracts/Token/MyToken.sol",
  "compiler": {
    "name": "solc",
    "version": "0.8.10+commit.fc410830.Emscripten.clang"
  },
  "schemaVersion": "3.4.13",
  "updatedAt": "2023-04-01T07:55:25.498Z",
  "devdoc": {
    "kind": "dev",
    "methods": {
      "DOMAIN_SEPARATOR()": {
        "details": "See {IERC20Permit-DOMAIN_SEPARATOR}."
      },
      "allowance(address,address)": {
        "details": "See {IERC20-allowance}."
      },
      "approve(address,uint256)": {
        "details": "See {IERC20-approve}. NOTE: If `amount` is the maximum `uint256`, the allowance is not updated on `transferFrom`. This is semantically equivalent to an infinite approval. Requirements: - `spender` cannot be the zero address."
      },
      "balanceOf(address)": {
        "details": "See {IERC20-balanceOf}."
      },
      "burn(uint256)": {
        "details": "Destroys `amount` tokens from the caller. See {ERC20-_burn}."
      },
      "burnFrom(address,uint256)": {
        "details": "Destroys `amount` tokens from `account`, deducting from the caller's allowance. See {ERC20-_burn} and {ERC20-allowance}. Requirements: - the caller must have allowance for ``accounts``'s tokens of at least `amount`."
      },
      "burnToken(address,uint256)": {
        "params": {
          "amount": "",
          "to": ""
        }
      },
      "checkpoints(address,uint32)": {
        "details": "Get the `pos`-th checkpoint for `account`."
      },
      "constructor": {
        "params": {
          "_name": "",
          "_symbol": ""
        }
      },
      "decimals()": {
        "details": "Returns the number of decimals used to get its user representation. For example, if `decimals` equals `2`, a balance of `505` tokens should be displayed to a user as `5.05` (`505 / 10 ** 2`). Tokens usually opt for a value of 18, imitating the relationship between Ether and Wei. This is the value {ERC20} uses, unless this function is overridden; NOTE: This information is only used for _display_ purposes: it in no way affects any of the arithmetic of the contract, including {IERC20-balanceOf} and {IERC20-transfer}."
      },
      "decreaseAllowance(address,uint256)": {
        "details": "Atomically decreases the allowance granted to `spender` by the caller. This is an alternative to {approve} that can be used as a mitigation for problems described in {IERC20-approve}. Emits an {Approval} event indicating the updated allowance. Requirements: - `spender` cannot be the zero address. - `spender` must have allowance for the caller of at least `subtractedValue`."
      },
      "delegate(address)": {
        "details": "Delegate votes from the sender to `delegatee`."
      },
      "delegateBySig(address,uint256,uint256,uint8,bytes32,bytes32)": {
        "details": "Delegates votes from signer to `delegatee`"
      },
      "delegates(address)": {
        "details": "Get the address `account` is currently delegating to."
      },
      "getPastTotalSupply(uint256)": {
        "details": "Retrieve the `totalSupply` at the end of `blockNumber`. Note, this value is the sum of all balances. It is but NOT the sum of all the delegated votes! Requirements: - `blockNumber` must have been already mined"
      },
      "getPastVotes(address,uint256)": {
        "details": "Retrieve the number of votes for `account` at the end of `blockNumber`. Requirements: - `blockNumber` must have been already mined"
      },
      "getVotes(address)": {
        "details": "Gets the current votes balance for `account`"
      },
      "increaseAllowance(address,uint256)": {
        "details": "Atomically increases the allowance granted to `spender` by the caller. This is an alternative to {approve} that can be used as a mitigation for problems described in {IERC20-approve}. Emits an {Approval} event indicating the updated allowance. Requirements: - `spender` cannot be the zero address."
      },
      "mint(address,uint256)": {
        "params": {
          "amount": "",
          "to": ""
        }
      },
      "name()": {
        "details": "Returns the name of the token."
      },
      "nonces(address)": {
        "details": "See {IERC20Permit-nonces}."
      },
      "numCheckpoints(address)": {
        "details": "Get number of checkpoints for `account`."
      },
      "owner()": {
        "details": "Returns the address of the current owner."
      },
      "paused()": {
        "details": "Returns true if the contract is paused, and false otherwise."
      },
      "permit(address,address,uint256,uint256,uint8,bytes32,bytes32)": {
        "details": "See {IERC20Permit-permit}."
      },
      "renounceOwnership()": {
        "details": "Leaves the contract without owner. It will not be possible to call `onlyOwner` functions anymore. Can only be called by the current owner. NOTE: Renouncing ownership will leave the contract without an owner, thereby removing any functionality that is only available to the owner."
      },
      "symbol()": {
        "details": "Returns the symbol of the token, usually a shorter version of the name."
      },
      "totalSupply()": {
        "details": "See {IERC20-totalSupply}."
      },
      "transfer(address,uint256)": {
        "details": "See {IERC20-transfer}. Requirements: - `to` cannot be the zero address. - the caller must have a balance of at least `amount`."
      },
      "transferFrom(address,address,uint256)": {
        "details": "See {IERC20-transferFrom}. Emits an {Approval} event indicating the updated allowance. This is not required by the EIP. See the note at the beginning of {ERC20}. NOTE: Does not update the allowance if the current allowance is the maximum `uint256`. Requirements: - `from` and `to` cannot be the zero address. - `from` must have a balance of at least `amount`. - the caller must have allowance for ``from``'s tokens of at least `amount`."
      },
      "transferOwnership(address)": {
        "details": "Transfers ownership of the contract to a new account (`newOwner`). Can only be called by the current owner."
      }
    },
    "version": 1
  },
  "userdoc": {
    "kind": "user",
    "methods": {
      "burnToken(address,uint256)": {
        "notice": ""
      },
      "constructor": {
        "notice": ""
      },
      "mint(address,uint256)": {
        "notice": ""
      },
      "pause()": {
        "notice": ""
      },
      "unpause()": {
        "notice": ""
      }
    },
    "notice": "MyToken Contract",
    "version": 1
  }
}